{
  "contractName": "CampaignFactory",
  "abi": [
    {
      "constant": true,
      "inputs": [
        {
          "name": "",
          "type": "address"
        },
        {
          "name": "",
          "type": "uint256"
        }
      ],
      "name": "backersList",
      "outputs": [
        {
          "name": "addrOfCampaign",
          "type": "address"
        },
        {
          "name": "deadline",
          "type": "uint256"
        }
      ],
      "payable": false,
      "stateMutability": "view",
      "type": "function"
    },
    {
      "constant": true,
      "inputs": [
        {
          "name": "",
          "type": "uint256"
        }
      ],
      "name": "deployedCampaigns",
      "outputs": [
        {
          "name": "addrOfCampaign",
          "type": "address"
        },
        {
          "name": "deadline",
          "type": "uint256"
        }
      ],
      "payable": false,
      "stateMutability": "view",
      "type": "function"
    },
    {
      "constant": false,
      "inputs": [],
      "name": "unpause",
      "outputs": [],
      "payable": false,
      "stateMutability": "nonpayable",
      "type": "function"
    },
    {
      "constant": true,
      "inputs": [],
      "name": "paused",
      "outputs": [
        {
          "name": "",
          "type": "bool"
        }
      ],
      "payable": false,
      "stateMutability": "view",
      "type": "function"
    },
    {
      "constant": false,
      "inputs": [],
      "name": "renounceOwnership",
      "outputs": [],
      "payable": false,
      "stateMutability": "nonpayable",
      "type": "function"
    },
    {
      "constant": false,
      "inputs": [],
      "name": "pause",
      "outputs": [],
      "payable": false,
      "stateMutability": "nonpayable",
      "type": "function"
    },
    {
      "constant": true,
      "inputs": [],
      "name": "owner",
      "outputs": [
        {
          "name": "",
          "type": "address"
        }
      ],
      "payable": false,
      "stateMutability": "view",
      "type": "function"
    },
    {
      "constant": false,
      "inputs": [
        {
          "name": "_newOwner",
          "type": "address"
        }
      ],
      "name": "transferOwnership",
      "outputs": [],
      "payable": false,
      "stateMutability": "nonpayable",
      "type": "function"
    },
    {
      "constant": true,
      "inputs": [
        {
          "name": "",
          "type": "address"
        },
        {
          "name": "",
          "type": "uint256"
        }
      ],
      "name": "campaignCreatorsList",
      "outputs": [
        {
          "name": "addrOfCampaign",
          "type": "address"
        },
        {
          "name": "deadline",
          "type": "uint256"
        }
      ],
      "payable": false,
      "stateMutability": "view",
      "type": "function"
    },
    {
      "anonymous": false,
      "inputs": [
        {
          "indexed": false,
          "name": "campaignAddress",
          "type": "address"
        },
        {
          "indexed": false,
          "name": "name",
          "type": "string"
        },
        {
          "indexed": false,
          "name": "minimum",
          "type": "uint256"
        },
        {
          "indexed": false,
          "name": "creator",
          "type": "address"
        },
        {
          "indexed": false,
          "name": "deadline",
          "type": "uint256"
        },
        {
          "indexed": false,
          "name": "goal",
          "type": "uint256"
        },
        {
          "indexed": false,
          "name": "details",
          "type": "string"
        }
      ],
      "name": "NewCampaign",
      "type": "event"
    },
    {
      "anonymous": false,
      "inputs": [],
      "name": "Pause",
      "type": "event"
    },
    {
      "anonymous": false,
      "inputs": [],
      "name": "Unpause",
      "type": "event"
    },
    {
      "anonymous": false,
      "inputs": [
        {
          "indexed": true,
          "name": "previousOwner",
          "type": "address"
        }
      ],
      "name": "OwnershipRenounced",
      "type": "event"
    },
    {
      "anonymous": false,
      "inputs": [
        {
          "indexed": true,
          "name": "previousOwner",
          "type": "address"
        },
        {
          "indexed": true,
          "name": "newOwner",
          "type": "address"
        }
      ],
      "name": "OwnershipTransferred",
      "type": "event"
    },
    {
      "constant": false,
      "inputs": [
        {
          "name": "name",
          "type": "string"
        },
        {
          "name": "minimum",
          "type": "uint256"
        },
        {
          "name": "_deadline",
          "type": "uint256"
        },
        {
          "name": "_goal",
          "type": "uint256"
        },
        {
          "name": "details",
          "type": "string"
        }
      ],
      "name": "createCampaign",
      "outputs": [],
      "payable": false,
      "stateMutability": "nonpayable",
      "type": "function"
    },
    {
      "constant": true,
      "inputs": [
        {
          "name": "user",
          "type": "address"
        },
        {
          "name": "code",
          "type": "uint256"
        }
      ],
      "name": "getCampaigns",
      "outputs": [
        {
          "name": "ongoingCampaigns",
          "type": "address[]"
        },
        {
          "name": "completedCampaigns",
          "type": "address[]"
        }
      ],
      "payable": false,
      "stateMutability": "view",
      "type": "function"
    },
    {
      "constant": false,
      "inputs": [
        {
          "name": "user",
          "type": "address"
        },
        {
          "name": "creatorOrBacker",
          "type": "uint256"
        },
        {
          "name": "_deadline",
          "type": "uint256"
        }
      ],
      "name": "addToList",
      "outputs": [],
      "payable": false,
      "stateMutability": "nonpayable",
      "type": "function"
    },
    {
      "constant": false,
      "inputs": [
        {
          "name": "user",
          "type": "address"
        }
      ],
      "name": "deleteFromList",
      "outputs": [],
      "payable": false,
      "stateMutability": "nonpayable",
      "type": "function"
    }
  ],
  "bytecode": "0x608060405260008054600160a860020a03191633179055612ba3806100256000396000f300608060405260043610620000d25763ffffffff7c010000000000000000000000000000000000000000000000000000000060003504166324b48f328114620000d7578063339d50a514620001215780633d501f2a146200013c5780633f4ba83a14620002005780635c975abb146200021a578063715018a6146200024657806377db1787146200025e5780638456cb5914620002825780638da5cb5b146200029a578063bccec5d114620002ce578063e066913514620002f8578063f2fde38b14620003a4578063fa027da414620003c8575b600080fd5b348015620000e457600080fd5b50620000fe600160a060020a0360043516602435620003ef565b60408051600160a060020a03909316835260208301919091528051918290030190f35b3480156200012e57600080fd5b50620000fe60043562000435565b3480156200014957600080fd5b5062000163600160a060020a03600435166024356200046c565b604051808060200180602001838103835285818151815260200191508051906020019060200280838360005b83811015620001a95781810151838201526020016200018f565b50505050905001838103825284818151815260200191508051906020019060200280838360005b83811015620001ea578181015183820152602001620001d0565b5050505090500194505050505060405180910390f35b3480156200020d57600080fd5b50620002186200061b565b005b3480156200022757600080fd5b506200023262000693565b604080519115158252519081900360200190f35b3480156200025357600080fd5b5062000218620006a3565b3480156200026b57600080fd5b5062000218600160a060020a036004351662000703565b3480156200028f57600080fd5b506200021862000801565b348015620002a757600080fd5b50620002b26200087e565b60408051600160a060020a039092168252519081900360200190f35b348015620002db57600080fd5b5062000218600160a060020a03600435166024356044356200088d565b3480156200030557600080fd5b506040805160206004803580820135601f81018490048402850184019095528484526200021894369492936024939284019190819084018382808284375050604080516020601f60608a01358b0180359182018390048302840183018552818452989b8a359b838c01359b958601359a91995097506080909401955091935091820191819084018382808284375094975062000ade9650505050505050565b348015620003b157600080fd5b5062000218600160a060020a036004351662000e10565b348015620003d557600080fd5b50620000fe600160a060020a036004351660243562000e36565b6002602052816000526040600020818154811015156200040b57fe5b600091825260209091206002909102018054600190910154600160a060020a039091169250905082565b60038054829081106200044457fe5b600091825260209091206002909102018054600190910154600160a060020a03909116915082565b60608080831515620004f0576003805480602002602001604051908101604052809291908181526020016000905b82821015620004e457600084815260209081902060408051808201909152600285029091018054600160a060020a031682526001908101548284015290835290920191016200049a565b50505050905062000604565b83600114156200057657600160a060020a0385166000908152600160209081526040808320805482518185028101850190935280835291939092840182821015620004e457600084815260209081902060408051808201909152600285029091018054600160a060020a031682526001908101548284015290835290920191016200049a565b83600214156200060457600160a060020a038516600090815260026020908152604080832080548251818502810185019093528083529193909284015b82821015620005fd57600084815260209081902060408051808201909152600285029091018054600160a060020a03168252600190810154828401529083529092019101620005b3565b5050505090505b6200060f8162000e52565b92509250509250929050565b600054600160a060020a031633146200063357600080fd5b60005460a060020a900460ff1615156200064c57600080fd5b6000805474ff0000000000000000000000000000000000000000191681556040517f7805862f689e2f13df9f062ff482ad3ad112aca9e0847911ed832e158c525b339190a1565b60005460a060020a900460ff1681565b600054600160a060020a03163314620006bb57600080fd5b60008054604051600160a060020a03909116917ff8df31144d9c2f0f6b59d69b8b98abd5459d07f2742c4df920b25aae33c6482091a260008054600160a060020a0319169055565b6000806200071062001027565b600160a060020a0384166000908152600260205260408120935091505b8254821015620007d25782828154811015156200074657fe5b6000918252602091829020604080518082019091526002909202018054600160a060020a0316808352600190910154928201929092529150331415620007b75782828154811015156200079557fe5b6000918252602082206002909102018054600160a060020a0319168155600101555b620007ca82600163ffffffff62000fa216565b91506200072d565b600160a060020a03841660009081526002602052604090208354620007fa919085906200103e565b5050505050565b600054600160a060020a031633146200081957600080fd5b60005460a060020a900460ff16156200083157600080fd5b6000805474ff0000000000000000000000000000000000000000191660a060020a1781556040517f6985a02210a168e66602d3235cb6db0e70f92b3ba4d376a33c0f3d9434bff6259190a1565b600054600160a060020a031681565b6200089762001027565b6000806000620008a662001027565b600080620008b362001027565b60408051808201909152338152602081018a905297506001965089871415620009cf57600160a060020a038b166000908152600160205260408120965094505b8554851015620009635785858154811015156200090c57fe5b6000918252602091829020604080518082019091526002909202018054600160a060020a03908116808452600190920154938301939093528a51919650911614156200095757600096505b600190940193620008f3565b60018715151415620009c957855460018082018855600088815260208082208c516002909502018054600160a060020a031916600160a060020a039586161781558c82015190840155928e1681529152604090208654620009c7919088906200103e565b505b62000ad1565b896002141562000ad157600160a060020a038b166000908152600260205260408120935091505b825482101562000a6657828281548110151562000a0f57fe5b6000918252602091829020604080518082019091526002909202018054600160a060020a03908116808452600190920154938301939093528a519193509116141562000a5a57600096505b600190910190620009f6565b6001871515141562000ad157825460018082018555600085815260208082208c5160029586029091018054600160a060020a031916600160a060020a039283161781558d830151940193909355918e16815291905260409020835462000acf919085906200103e565b505b5050505050505050505050565b600062000aea62001027565b60005460a060020a900460ff161562000b0257600080fd5b86863387878762000b12620010bb565b6020808201879052600160a060020a0386166040830152606082018590526080820184905260c08083528851908301528751829160a083019160e08401918b019080838360005b8381101562000b7357818101518382015260200162000b59565b50505050905090810190601f16801562000ba15780820380516001836020036101000a031916815260200191505b50838103825284518152845160209182019186019080838360005b8381101562000bd657818101518382015260200162000bbc565b50505050905090810190601f16801562000c045780820380516001836020036101000a031916815260200191505b5098505050505050505050604051809103906000f08015801562000c2c573d6000803e3d6000fd5b50604080518082018252600160a060020a0383811680835260208084018b815260038054600181018255600091825286517fc2575a0e9e593c00f959f8c92f12db2869c3395a3b0502d05e2516446f71f85b60029092029182018054600160a060020a031916919097161790955590517fc2575a0e9e593c00f959f8c92f12db2869c3395a3b0502d05e2516446f71f85c9094019390935584519182529381018b90523360608201819052608082018b905260a082018a905260e08286018181528e51918401919091528d519698509396507f572a30ec60e6ea33ece663babd089d3f436c5c78958c0b39876b19a51018cb6f9588958e958e9593948e948e948e9492939260c0850192610100860192918c0191908190849084905b8381101562000d6257818101518382015260200162000d48565b50505050905090810190601f16801562000d905780820380516001836020036101000a031916815260200191505b50838103825284518152845160209182019186019080838360005b8381101562000dc557818101518382015260200162000dab565b50505050905090810190601f16801562000df35780820380516001836020036101000a031916815260200191505b50995050505050505050505060405180910390a150505050505050565b600054600160a060020a0316331462000e2857600080fd5b62000e338162000fb6565b50565b6001602052816000526040600020818154811015156200040b57fe5b60608060008060008062000e6562001027565b875192508260405190808252806020026020018201604052801562000e94578160200160208202803883390190505b5096508260405190808252806020026020018201604052801562000ec2578160200160208202803883390190505b509550600091505b8282101562000f9857878281518110151562000ee257fe5b90602001906020020151905080602001514211151562000f3f578051875188908790811062000f0d57fe5b600160a060020a0390921660209283029091019091015262000f3785600163ffffffff62000fa216565b945062000f7d565b8051865187908690811062000f5057fe5b600160a060020a0390921660209283029091019091015262000f7a84600163ffffffff62000fa216565b93505b62000f9082600163ffffffff62000fa216565b915062000eca565b5050505050915091565b8181018281101562000fb057fe5b92915050565b600160a060020a038116151562000fcc57600080fd5b60008054604051600160a060020a03808516939216917f8be0079c531659141344cd1fd0a4f28419497f9722a3daafe3b4186f6b6457e091a360008054600160a060020a031916600160a060020a0392909216919091179055565b604080518082019091526000808252602082015290565b828054828255906000526020600020906002028101928215620010a95760005260206000209160020282015b82811115620010a95782548254600160a060020a031916600160a060020a0390911617825560018084015490830155600292830192909101906200106a565b50620010b7929150620010cc565b5090565b604051611a7a80620010fe83390190565b620010fa91905b80821115620010b7578054600160a060020a031916815560006001820155600201620010d3565b90560060806040526000805460a060020a61ffff02191690553480156200002257600080fd5b5060405162001a7a38038062001a7a83398101604090815281516020830151918301516060840151608085015160a086015160008054600160a060020a0319163317905593860195929391929091014283116200007e57600080fd5b85516200009390600390602089019062000258565b5060028054600160a060020a031916600160a060020a0386161790556005859055600683905560078290558051620000d390600490602084019062000258565b50600c805460ff1916905560108054600160a060020a031990811633179182905560118054909116600160a060020a039283161790819055600654604080517fbccec5d1000000000000000000000000000000000000000000000000000000008152888516600482015260016024820152604481019290925251919092169163bccec5d191606480830192600092919082900301818387803b1580156200017957600080fd5b505af11580156200018e573d6000803e3d6000fd5b50505050620001ac84620001b8640100000000026401000000009004565b505050505050620002fd565b600054600160a060020a03163314620001d057600080fd5b620001e481640100000000620001e7810204565b50565b600160a060020a0381161515620001fd57600080fd5b60008054604051600160a060020a03808516939216917f8be0079c531659141344cd1fd0a4f28419497f9722a3daafe3b4186f6b6457e091a360008054600160a060020a031916600160a060020a0392909216919091179055565b828054600181600116156101000203166002900490600052602060002090601f016020900481019282601f106200029b57805160ff1916838001178555620002cb565b82800160010185558215620002cb579182015b82811115620002cb578251825591602001919060010190620002ae565b50620002d9929150620002dd565b5090565b620002fa91905b80821115620002d95760008155600101620002e4565b90565b61176d806200030d6000396000f3006080604052600436106101a05763ffffffff7c01000000000000000000000000000000000000000000000000000000006000350416630344100681146101c857806310550515146101e05780631d565e781461021057806329dcb0cf146102375780632e6bae6b1461024c57806331116a22146102615780633410452a146102eb57806335f0202b146103005780633ccfd60b146103155780633f0795ff1461032a5780633f4ba83a1461033f57806340193883146103545780634051ddac14610369578063481c6a75146104ad578063565974d3146104de5780635c975abb146104f3578063715018a61461051c57806378860268146105315780637b3e5e7b1461054657806380f474f61461055b57806381d12c58146105705780638456cb59146106325780638a9cfd55146106475780638da5cb5b146106b1578063937e09b1146106c6578063966dae0e146106db578063b85dfb80146106f0578063cf56334314610711578063d7bb99ba14610726578063d7d1bbdb1461072e578063dc104f8014610746578063f2fde38b1461075e578063f7ffbd851461077f575b60405133903480156108fc02916000818181858888f1935050505015156101c657600080fd5b005b3480156101d457600080fd5b506101c6600435610794565b3480156101ec57600080fd5b506101f56108f5565b60408051921515835290151560208301528051918290030190f35b34801561021c57600080fd5b5061022561090d565b60408051918252519081900360200190f35b34801561024357600080fd5b50610225610913565b34801561025857600080fd5b506101c6610919565b34801561026d57600080fd5b5061027661095f565b6040805160208082528351818301528351919283929083019185019080838360005b838110156102b0578181015183820152602001610298565b50505050905090810190601f1680156102dd5780820380516001836020036101000a031916815260200191505b509250505060405180910390f35b3480156102f757600080fd5b506102256109ed565b34801561030c57600080fd5b506102256109f4565b34801561032157600080fd5b506101c66109fa565b34801561033657600080fd5b50610225610bf9565b34801561034b57600080fd5b506101c6610bff565b34801561036057600080fd5b50610225610c76565b34801561037557600080fd5b5061037e610c7c565b60405180806020018c600160a060020a0316600160a060020a031681526020018b81526020018a81526020018981526020018060200188815260200187815260200186815260200185815260200184815260200183810383528e818151815260200191508051906020019080838360005b838110156104075781810151838201526020016103ef565b50505050905090810190601f1680156104345780820380516001836020036101000a031916815260200191505b5083810382528951815289516020918201918b019080838360005b8381101561046757818101518382015260200161044f565b50505050905090810190601f1680156104945780820380516001836020036101000a031916815260200191505b509d505050505050505050505050505060405180910390f35b3480156104b957600080fd5b506104c2610e26565b60408051600160a060020a039092168252519081900360200190f35b3480156104ea57600080fd5b50610276610e35565b3480156104ff57600080fd5b50610508610e90565b604080519115158252519081900360200190f35b34801561052857600080fd5b506101c6610ea0565b34801561053d57600080fd5b50610225610f0c565b34801561055257600080fd5b50610225610f12565b34801561056757600080fd5b50610225610f18565b34801561057c57600080fd5b50610588600435610f1e565b604051808060200186815260200185600160a060020a0316600160a060020a0316815260200184151515158152602001838152602001828103825287818151815260200191508051906020019080838360005b838110156105f35781810151838201526020016105db565b50505050905090810190601f1680156106205780820380516001836020036101000a031916815260200191505b50965050505050505060405180910390f35b34801561063e57600080fd5b506101c6610ff8565b34801561065357600080fd5b506040805160206004803580820135601f81018490048402850184019095528484526101c69436949293602493928401919081908401838280828437509497505084359550505050602090910135600160a060020a03169050611074565b3480156106bd57600080fd5b506104c26111f4565b3480156106d257600080fd5b50610225611203565b3480156106e757600080fd5b506104c2611209565b3480156106fc57600080fd5b50610225600160a060020a0360043516611218565b34801561071d57600080fd5b5061050861122a565b6101c6611233565b34801561073a57600080fd5b506101c6600435611426565b34801561075257600080fd5b506101c66004356114bb565b34801561076a57600080fd5b506101c6600160a060020a0360043516611569565b34801561078b57600080fd5b5061022561158c565b60008054600160a060020a031633146107ac57600080fd5b600c5460ff16156107bc57600080fd5b60018054839081106107ca57fe5b906000526020600020906005020190506107f0600260085461159290919063ffffffff16565b6003820154116107ff57600080fd5b600281015460a060020a900460ff161561081857600080fd5b60028101546001820154604051600160a060020a039092169181156108fc0291906000818181858888f19350505050158015610858573d6000803e3d6000fd5b506001810154600f546108709163ffffffff6115a916565b600f556001810154600e5461088a9163ffffffff6115a916565b600e5560028101805460a060020a60ff02191660a060020a1790819055600182015460408051600160a060020a039093168352602083019190915280517f15cf4d7980b6be9411b518575337aca2b746a23acbd3978bec4a1eb23af1415c9281900390910190a15050565b600054600c5460ff60a860020a909204821691169091565b60085481565b60065481565b600054600160a060020a0316331461093057600080fd5b600654421180156109455750600754600d5410155b151561095057600080fd5b600c805460ff19166001179055565b6003805460408051602060026001851615610100026000190190941693909304601f810184900484028201840190925281815292918301828280156109e55780601f106109ba576101008083540402835291602001916109e5565b820191906000526020600020905b8154815290600101906020018083116109c857829003601f168201915b505050505081565b6001545b90565b60095481565b336000908152601260205260408120548110610a1557600080fd5b60005460a060020a900460ff1615610a2c57600080fd5b6000805460a060020a60ff02191660a060020a17905560065442111580610a565750600754600d54105b80610a635750600c5460ff165b1515610a6e57600080fd5b503360009081526012602052604081208054919055600c5460ff1615610abc57610ab5600d54610aa9600f54846115bb90919063ffffffff16565b9063ffffffff61159216565b9050610b7d565b600d54610acf908263ffffffff6115a916565b600d55600f54610ae5908263ffffffff6115a916565b600f55600854610afc90600163ffffffff6115a916565b600855601154604080517f77db17870000000000000000000000000000000000000000000000000000000081523360048201529051600160a060020a03909216916377db17879160248082019260009290919082900301818387803b158015610b6457600080fd5b505af1158015610b78573d6000803e3d6000fd5b505050505b604051339082156108fc029083906000818181858888f19350505050158015610baa573d6000803e3d6000fd5b50604080513381526020810183905281517f7fcf532c15f0a6db0bd6d0e038bea71d30d808c7d98cb3bf7268a95bf5081b65929181900390910190a1506000805460a060020a60ff0219169055565b600a5481565b600054600160a060020a03163314610c1657600080fd5b60005460a860020a900460ff161515610c2e57600080fd5b6000805475ff000000000000000000000000000000000000000000191681556040517f7805862f689e2f13df9f062ff482ad3ad112aca9e0847911ed832e158c525b339190a1565b60075481565b6060600080600080606060008060008060006003600260009054906101000a9004600160a060020a03166005546006546007546004600d5430600160a060020a031631600180549050600b546008548a8054600181600116156101000203166002900480601f016020809104026020016040519081016040528092919081815260200182805460018160011615610100020316600290048015610d605780601f10610d3557610100808354040283529160200191610d60565b820191906000526020600020905b815481529060010190602001808311610d4357829003601f168201915b50505050509a50858054600181600116156101000203166002900480601f016020809104026020016040519081016040528092919081815260200182805460018160011615610100020316600290048015610dfc5780601f10610dd157610100808354040283529160200191610dfc565b820191906000526020600020905b815481529060010190602001808311610ddf57829003601f168201915b505050505095509a509a509a509a509a509a509a509a509a509a509a50909192939495969798999a565b600254600160a060020a031681565b6004805460408051602060026001851615610100026000190190941693909304601f810184900484028201840190925281815292918301828280156109e55780601f106109ba576101008083540402835291602001916109e5565b60005460a860020a900460ff1681565b600054600160a060020a03163314610eb757600080fd5b60008054604051600160a060020a03909116917ff8df31144d9c2f0f6b59d69b8b98abd5459d07f2742c4df920b25aae33c6482091a26000805473ffffffffffffffffffffffffffffffffffffffff19169055565b600e5481565b600d5481565b600b5481565b6001805482908110610f2c57fe5b60009182526020918290206005919091020180546040805160026001841615610100026000190190931692909204601f810185900485028301850190915280825291935091839190830182828015610fc55780601f10610f9a57610100808354040283529160200191610fc5565b820191906000526020600020905b815481529060010190602001808311610fa857829003601f168201915b505050506001830154600284015460039094015492939092600160a060020a038216925060a060020a90910460ff169085565b600054600160a060020a0316331461100f57600080fd5b60005460a860020a900460ff161561102657600080fd5b6000805475ff000000000000000000000000000000000000000000191660a860020a1781556040517f6985a02210a168e66602d3235cb6db0e70f92b3ba4d376a33c0f3d9434bff6259190a1565b61107c61166e565b600054600160a060020a0316331461109357600080fd5b600654421180156110a85750600754600d5410155b15156110b357600080fd5b60005460a860020a900460ff16156110ca57600080fd5b600c5460ff16156110da57600080fd5b600e546110ed908463ffffffff6115e416565b600e819055600f54101561110057600080fd5b506040805160a0810182528481526020808201859052600160a060020a03841692820192909252600060608201819052608082018190526001805480820180835591909252825180519394919385936005027fb10e2d527612073b26eecdfd717e6a320cf44b4afac2b0732d9fcbe2b7fa0cf601926111839284929101906116a9565b506020820151600182015560408201516002820180546060850151151560a060020a0260a060020a60ff0219600160a060020a0390941673ffffffffffffffffffffffffffffffffffffffff1990921691909117929092169190911790556080909101516003909101555050505050565b600054600160a060020a031681565b60055481565b601054600160a060020a031681565b60126020526000908152604090205481565b600c5460ff1681565b6000805460a860020a900460ff161561124b57600080fd5b60005460a060020a900460ff161561126257600080fd5b6000805460a060020a60ff02191660a060020a179055600554341080159061128c57506006544211155b151561129757600080fd5b600d546112aa903463ffffffff6115e416565b9050678ac7230489e800008111156112c157600080fd5b3360009081526012602052604090205415156112ef576008546112eb90600163ffffffff6115e416565b6008555b3360009081526012602052604090205461130f903463ffffffff6115e416565b33600090815260126020526040902055600d54611332903463ffffffff6115e416565b600d55600f54611348903463ffffffff6115e416565b600f55601154600654604080517fbccec5d100000000000000000000000000000000000000000000000000000000815233600482015260026024820152604481019290925251600160a060020a039092169163bccec5d19160648082019260009290919082900301818387803b1580156113c157600080fd5b505af11580156113d5573d6000803e3d6000fd5b50506040805133815234602082015281517f906faaf913a60f38b5e8f2d6f5b163239bac2d994fa1a5d21751a51587a940579450908190039091019150a1506000805460a060020a60ff0219169055565b33600090815260126020526040812054811061144157600080fd5b600180548390811061144f57fe5b600091825260208083203384526004600590930201918201905260409091205490915060ff161561147f57600080fd5b3360009081526004820160205260409020805460ff1916600190811790915560038201546114b29163ffffffff6115e416565b60039091015550565b33600090815260126020526040812054116114d557600080fd5b600654421180156114ea5750600754600d5410155b15156114f557600080fd5b336000908152601360205260409020541561150f57600080fd5b33600090815260136020526040902081905560095461153590600163ffffffff6115e416565b600955600a5461154b908263ffffffff6115e416565b600a819055600954611563919063ffffffff61159216565b600b5550565b600054600160a060020a0316331461158057600080fd5b611589816115f1565b50565b600f5481565b6000818381151561159f57fe5b0490505b92915050565b6000828211156115b557fe5b50900390565b60008215156115cc575060006115a3565b508181028183828115156115dc57fe5b04146115a357fe5b818101828110156115a357fe5b600160a060020a038116151561160657600080fd5b60008054604051600160a060020a03808516939216917f8be0079c531659141344cd1fd0a4f28419497f9722a3daafe3b4186f6b6457e091a36000805473ffffffffffffffffffffffffffffffffffffffff1916600160a060020a0392909216919091179055565b60a06040519081016040528060608152602001600081526020016000600160a060020a03168152602001600015158152602001600081525090565b828054600181600116156101000203166002900490600052602060002090601f016020900481019282601f106116ea57805160ff1916838001178555611717565b82800160010185558215611717579182015b828111156117175782518255916020019190600101906116fc565b50611723929150611727565b5090565b6109f191905b80821115611723576000815560010161172d5600a165627a7a72305820ffe3d639e6aa088671e44a48fea98062ebbf35de1ac812208c74e4f43bc7431f0029a165627a7a7230582062e30244615ef75a1b9aed59efe9f25bc08fd3679252bf68807554f8d50bf95a0029",
  "source": "/**\n * @author Sushant Kumar\n * @title CampaignFactory\n * @section DESCRIPTION\n * This smart contract is an implementation of Kickstarter using Solidity.\n * It is used to create Campaigns to raise funds and then request the backers of \n * the Campagin to approve the usage of the raised funds for various purposes.\n * Additional features include withdrawal before deadline, refund initiated by Campaign manager \n * and rating of campaigns.\n * Follows a Factory design pattern wherein the CampaignFactory creates instances of the Campaign\n */\n\npragma solidity ^0.4.24;\n\nimport \"./SafeMath.sol\";\nimport \"./Ownable.sol\";\nimport \"./Pausable.sol\";\nimport \"./Campaign.sol\";\n\ncontract CampaignFactory is Ownable, Pausable {\n\n    using SafeMath for uint256;\n\n    event NewCampaign(address campaignAddress, string name, uint minimum, address creator, uint deadline, uint goal, string details);\n\n    struct CampaignStatus {\n        address addrOfCampaign;\n        uint deadline;\n    }\n\n    mapping(address => CampaignStatus[]) public campaignCreatorsList;\n    mapping(address => CampaignStatus[]) public backersList;\n    CampaignStatus[] public deployedCampaigns;\n\n    /**\n    * @dev Create a new Campaign with the required parameters\n    * @param name Name of the campaign\n    * @param minimum Minimum contribution for the campaign\n    * @param _deadline Deadline for the campaign\n    * @param _goal Funding goal of the campaign\n    * @param details Additional details for the campaign\n    */\n    function createCampaign(string name, uint minimum, uint _deadline, uint _goal, string details) public whenNotPaused {\n        address newCampaign = new Campaign(name, minimum, msg.sender, _deadline, _goal, details);\n        CampaignStatus memory newAddition = CampaignStatus({addrOfCampaign: newCampaign, deadline: _deadline });\n        deployedCampaigns.push(newAddition);\n        emit NewCampaign(newCampaign, name, minimum, msg.sender, _deadline, _goal, details);\n    }\n\n    /**\n    * @dev To retrieve list of campaigns. Uses filterCampaigns() to filter\n    * @param user address of the user\n    * @param code If 0 -> shows a general list.  1 -> Filters through campaign creators list.  2 -> Filters through campaign backers list  \n    * @return ongoingCampaigns List of addresses of Ongoing Campaigns\n    * @return completedCampaigns List of addresses of Completed Campaigns\n    */\n    function getCampaigns(address user, uint code) public view returns(address[] ongoingCampaigns, address[] completedCampaigns) {\n        CampaignStatus[] memory listOfCampaigns;\n\n        if(code == 0) {\n            listOfCampaigns = deployedCampaigns;\n        }\n\n        else if(code == 1) {\n            listOfCampaigns = campaignCreatorsList[user];\n        }\n\n        else if(code == 2) {\n            listOfCampaigns = backersList[user];\n        }\n\n        return(filterCampaigns(listOfCampaigns));\n    }\n\n    /**\n    * @dev Filters campaigns based on current block.timestamp into ongoing and completed\n    * @param campaigns List of CampaignStatus from getCampaigns() to filtered upon\n    * @return ongoingCampaigns List of addresses of Ongoing Campaigns\n    * @return completedCampaigns List of addresses of Completed Campaigns\n    */\n    function filterCampaigns(CampaignStatus[] campaigns) internal view returns(address[] ongoingCampaigns, address[] completedCampaigns) {\n        uint indexOfOngoing;\n        uint indexOfCompleted;\n\n        uint numberOfCampaigns = campaigns.length;\n        ongoingCampaigns = new address[](numberOfCampaigns);\n        completedCampaigns = new address[](numberOfCampaigns);\n\n        for(uint i = 0; i < numberOfCampaigns; i = i.add(1)) {\n            CampaignStatus memory campaign = campaigns[i];\n\n            // Ongoing Campaigns\n            if(block.timestamp <= campaign.deadline ) {\n                ongoingCampaigns[indexOfOngoing] = campaign.addrOfCampaign;\n                indexOfOngoing = indexOfOngoing.add(1);\n            }\n\n            // Completed Campaigns\n            else {\n                completedCampaigns[indexOfCompleted] = campaign.addrOfCampaign;\n                indexOfCompleted = indexOfCompleted.add(1);\n            }\n        }\n        return (ongoingCampaigns, completedCampaigns);\n    }\n\n    /**\n    * @dev Adds user to the lists campaignCreatorsList and backersList for all campaigns created\n    * @param user address of user to be added to campaignCreatorsList/backersList\n    * @param creatorOrBacker flag for a campaign creator/backer\n    * @param _deadline Deadline of campaign acts as an additional parameter to filter for user profiles\n    */\n    function addToList(address user, uint creatorOrBacker, uint _deadline) public {\n        CampaignStatus memory newAddition = CampaignStatus({addrOfCampaign: msg.sender, deadline: _deadline});\n        bool notPresent = true;\n\n        if(creatorOrBacker == 1) {\n            CampaignStatus[] storage creatorCampaigns = campaignCreatorsList[user];\n\n            for(uint i = 0; i < creatorCampaigns.length; i++) {\n                CampaignStatus memory tempCampaign = creatorCampaigns[i];\n                if(newAddition.addrOfCampaign == tempCampaign.addrOfCampaign) {\n                    notPresent = false;\n                }\n            }\n\n            if(notPresent == true) {\n                creatorCampaigns.push(newAddition);\n                campaignCreatorsList[user] = creatorCampaigns;                \n            }\n        }\n\n        else if(creatorOrBacker == 2) {\n            CampaignStatus[] storage backerCampaigns = backersList[user];\n\n            for(uint j = 0; j < backerCampaigns.length; j++) {\n                CampaignStatus memory tempoCampaign = backerCampaigns[j];\n                if(newAddition.addrOfCampaign == tempoCampaign.addrOfCampaign) {\n                    notPresent = false;\n                }\n            }\n\n            if(notPresent == true) {\n                backerCampaigns.push(newAddition);\n                backersList[user] = backerCampaigns;\n            }\n        }\n    }\n\n    /**\n    * @dev Deletes users from the list backersList if a user withdrew their funds\n    * @param user address of the user\n    */\n    function deleteFromList(address user) public {\n        CampaignStatus[] storage listOfCampaigns = backersList[user];\n\n        for(uint index = 0; index < listOfCampaigns.length; index = index.add(1)) {\n            CampaignStatus memory campaign = listOfCampaigns[index];\n\n            if(msg.sender == campaign.addrOfCampaign) {\n                delete listOfCampaigns[index];\n            }\n        }\n        backersList[user] = listOfCampaigns;\n    }\n}\n",
  "sourcePath": "/home/vagrant/code/CrowdCoin/contracts/CampaignFactory.sol",
  "compiler": {
    "name": "solc",
    "version": "0.4.24+commit.e67f0147.Emscripten.clang"
  },
  "schemaVersion": "2.0.1",
  "updatedAt": "2018-08-25T10:15:02.711Z"
}