{
  "contractName": "Campaign",
  "abi": [
    {
      "constant": true,
      "inputs": [],
      "name": "backersCount",
      "outputs": [
        {
          "name": "",
          "type": "uint256"
        }
      ],
      "payable": false,
      "stateMutability": "view",
      "type": "function"
    },
    {
      "constant": true,
      "inputs": [],
      "name": "deadline",
      "outputs": [
        {
          "name": "",
          "type": "uint256"
        }
      ],
      "payable": false,
      "stateMutability": "view",
      "type": "function"
    },
    {
      "constant": true,
      "inputs": [],
      "name": "nameOfCampaign",
      "outputs": [
        {
          "name": "",
          "type": "string"
        }
      ],
      "payable": false,
      "stateMutability": "view",
      "type": "function"
    },
    {
      "constant": true,
      "inputs": [],
      "name": "ratersCount",
      "outputs": [
        {
          "name": "",
          "type": "uint256"
        }
      ],
      "payable": false,
      "stateMutability": "view",
      "type": "function"
    },
    {
      "constant": true,
      "inputs": [],
      "name": "ratingSum",
      "outputs": [
        {
          "name": "",
          "type": "uint256"
        }
      ],
      "payable": false,
      "stateMutability": "view",
      "type": "function"
    },
    {
      "constant": false,
      "inputs": [],
      "name": "unpause",
      "outputs": [],
      "payable": false,
      "stateMutability": "nonpayable",
      "type": "function"
    },
    {
      "constant": true,
      "inputs": [],
      "name": "goal",
      "outputs": [
        {
          "name": "",
          "type": "uint256"
        }
      ],
      "payable": false,
      "stateMutability": "view",
      "type": "function"
    },
    {
      "constant": true,
      "inputs": [],
      "name": "manager",
      "outputs": [
        {
          "name": "",
          "type": "address"
        }
      ],
      "payable": false,
      "stateMutability": "view",
      "type": "function"
    },
    {
      "constant": true,
      "inputs": [],
      "name": "details",
      "outputs": [
        {
          "name": "",
          "type": "string"
        }
      ],
      "payable": false,
      "stateMutability": "view",
      "type": "function"
    },
    {
      "constant": true,
      "inputs": [],
      "name": "paused",
      "outputs": [
        {
          "name": "",
          "type": "bool"
        }
      ],
      "payable": false,
      "stateMutability": "view",
      "type": "function"
    },
    {
      "constant": false,
      "inputs": [],
      "name": "renounceOwnership",
      "outputs": [],
      "payable": false,
      "stateMutability": "nonpayable",
      "type": "function"
    },
    {
      "constant": true,
      "inputs": [],
      "name": "requestedAmount",
      "outputs": [
        {
          "name": "",
          "type": "uint256"
        }
      ],
      "payable": false,
      "stateMutability": "view",
      "type": "function"
    },
    {
      "constant": true,
      "inputs": [],
      "name": "amountRaised",
      "outputs": [
        {
          "name": "",
          "type": "uint256"
        }
      ],
      "payable": false,
      "stateMutability": "view",
      "type": "function"
    },
    {
      "constant": true,
      "inputs": [],
      "name": "rating",
      "outputs": [
        {
          "name": "",
          "type": "uint256"
        }
      ],
      "payable": false,
      "stateMutability": "view",
      "type": "function"
    },
    {
      "constant": true,
      "inputs": [
        {
          "name": "",
          "type": "uint256"
        }
      ],
      "name": "requests",
      "outputs": [
        {
          "name": "description",
          "type": "string"
        },
        {
          "name": "value",
          "type": "uint256"
        },
        {
          "name": "recipient",
          "type": "address"
        },
        {
          "name": "complete",
          "type": "bool"
        },
        {
          "name": "backerCount",
          "type": "uint256"
        }
      ],
      "payable": false,
      "stateMutability": "view",
      "type": "function"
    },
    {
      "constant": false,
      "inputs": [],
      "name": "pause",
      "outputs": [],
      "payable": false,
      "stateMutability": "nonpayable",
      "type": "function"
    },
    {
      "constant": true,
      "inputs": [],
      "name": "owner",
      "outputs": [
        {
          "name": "",
          "type": "address"
        }
      ],
      "payable": false,
      "stateMutability": "view",
      "type": "function"
    },
    {
      "constant": true,
      "inputs": [],
      "name": "minimumContribution",
      "outputs": [
        {
          "name": "",
          "type": "uint256"
        }
      ],
      "payable": false,
      "stateMutability": "view",
      "type": "function"
    },
    {
      "constant": true,
      "inputs": [],
      "name": "factoryAddress",
      "outputs": [
        {
          "name": "",
          "type": "address"
        }
      ],
      "payable": false,
      "stateMutability": "view",
      "type": "function"
    },
    {
      "constant": true,
      "inputs": [
        {
          "name": "",
          "type": "address"
        }
      ],
      "name": "backers",
      "outputs": [
        {
          "name": "",
          "type": "uint256"
        }
      ],
      "payable": false,
      "stateMutability": "view",
      "type": "function"
    },
    {
      "constant": true,
      "inputs": [],
      "name": "refundFlag",
      "outputs": [
        {
          "name": "",
          "type": "bool"
        }
      ],
      "payable": false,
      "stateMutability": "view",
      "type": "function"
    },
    {
      "constant": false,
      "inputs": [
        {
          "name": "_newOwner",
          "type": "address"
        }
      ],
      "name": "transferOwnership",
      "outputs": [],
      "payable": false,
      "stateMutability": "nonpayable",
      "type": "function"
    },
    {
      "constant": true,
      "inputs": [],
      "name": "amountRemaining",
      "outputs": [
        {
          "name": "",
          "type": "uint256"
        }
      ],
      "payable": false,
      "stateMutability": "view",
      "type": "function"
    },
    {
      "inputs": [
        {
          "name": "_name",
          "type": "string"
        },
        {
          "name": "_minimumContribution",
          "type": "uint256"
        },
        {
          "name": "creator",
          "type": "address"
        },
        {
          "name": "_deadline",
          "type": "uint256"
        },
        {
          "name": "_goal",
          "type": "uint256"
        },
        {
          "name": "_details",
          "type": "string"
        }
      ],
      "payable": false,
      "stateMutability": "nonpayable",
      "type": "constructor"
    },
    {
      "payable": true,
      "stateMutability": "payable",
      "type": "fallback"
    },
    {
      "anonymous": false,
      "inputs": [
        {
          "indexed": false,
          "name": "contributor",
          "type": "address"
        },
        {
          "indexed": false,
          "name": "amount",
          "type": "uint256"
        }
      ],
      "name": "Contribute",
      "type": "event"
    },
    {
      "anonymous": false,
      "inputs": [
        {
          "indexed": false,
          "name": "contributor",
          "type": "address"
        },
        {
          "indexed": false,
          "name": "amount",
          "type": "uint256"
        }
      ],
      "name": "Withdrawal",
      "type": "event"
    },
    {
      "anonymous": false,
      "inputs": [
        {
          "indexed": false,
          "name": "recipient",
          "type": "address"
        },
        {
          "indexed": false,
          "name": "value",
          "type": "uint256"
        }
      ],
      "name": "RequestFinalized",
      "type": "event"
    },
    {
      "anonymous": false,
      "inputs": [],
      "name": "Pause",
      "type": "event"
    },
    {
      "anonymous": false,
      "inputs": [],
      "name": "Unpause",
      "type": "event"
    },
    {
      "anonymous": false,
      "inputs": [
        {
          "indexed": true,
          "name": "previousOwner",
          "type": "address"
        }
      ],
      "name": "OwnershipRenounced",
      "type": "event"
    },
    {
      "anonymous": false,
      "inputs": [
        {
          "indexed": true,
          "name": "previousOwner",
          "type": "address"
        },
        {
          "indexed": true,
          "name": "newOwner",
          "type": "address"
        }
      ],
      "name": "OwnershipTransferred",
      "type": "event"
    },
    {
      "constant": false,
      "inputs": [],
      "name": "contribute",
      "outputs": [],
      "payable": true,
      "stateMutability": "payable",
      "type": "function"
    },
    {
      "constant": false,
      "inputs": [],
      "name": "withdraw",
      "outputs": [],
      "payable": false,
      "stateMutability": "nonpayable",
      "type": "function"
    },
    {
      "constant": false,
      "inputs": [
        {
          "name": "description",
          "type": "string"
        },
        {
          "name": "value",
          "type": "uint256"
        },
        {
          "name": "recipient",
          "type": "address"
        }
      ],
      "name": "createRequest",
      "outputs": [],
      "payable": false,
      "stateMutability": "nonpayable",
      "type": "function"
    },
    {
      "constant": false,
      "inputs": [
        {
          "name": "index",
          "type": "uint256"
        }
      ],
      "name": "approveRequest",
      "outputs": [],
      "payable": false,
      "stateMutability": "nonpayable",
      "type": "function"
    },
    {
      "constant": false,
      "inputs": [
        {
          "name": "index",
          "type": "uint256"
        }
      ],
      "name": "finalizeRequest",
      "outputs": [],
      "payable": false,
      "stateMutability": "nonpayable",
      "type": "function"
    },
    {
      "constant": false,
      "inputs": [],
      "name": "refundBackerFunds",
      "outputs": [],
      "payable": false,
      "stateMutability": "nonpayable",
      "type": "function"
    },
    {
      "constant": true,
      "inputs": [],
      "name": "getSummary",
      "outputs": [
        {
          "name": "",
          "type": "string"
        },
        {
          "name": "",
          "type": "address"
        },
        {
          "name": "",
          "type": "uint256"
        },
        {
          "name": "",
          "type": "uint256"
        },
        {
          "name": "",
          "type": "uint256"
        },
        {
          "name": "",
          "type": "string"
        },
        {
          "name": "",
          "type": "uint256"
        },
        {
          "name": "",
          "type": "uint256"
        },
        {
          "name": "",
          "type": "uint256"
        },
        {
          "name": "",
          "type": "uint256"
        },
        {
          "name": "",
          "type": "uint256"
        },
        {
          "name": "",
          "type": "uint256"
        }
      ],
      "payable": false,
      "stateMutability": "view",
      "type": "function"
    },
    {
      "constant": true,
      "inputs": [],
      "name": "getCampaignStatus",
      "outputs": [
        {
          "name": "",
          "type": "bool"
        },
        {
          "name": "",
          "type": "bool"
        }
      ],
      "payable": false,
      "stateMutability": "view",
      "type": "function"
    },
    {
      "constant": true,
      "inputs": [],
      "name": "getRequestsCount",
      "outputs": [
        {
          "name": "",
          "type": "uint256"
        }
      ],
      "payable": false,
      "stateMutability": "view",
      "type": "function"
    },
    {
      "constant": false,
      "inputs": [
        {
          "name": "_rating",
          "type": "uint256"
        }
      ],
      "name": "giveRating",
      "outputs": [],
      "payable": false,
      "stateMutability": "nonpayable",
      "type": "function"
    },
    {
      "constant": false,
      "inputs": [],
      "name": "computeRating",
      "outputs": [
        {
          "name": "",
          "type": "uint256"
        }
      ],
      "payable": false,
      "stateMutability": "nonpayable",
      "type": "function"
    }
  ],
  "bytecode": "0x60806040526000805460a060020a61ffff02191690553480156200002257600080fd5b5060405162001a7438038062001a7483398101604090815281516020830151918301516060840151608085015160a086015160008054600160a060020a0319163317905593860195929391929091014283116200007e57600080fd5b85516200009390600390602089019062000258565b5060028054600160a060020a031916600160a060020a0386161790556005859055600683905560078290558051620000d390600490602084019062000258565b50600c805460ff1916905560108054600160a060020a031990811633179182905560118054909116600160a060020a039283161790819055600654604080517fbccec5d1000000000000000000000000000000000000000000000000000000008152888516600482015260016024820152604481019290925251919092169163bccec5d191606480830192600092919082900301818387803b1580156200017957600080fd5b505af11580156200018e573d6000803e3d6000fd5b50505050620001ac84620001b8640100000000026401000000009004565b505050505050620002fd565b600054600160a060020a03163314620001d057600080fd5b620001e481640100000000620001e7810204565b50565b600160a060020a0381161515620001fd57600080fd5b60008054604051600160a060020a03808516939216917f8be0079c531659141344cd1fd0a4f28419497f9722a3daafe3b4186f6b6457e091a360008054600160a060020a031916600160a060020a0392909216919091179055565b828054600181600116156101000203166002900490600052602060002090601f016020900481019282601f106200029b57805160ff1916838001178555620002cb565b82800160010185558215620002cb579182015b82811115620002cb578251825591602001919060010190620002ae565b50620002d9929150620002dd565b5090565b620002fa91905b80821115620002d95760008155600101620002e4565b90565b611767806200030d6000396000f3006080604052600436106101ab5763ffffffff7c01000000000000000000000000000000000000000000000000000000006000350416630344100681146101d357806310550515146101eb5780631d565e781461021b57806325ef022a1461024257806329dcb0cf146102575780632e6bae6b1461026c57806331116a22146102815780633410452a1461030b57806335f0202b146103205780633ccfd60b146103355780633f0795ff1461034a5780633f4ba83a1461035f57806340193883146103745780634051ddac14610389578063481c6a75146104d4578063565974d3146105055780635c975abb1461051a578063715018a61461054357806378860268146105585780637b3e5e7b1461056d57806380f474f61461058257806381d12c58146105975780638456cb59146106595780638a9cfd551461066e5780638da5cb5b146106d8578063937e09b1146106ed578063966dae0e14610702578063b85dfb8014610717578063cf56334314610738578063d7bb99ba1461074d578063d7d1bbdb14610755578063dc104f801461076d578063f2fde38b14610785578063f7ffbd85146107a6575b60405133903480156108fc02916000818181858888f1935050505015156101d157600080fd5b005b3480156101df57600080fd5b506101d16004356107bb565b3480156101f757600080fd5b50610200610900565b60408051921515835290151560208301528051918290030190f35b34801561022757600080fd5b50610230610918565b60408051918252519081900360200190f35b34801561024e57600080fd5b5061023061091e565b34801561026357600080fd5b50610230610964565b34801561027857600080fd5b506101d161096a565b34801561028d57600080fd5b5061029661099e565b6040805160208082528351818301528351919283929083019185019080838360005b838110156102d05781810151838201526020016102b8565b50505050905090810190601f1680156102fd5780820380516001836020036101000a031916815260200191505b509250505060405180910390f35b34801561031757600080fd5b50610230610a2c565b34801561032c57600080fd5b50610230610a32565b34801561034157600080fd5b506101d1610a38565b34801561035657600080fd5b50610230610c4f565b34801561036b57600080fd5b506101d1610c55565b34801561038057600080fd5b50610230610ccc565b34801561039557600080fd5b5061039e610cd2565b60405180806020018d600160a060020a0316600160a060020a031681526020018c81526020018b81526020018a81526020018060200189815260200188815260200187815260200186815260200185815260200184815260200183810383528f818151815260200191508051906020019080838360005b8381101561042d578181015183820152602001610415565b50505050905090810190601f16801561045a5780820380516001836020036101000a031916815260200191505b5083810382528a5181528a516020918201918c019080838360005b8381101561048d578181015183820152602001610475565b50505050905090810190601f1680156104ba5780820380516001836020036101000a031916815260200191505b509e50505050505050505050505050505060405180910390f35b3480156104e057600080fd5b506104e9610ea6565b60408051600160a060020a039092168252519081900360200190f35b34801561051157600080fd5b50610296610eb5565b34801561052657600080fd5b5061052f610f10565b604080519115158252519081900360200190f35b34801561054f57600080fd5b506101d1610f20565b34801561056457600080fd5b50610230610f8c565b34801561057957600080fd5b50610230610f92565b34801561058e57600080fd5b50610230610f98565b3480156105a357600080fd5b506105af600435610f9e565b604051808060200186815260200185600160a060020a0316600160a060020a0316815260200184151515158152602001838152602001828103825287818151815260200191508051906020019080838360005b8381101561061a578181015183820152602001610602565b50505050905090810190601f1680156106475780820380516001836020036101000a031916815260200191505b50965050505050505060405180910390f35b34801561066557600080fd5b506101d1611078565b34801561067a57600080fd5b506040805160206004803580820135601f81018490048402850184019095528484526101d19436949293602493928401919081908401838280828437509497505084359550505050602090910135600160a060020a031690506110f4565b3480156106e457600080fd5b506104e9611271565b3480156106f957600080fd5b50610230611280565b34801561070e57600080fd5b506104e9611286565b34801561072357600080fd5b50610230600160a060020a0360043516611295565b34801561074457600080fd5b5061052f6112a7565b6101d16112b0565b34801561076157600080fd5b506101d1600435611439565b34801561077957600080fd5b506101d16004356114ce565b34801561079157600080fd5b506101d1600160a060020a0360043516611563565b3480156107b257600080fd5b50610230611586565b60008054600160a060020a031633146107d357600080fd5b60018054839081106107e157fe5b90600052602060002090600502019050610807600260085461158c90919063ffffffff16565b60038201541161081657600080fd5b600281015460a060020a900460ff161561082f57600080fd5b60028101546001820154604051600160a060020a039092169181156108fc0291906000818181858888f1935050505015801561086f573d6000803e3d6000fd5b506001810154600f546108879163ffffffff6115a316565b600f5560028101805474ff0000000000000000000000000000000000000000191660a060020a1790819055600182015460408051600160a060020a039093168352602083019190915280517f15cf4d7980b6be9411b518575337aca2b746a23acbd3978bec4a1eb23af1415c9281900390910190a15050565b600054600c5460ff60a860020a909204821691169091565b60085481565b60008054600160a060020a0316331461093657600080fd5b600654421161094457600080fd5b600954600a546109599163ffffffff61158c16565b600b81905590505b90565b60065481565b600054600160a060020a0316331461098157600080fd5b600654421161098f57600080fd5b600c805460ff19166001179055565b6003805460408051602060026001851615610100026000190190941693909304601f81018490048402820184019092528181529291830182828015610a245780601f106109f957610100808354040283529160200191610a24565b820191906000526020600020905b815481529060010190602001808311610a0757829003601f168201915b505050505081565b60015490565b60095481565b336000908152601260205260408120548110610a5357600080fd5b60005460a060020a900460ff1615610a6a57600080fd5b6000805474ff0000000000000000000000000000000000000000191660a060020a17905560065442111580610aa25750600754600d54105b80610aaf5750600c5460ff165b1515610aba57600080fd5b5033600090815260126020526040902054600c5460ff1615610b0457610afd600f54610af1600d548461158c90919063ffffffff16565b9063ffffffff6115b516565b9050610bc5565b600d54610b17908263ffffffff6115a316565b600d55600f54610b2d908263ffffffff6115a316565b600f55600854610b4490600163ffffffff6115a316565b600855601154604080517f77db17870000000000000000000000000000000000000000000000000000000081523360048201529051600160a060020a03909216916377db17879160248082019260009290919082900301818387803b158015610bac57600080fd5b505af1158015610bc0573d6000803e3d6000fd5b505050505b604051339082156108fc029083906000818181858888f19350505050158015610bf2573d6000803e3d6000fd5b50604080513381526020810183905281517f7fcf532c15f0a6db0bd6d0e038bea71d30d808c7d98cb3bf7268a95bf5081b65929181900390910190a1506000805474ff000000000000000000000000000000000000000019169055565b600a5481565b600054600160a060020a03163314610c6c57600080fd5b60005460a860020a900460ff161515610c8457600080fd5b6000805475ff000000000000000000000000000000000000000000191681556040517f7805862f689e2f13df9f062ff482ad3ad112aca9e0847911ed832e158c525b339190a1565b60075481565b606060008060008060606000806000806000806003600260009054906101000a9004600160a060020a03166005546006546007546004600d5430600160a060020a0316316012600033600160a060020a0316600160a060020a0316815260200190815260200160002054600180549050600b546008548b8054600181600116156101000203166002900480601f016020809104026020016040519081016040528092919081815260200182805460018160011615610100020316600290048015610ddd5780601f10610db257610100808354040283529160200191610ddd565b820191906000526020600020905b815481529060010190602001808311610dc057829003601f168201915b50505050509b50868054600181600116156101000203166002900480601f016020809104026020016040519081016040528092919081815260200182805460018160011615610100020316600290048015610e795780601f10610e4e57610100808354040283529160200191610e79565b820191906000526020600020905b815481529060010190602001808311610e5c57829003601f168201915b505050505096509b509b509b509b509b509b509b509b509b509b509b509b50909192939495969798999a9b565b600254600160a060020a031681565b6004805460408051602060026001851615610100026000190190941693909304601f81018490048402820184019092528181529291830182828015610a245780601f106109f957610100808354040283529160200191610a24565b60005460a860020a900460ff1681565b600054600160a060020a03163314610f3757600080fd5b60008054604051600160a060020a03909116917ff8df31144d9c2f0f6b59d69b8b98abd5459d07f2742c4df920b25aae33c6482091a26000805473ffffffffffffffffffffffffffffffffffffffff19169055565b600e5481565b600d5481565b600b5481565b6001805482908110610fac57fe5b60009182526020918290206005919091020180546040805160026001841615610100026000190190931692909204601f8101859004850283018501909152808252919350918391908301828280156110455780601f1061101a57610100808354040283529160200191611045565b820191906000526020600020905b81548152906001019060200180831161102857829003601f168201915b505050506001830154600284015460039094015492939092600160a060020a038216925060a060020a90910460ff169085565b600054600160a060020a0316331461108f57600080fd5b60005460a860020a900460ff16156110a657600080fd5b6000805475ff000000000000000000000000000000000000000000191660a860020a1781556040517f6985a02210a168e66602d3235cb6db0e70f92b3ba4d376a33c0f3d9434bff6259190a1565b6110fc611668565b600054600160a060020a0316331461111357600080fd5b60005460a860020a900460ff161561112a57600080fd5b6006544211801561113e5750600754600d54115b151561114957600080fd5b600e5461115c908463ffffffff6115de16565b600e819055600f54101561116f57600080fd5b506040805160a0810182528481526020808201859052600160a060020a03841692820192909252600060608201819052608082018190526001805480820180835591909252825180519394919385936005027fb10e2d527612073b26eecdfd717e6a320cf44b4afac2b0732d9fcbe2b7fa0cf601926111f29284929101906116a3565b506020820151600182015560408201516002820180546060850151151560a060020a0274ff000000000000000000000000000000000000000019600160a060020a0390941673ffffffffffffffffffffffffffffffffffffffff1990921691909117929092169190911790556080909101516003909101555050505050565b600054600160a060020a031681565b60055481565b601054600160a060020a031681565b60126020526000908152604090205481565b600c5460ff1681565b60005460a860020a900460ff16156112c757600080fd5b600554341180156112da57506006544211155b15156112e557600080fd5b3360009081526012602052604090205415156113135760085461130f90600163ffffffff6115de16565b6008555b33600090815260126020526040902054611333903463ffffffff6115de16565b33600090815260126020526040902055600d54611356903463ffffffff6115de16565b600d55600f5461136c903463ffffffff6115de16565b600f55601154600654604080517fbccec5d100000000000000000000000000000000000000000000000000000000815233600482015260026024820152604481019290925251600160a060020a039092169163bccec5d19160648082019260009290919082900301818387803b1580156113e557600080fd5b505af11580156113f9573d6000803e3d6000fd5b50506040805133815234602082015281517f906faaf913a60f38b5e8f2d6f5b163239bac2d994fa1a5d21751a51587a940579450908190039091019150a1565b33600090815260126020526040812054811061145457600080fd5b600180548390811061146257fe5b600091825260208083203384526004600590930201918201905260409091205490915060ff161561149257600080fd5b3360009081526004820160205260409020805460ff1916600190811790915560038201546114c59163ffffffff6115de16565b60039091015550565b33600090815260126020526040812054116114e857600080fd5b600654421180156114fc5750600754600d54115b151561150757600080fd5b336000908152601360205260409020541561152157600080fd5b33600090815260136020526040902081905560095461154790600163ffffffff6115de16565b600955600a5461155d908263ffffffff6115de16565b600a5550565b600054600160a060020a0316331461157a57600080fd5b611583816115eb565b50565b600f5481565b6000818381151561159957fe5b0490505b92915050565b6000828211156115af57fe5b50900390565b60008215156115c65750600061159d565b508181028183828115156115d657fe5b041461159d57fe5b8181018281101561159d57fe5b600160a060020a038116151561160057600080fd5b60008054604051600160a060020a03808516939216917f8be0079c531659141344cd1fd0a4f28419497f9722a3daafe3b4186f6b6457e091a36000805473ffffffffffffffffffffffffffffffffffffffff1916600160a060020a0392909216919091179055565b60a06040519081016040528060608152602001600081526020016000600160a060020a03168152602001600015158152602001600081525090565b828054600181600116156101000203166002900490600052602060002090601f016020900481019282601f106116e457805160ff1916838001178555611711565b82800160010185558215611711579182015b828111156117115782518255916020019190600101906116f6565b5061171d929150611721565b5090565b61096191905b8082111561171d57600081556001016117275600a165627a7a7230582059f87ff4aa5ef740f03095c4af692f6803a505c5668385938724afed97d806690029",
  "source": "// funding all-or-nothing\n\npragma solidity ^0.4.24;\n\nimport \"./SafeMath.sol\";\nimport \"./Ownable.sol\";\nimport \"./ReentrancyGuard.sol\";\nimport \"./Pausable.sol\";\n\ncontract CampaignFactory is Ownable, Pausable {\n\n    using SafeMath for uint256;\n\n    event NewCampaign(address campaignAddress, string name, uint minimum, address creator, uint deadline, uint goal, string details);\n\n    struct CampaignStatus {\n        address addrOfCampaign;\n        uint deadline;\n    }\n\n    mapping(address => CampaignStatus[]) public campaignCreatorsList;\n    mapping(address => CampaignStatus[]) public backersList;\n    CampaignStatus[] public deployedCampaigns;\n    \n    function createCampaign(string name, uint minimum, uint _deadline, uint _goal, string details) public whenNotPaused {\n        address newCampaign = new Campaign(name, minimum, msg.sender, _deadline, _goal, details);\n        CampaignStatus memory newAddition = CampaignStatus({addrOfCampaign: newCampaign, deadline: _deadline });\n        deployedCampaigns.push(newAddition);\n        emit NewCampaign(newCampaign, name, minimum, msg.sender, _deadline, _goal, details);\n    }\n\n    function getCampaigns(address user, uint code) public view returns(address[] ongoingCampaigns, address[] completedCampaigns) {\n        CampaignStatus[] memory listOfCampaigns;\n\n        if(code == 0) {\n            listOfCampaigns = deployedCampaigns;\n        }\n\n        else if(code == 1) {\n            listOfCampaigns = campaignCreatorsList[user];\n        }\n\n        else if(code == 2) {\n            listOfCampaigns = backersList[user];\n        }\n\n        return(filterCampaigns(listOfCampaigns));\n    }\n\n    function filterCampaigns(CampaignStatus[] campaigns) internal view returns(address[] ongoingCampaigns, address[] completedCampaigns) {\n        uint indexOfOngoing;\n        uint indexOfCompleted;\n\n        uint numberOfCampaigns = campaigns.length;\n        ongoingCampaigns = new address[](numberOfCampaigns);\n        completedCampaigns = new address[](numberOfCampaigns);\n\n        for(uint i = 0; i < numberOfCampaigns; i = i.add(1)) {\n            CampaignStatus memory campaign = campaigns[i];\n\n            // Ongoing Campaigns\n            if(block.timestamp <= campaign.deadline ) {\n                ongoingCampaigns[indexOfOngoing] = campaign.addrOfCampaign;\n                indexOfOngoing = indexOfOngoing.add(1);\n            }\n\n            // Completed Campaigns\n            else {\n                completedCampaigns[indexOfCompleted] = campaign.addrOfCampaign;\n                indexOfCompleted = indexOfCompleted.add(1);\n            }\n        }\n        return (ongoingCampaigns, completedCampaigns);\n    }\n\n    // Check msg.sender logic\n    function addToList(address user, uint creatorOrBacker, uint _deadline) public {\n        CampaignStatus memory newAddition = CampaignStatus({addrOfCampaign: msg.sender, deadline: _deadline});\n\n        if(creatorOrBacker == 1) {\n            CampaignStatus[] storage creatorCampaigns = campaignCreatorsList[user];\n            creatorCampaigns.push(newAddition);\n            campaignCreatorsList[user] = creatorCampaigns;\n        }\n        else if(creatorOrBacker == 2) {\n            CampaignStatus[] storage backerCampaigns = backersList[user];\n            backerCampaigns.push(newAddition);\n            backersList[user] = backerCampaigns;\n        }\n    }\n\n    // Check msg.sender logic\n    function deleteFromList(address user) public {\n        CampaignStatus[] storage listOfCampaigns = backersList[user];\n        bool flag = false;\n\n        for(uint index = 0; index < listOfCampaigns.length; index = index.add(1)) {\n            CampaignStatus memory campaign = listOfCampaigns[index];\n\n            if(msg.sender == campaign.addrOfCampaign ) {\n                flag = true;\n            }\n\n            if(flag) {\n                uint nextIndex = index.add(1);\n                listOfCampaigns[index] = listOfCampaigns[nextIndex];\n            }\n        }\n\n        delete listOfCampaigns[listOfCampaigns.length-1];\n        backersList[user] = listOfCampaigns;\n    }\n}\n\n\ncontract Campaign is Ownable, ReentrancyGuard, Pausable {\n\n    using SafeMath for uint256;\n    \n    struct Request {\n        string description;\n        uint value;\n        address recipient;\n        bool complete;\n        uint backerCount;\n        mapping(address => bool) backers;\n    }\n    \n    Request[] public requests;\n    address public manager;\n    string public nameOfCampaign;\n    string public details;\n    uint public minimumContribution;\n    uint public deadline;\n    uint public goal;\n    uint public backersCount;\n    uint public ratersCount;\n    uint public ratingSum;\n    uint public rating;\n    bool public refundFlag;\n    uint public amountRaised;\n    uint public requestedAmount;\n    uint public amountRemaining;\n    address public factoryAddress;\n    CampaignFactory factory; \n\n    mapping(address => uint256) public backers;\n    mapping(address => uint256) private ratingFrombackers;\n\n\n    event Contribute(address contributor, uint amount);\n    event Withdrawal(address contributor, uint amount);\n    event RequestFinalized(address recipient, uint value);\n\n    modifier validBacker() {\n        require(backers[msg.sender] > 0);\n        _;\n    }\n    \n    constructor(string _name, uint _minimumContribution, address creator, uint _deadline, uint _goal, string _details) public {\n\n        require(block.timestamp < _deadline);\n        nameOfCampaign = _name;\n        manager = creator;\n        minimumContribution = _minimumContribution;\n        deadline = _deadline;\n        goal = _goal;\n        details = _details;\n        refundFlag = false;\n        factoryAddress = msg.sender;\n        factory = CampaignFactory(factoryAddress);\n\n        factory.addToList(creator, 1, deadline);\n        // Otherwise the owner of the Campaign instance will always be the CampaignFactory\n        transferOwnership(creator);\n    }\n    \n    function contribute() public payable whenNotPaused {\n        require(msg.value > minimumContribution && block.timestamp <= deadline);\n\n        if(backers[msg.sender] == 0) {\n            backersCount = backersCount.add(1);            \n        }\n\n        backers[msg.sender] = backers[msg.sender].add(msg.value);\n        amountRaised = amountRaised.add(msg.value);\n        amountRemaining = amountRemaining.add(msg.value);\n        factory.addToList(msg.sender, 2, deadline);\n        emit Contribute(msg.sender, msg.value);\n    }\n\n    function withdraw() public validBacker nonReentrant {\n        require(block.timestamp <= deadline || amountRaised < goal || refundFlag);\n        uint amountWithdrawn  = backers[msg.sender];\n\n        if(refundFlag) {\n            amountWithdrawn = amountWithdrawn.div(amountRaised).mul(amountRemaining);\n        }\n        \n        else {\n            amountRaised = amountRaised.sub(amountWithdrawn);\n            amountRemaining = amountRemaining.sub(amountWithdrawn);\n            backersCount = backersCount.sub(1);\n            factory.deleteFromList(msg.sender);\n        }\n\n        msg.sender.transfer(amountWithdrawn);\n        emit Withdrawal(msg.sender, amountWithdrawn);\n    }\n    \n    function createRequest(string description, uint value, address recipient) public onlyOwner whenNotPaused{\n        require(block.timestamp > deadline && amountRaised > goal);\n\n        requestedAmount = requestedAmount.add(value);\n        if(requestedAmount > amountRemaining) {\n            revert();\n        }\n\n        Request memory newRequest = Request({\n            description: description,\n            value: value,\n            recipient: recipient,\n            complete: false,\n            backerCount:  0\n        });\n        \n        requests.push(newRequest);\n    }\n    \n    function approveRequest(uint index) public validBacker {\n        Request storage request = requests[index];\n        \n        require(!request.backers[msg.sender]);\n        \n        request.backers[msg.sender] = true;\n        request.backerCount = request.backerCount.add(1);\n    }\n    \n    function finalizeRequest(uint index) public onlyOwner {\n        Request storage request = requests[index];\n        require(request.backerCount > (backersCount.div(2)));\n        require(!request.complete);\n        \n        request.recipient.transfer(request.value);\n        amountRemaining = amountRemaining.sub(request.value);\n        request.complete = true;\n        emit RequestFinalized(request.recipient, request.value);\n    }\n\n    // If few requests have been processed the %age of contribution will be returned\n    function refundBackerFunds() public onlyOwner {\n        require(block.timestamp > deadline);\n        refundFlag = true;\n    }\n\n    function getSummary() public view returns(string, address, uint, uint, uint, string, uint, uint, uint, uint, uint, uint) {\n        return(nameOfCampaign, manager, minimumContribution, deadline, goal, details, amountRaised, address(this).balance, backers[msg.sender], requests.length, rating, backersCount);\n    }\n\n    function getCampaignStatus() public view returns(bool, bool) {\n        return(paused, refundFlag);\n    }\n\n    function getRequestsCount() public view returns (uint) {\n        return requests.length;\n    }\n\n    // Rating\n    function giveRating(uint _rating) public validBacker {\n        require(block.timestamp > deadline && amountRaised > goal);\n        require(ratingFrombackers[msg.sender] == 0);\n        ratingFrombackers[msg.sender] = _rating;\n        ratersCount = ratersCount.add(1);\n        ratingSum = ratingSum.add(_rating);\n    }\n\n    function computeRating() public onlyOwner returns (uint) {\n        require(block.timestamp > deadline);\n        rating = ratingSum.div(ratersCount);\n        return rating;\n    }\n\n    // Send any ether received back to the sender\n    function () public payable {\n        if (!msg.sender.send(msg.value)) {\n            revert();\n        }\n    }\n}\n",
  "sourcePath": "/home/vagrant/code/contracts/CrowdCoin.sol",
  "compiler": {
    "name": "solc",
    "version": "0.4.24+commit.e67f0147.Emscripten.clang"
  },
  "schemaVersion": "2.0.1",
  "updatedAt": "2018-08-15T13:36:48.324Z"
}