{
  "contractName": "Campaign",
  "abi": [
    {
      "constant": true,
      "inputs": [],
      "name": "backersCount",
      "outputs": [
        {
          "name": "",
          "type": "uint256"
        }
      ],
      "payable": false,
      "stateMutability": "view",
      "type": "function"
    },
    {
      "constant": true,
      "inputs": [],
      "name": "deadline",
      "outputs": [
        {
          "name": "",
          "type": "uint256"
        }
      ],
      "payable": false,
      "stateMutability": "view",
      "type": "function"
    },
    {
      "constant": true,
      "inputs": [],
      "name": "nameOfCampaign",
      "outputs": [
        {
          "name": "",
          "type": "string"
        }
      ],
      "payable": false,
      "stateMutability": "view",
      "type": "function"
    },
    {
      "constant": true,
      "inputs": [],
      "name": "ratersCount",
      "outputs": [
        {
          "name": "",
          "type": "uint256"
        }
      ],
      "payable": false,
      "stateMutability": "view",
      "type": "function"
    },
    {
      "constant": true,
      "inputs": [],
      "name": "ratingSum",
      "outputs": [
        {
          "name": "",
          "type": "uint256"
        }
      ],
      "payable": false,
      "stateMutability": "view",
      "type": "function"
    },
    {
      "constant": false,
      "inputs": [],
      "name": "unpause",
      "outputs": [],
      "payable": false,
      "stateMutability": "nonpayable",
      "type": "function"
    },
    {
      "constant": true,
      "inputs": [],
      "name": "goal",
      "outputs": [
        {
          "name": "",
          "type": "uint256"
        }
      ],
      "payable": false,
      "stateMutability": "view",
      "type": "function"
    },
    {
      "constant": true,
      "inputs": [],
      "name": "manager",
      "outputs": [
        {
          "name": "",
          "type": "address"
        }
      ],
      "payable": false,
      "stateMutability": "view",
      "type": "function"
    },
    {
      "constant": true,
      "inputs": [],
      "name": "details",
      "outputs": [
        {
          "name": "",
          "type": "string"
        }
      ],
      "payable": false,
      "stateMutability": "view",
      "type": "function"
    },
    {
      "constant": true,
      "inputs": [],
      "name": "paused",
      "outputs": [
        {
          "name": "",
          "type": "bool"
        }
      ],
      "payable": false,
      "stateMutability": "view",
      "type": "function"
    },
    {
      "constant": false,
      "inputs": [],
      "name": "renounceOwnership",
      "outputs": [],
      "payable": false,
      "stateMutability": "nonpayable",
      "type": "function"
    },
    {
      "constant": true,
      "inputs": [],
      "name": "requestedAmount",
      "outputs": [
        {
          "name": "",
          "type": "uint256"
        }
      ],
      "payable": false,
      "stateMutability": "view",
      "type": "function"
    },
    {
      "constant": true,
      "inputs": [],
      "name": "amountRaised",
      "outputs": [
        {
          "name": "",
          "type": "uint256"
        }
      ],
      "payable": false,
      "stateMutability": "view",
      "type": "function"
    },
    {
      "constant": true,
      "inputs": [],
      "name": "rating",
      "outputs": [
        {
          "name": "",
          "type": "uint256"
        }
      ],
      "payable": false,
      "stateMutability": "view",
      "type": "function"
    },
    {
      "constant": true,
      "inputs": [
        {
          "name": "",
          "type": "uint256"
        }
      ],
      "name": "requests",
      "outputs": [
        {
          "name": "description",
          "type": "string"
        },
        {
          "name": "value",
          "type": "uint256"
        },
        {
          "name": "recipient",
          "type": "address"
        },
        {
          "name": "complete",
          "type": "bool"
        },
        {
          "name": "backerCount",
          "type": "uint256"
        }
      ],
      "payable": false,
      "stateMutability": "view",
      "type": "function"
    },
    {
      "constant": false,
      "inputs": [],
      "name": "pause",
      "outputs": [],
      "payable": false,
      "stateMutability": "nonpayable",
      "type": "function"
    },
    {
      "constant": true,
      "inputs": [],
      "name": "owner",
      "outputs": [
        {
          "name": "",
          "type": "address"
        }
      ],
      "payable": false,
      "stateMutability": "view",
      "type": "function"
    },
    {
      "constant": true,
      "inputs": [],
      "name": "minimumContribution",
      "outputs": [
        {
          "name": "",
          "type": "uint256"
        }
      ],
      "payable": false,
      "stateMutability": "view",
      "type": "function"
    },
    {
      "constant": true,
      "inputs": [],
      "name": "factoryAddress",
      "outputs": [
        {
          "name": "",
          "type": "address"
        }
      ],
      "payable": false,
      "stateMutability": "view",
      "type": "function"
    },
    {
      "constant": true,
      "inputs": [
        {
          "name": "",
          "type": "address"
        }
      ],
      "name": "backers",
      "outputs": [
        {
          "name": "",
          "type": "uint256"
        }
      ],
      "payable": false,
      "stateMutability": "view",
      "type": "function"
    },
    {
      "constant": true,
      "inputs": [],
      "name": "refundFlag",
      "outputs": [
        {
          "name": "",
          "type": "bool"
        }
      ],
      "payable": false,
      "stateMutability": "view",
      "type": "function"
    },
    {
      "constant": false,
      "inputs": [
        {
          "name": "_newOwner",
          "type": "address"
        }
      ],
      "name": "transferOwnership",
      "outputs": [],
      "payable": false,
      "stateMutability": "nonpayable",
      "type": "function"
    },
    {
      "constant": true,
      "inputs": [],
      "name": "amountRemaining",
      "outputs": [
        {
          "name": "",
          "type": "uint256"
        }
      ],
      "payable": false,
      "stateMutability": "view",
      "type": "function"
    },
    {
      "inputs": [
        {
          "name": "_name",
          "type": "string"
        },
        {
          "name": "_minimumContribution",
          "type": "uint256"
        },
        {
          "name": "creator",
          "type": "address"
        },
        {
          "name": "_deadline",
          "type": "uint256"
        },
        {
          "name": "_goal",
          "type": "uint256"
        },
        {
          "name": "_details",
          "type": "string"
        }
      ],
      "payable": false,
      "stateMutability": "nonpayable",
      "type": "constructor"
    },
    {
      "payable": true,
      "stateMutability": "payable",
      "type": "fallback"
    },
    {
      "anonymous": false,
      "inputs": [
        {
          "indexed": false,
          "name": "contributor",
          "type": "address"
        },
        {
          "indexed": false,
          "name": "amount",
          "type": "uint256"
        }
      ],
      "name": "Contribute",
      "type": "event"
    },
    {
      "anonymous": false,
      "inputs": [
        {
          "indexed": false,
          "name": "contributor",
          "type": "address"
        },
        {
          "indexed": false,
          "name": "amount",
          "type": "uint256"
        }
      ],
      "name": "Withdrawal",
      "type": "event"
    },
    {
      "anonymous": false,
      "inputs": [
        {
          "indexed": false,
          "name": "recipient",
          "type": "address"
        },
        {
          "indexed": false,
          "name": "value",
          "type": "uint256"
        }
      ],
      "name": "RequestFinalized",
      "type": "event"
    },
    {
      "anonymous": false,
      "inputs": [],
      "name": "Pause",
      "type": "event"
    },
    {
      "anonymous": false,
      "inputs": [],
      "name": "Unpause",
      "type": "event"
    },
    {
      "anonymous": false,
      "inputs": [
        {
          "indexed": true,
          "name": "previousOwner",
          "type": "address"
        }
      ],
      "name": "OwnershipRenounced",
      "type": "event"
    },
    {
      "anonymous": false,
      "inputs": [
        {
          "indexed": true,
          "name": "previousOwner",
          "type": "address"
        },
        {
          "indexed": true,
          "name": "newOwner",
          "type": "address"
        }
      ],
      "name": "OwnershipTransferred",
      "type": "event"
    },
    {
      "constant": false,
      "inputs": [],
      "name": "contribute",
      "outputs": [],
      "payable": true,
      "stateMutability": "payable",
      "type": "function"
    },
    {
      "constant": false,
      "inputs": [],
      "name": "withdraw",
      "outputs": [],
      "payable": false,
      "stateMutability": "nonpayable",
      "type": "function"
    },
    {
      "constant": false,
      "inputs": [
        {
          "name": "description",
          "type": "string"
        },
        {
          "name": "value",
          "type": "uint256"
        },
        {
          "name": "recipient",
          "type": "address"
        }
      ],
      "name": "createRequest",
      "outputs": [],
      "payable": false,
      "stateMutability": "nonpayable",
      "type": "function"
    },
    {
      "constant": false,
      "inputs": [
        {
          "name": "index",
          "type": "uint256"
        }
      ],
      "name": "approveRequest",
      "outputs": [],
      "payable": false,
      "stateMutability": "nonpayable",
      "type": "function"
    },
    {
      "constant": false,
      "inputs": [
        {
          "name": "index",
          "type": "uint256"
        }
      ],
      "name": "finalizeRequest",
      "outputs": [],
      "payable": false,
      "stateMutability": "nonpayable",
      "type": "function"
    },
    {
      "constant": false,
      "inputs": [],
      "name": "refundBackerFunds",
      "outputs": [],
      "payable": false,
      "stateMutability": "nonpayable",
      "type": "function"
    },
    {
      "constant": true,
      "inputs": [],
      "name": "getSummary",
      "outputs": [
        {
          "name": "",
          "type": "string"
        },
        {
          "name": "",
          "type": "address"
        },
        {
          "name": "",
          "type": "uint256"
        },
        {
          "name": "",
          "type": "uint256"
        },
        {
          "name": "",
          "type": "uint256"
        },
        {
          "name": "",
          "type": "string"
        },
        {
          "name": "",
          "type": "uint256"
        },
        {
          "name": "",
          "type": "uint256"
        },
        {
          "name": "",
          "type": "uint256"
        },
        {
          "name": "",
          "type": "uint256"
        },
        {
          "name": "",
          "type": "uint256"
        },
        {
          "name": "",
          "type": "uint256"
        }
      ],
      "payable": false,
      "stateMutability": "view",
      "type": "function"
    },
    {
      "constant": true,
      "inputs": [],
      "name": "getCampaignStatus",
      "outputs": [
        {
          "name": "",
          "type": "bool"
        },
        {
          "name": "",
          "type": "bool"
        }
      ],
      "payable": false,
      "stateMutability": "view",
      "type": "function"
    },
    {
      "constant": true,
      "inputs": [],
      "name": "getRequestsCount",
      "outputs": [
        {
          "name": "",
          "type": "uint256"
        }
      ],
      "payable": false,
      "stateMutability": "view",
      "type": "function"
    },
    {
      "constant": false,
      "inputs": [
        {
          "name": "_rating",
          "type": "uint256"
        }
      ],
      "name": "giveRating",
      "outputs": [],
      "payable": false,
      "stateMutability": "nonpayable",
      "type": "function"
    },
    {
      "constant": false,
      "inputs": [],
      "name": "computeRating",
      "outputs": [
        {
          "name": "",
          "type": "uint256"
        }
      ],
      "payable": false,
      "stateMutability": "nonpayable",
      "type": "function"
    }
  ],
  "bytecode": "0x608060405260008060146101000a81548160ff02191690831515021790555060008060156101000a81548160ff0219169083151502179055503480156200004557600080fd5b50604051620029e4380380620029e4833981018060405281019080805182019291906020018051906020019092919080519060200190929190805190602001909291908051906020019092919080518201929190505050336000806101000a81548173ffffffffffffffffffffffffffffffffffffffff021916908373ffffffffffffffffffffffffffffffffffffffff1602179055508242101515620000eb57600080fd5b856003908051906020019062000103929190620004b6565b5083600260006101000a81548173ffffffffffffffffffffffffffffffffffffffff021916908373ffffffffffffffffffffffffffffffffffffffff160217905550846005819055508260068190555081600781905550806004908051906020019062000172929190620004b6565b506000600c60006101000a81548160ff02191690831515021790555033601060006101000a81548173ffffffffffffffffffffffffffffffffffffffff021916908373ffffffffffffffffffffffffffffffffffffffff160217905550601060009054906101000a900473ffffffffffffffffffffffffffffffffffffffff16601160006101000a81548173ffffffffffffffffffffffffffffffffffffffff021916908373ffffffffffffffffffffffffffffffffffffffff160217905550601160009054906101000a900473ffffffffffffffffffffffffffffffffffffffff1673ffffffffffffffffffffffffffffffffffffffff1663bccec5d18560016006546040518463ffffffff167c0100000000000000000000000000000000000000000000000000000000028152600401808473ffffffffffffffffffffffffffffffffffffffff1673ffffffffffffffffffffffffffffffffffffffff1681526020018381526020018281526020019350505050600060405180830381600087803b1580156200030357600080fd5b505af115801562000318573d6000803e3d6000fd5b50505050620003368462000342640100000000026401000000009004565b50505050505062000565565b6000809054906101000a900473ffffffffffffffffffffffffffffffffffffffff1673ffffffffffffffffffffffffffffffffffffffff163373ffffffffffffffffffffffffffffffffffffffff161415156200039e57600080fd5b620003b881620003bb640100000000026401000000009004565b50565b600073ffffffffffffffffffffffffffffffffffffffff168173ffffffffffffffffffffffffffffffffffffffff1614151515620003f857600080fd5b8073ffffffffffffffffffffffffffffffffffffffff166000809054906101000a900473ffffffffffffffffffffffffffffffffffffffff1673ffffffffffffffffffffffffffffffffffffffff167f8be0079c531659141344cd1fd0a4f28419497f9722a3daafe3b4186f6b6457e060405160405180910390a3806000806101000a81548173ffffffffffffffffffffffffffffffffffffffff021916908373ffffffffffffffffffffffffffffffffffffffff16021790555050565b828054600181600116156101000203166002900490600052602060002090601f016020900481019282601f10620004f957805160ff19168380011785556200052a565b828001600101855582156200052a579182015b82811115620005295782518255916020019190600101906200050c565b5b5090506200053991906200053d565b5090565b6200056291905b808211156200055e57600081600090555060010162000544565b5090565b90565b61246f80620005756000396000f3006080604052600436106101ac576000357c0100000000000000000000000000000000000000000000000000000000900463ffffffff16806303441006146101ee578063105505151461021b5780631d565e781461025557806325ef022a1461028057806329dcb0cf146102ab5780632e6bae6b146102d657806331116a22146102ed5780633410452a1461037d57806335f0202b146103a85780633ccfd60b146103d35780633f0795ff146103ea5780633f4ba83a14610415578063401938831461042c5780634051ddac14610457578063481c6a75146105c5578063565974d31461061c5780635c975abb146106ac578063715018a6146106db57806378860268146106f25780637b3e5e7b1461071d57806380f474f61461074857806381d12c58146107735780638456cb59146108655780638a9cfd551461087c5780638da5cb5b1461090f578063937e09b114610966578063966dae0e14610991578063b85dfb80146109e8578063cf56334314610a3f578063d7bb99ba14610a6e578063d7d1bbdb14610a78578063dc104f8014610aa5578063f2fde38b14610ad2578063f7ffbd8514610b15575b3373ffffffffffffffffffffffffffffffffffffffff166108fc349081150290604051600060405180830381858888f1935050505015156101ec57600080fd5b005b3480156101fa57600080fd5b5061021960048036038101908080359060200190929190505050610b40565b005b34801561022757600080fd5b50610230610d43565b6040518083151515158152602001821515151581526020019250505060405180910390f35b34801561026157600080fd5b5061026a610d6e565b6040518082815260200191505060405180910390f35b34801561028c57600080fd5b50610295610d74565b6040518082815260200191505060405180910390f35b3480156102b757600080fd5b506102c0610e16565b6040518082815260200191505060405180910390f35b3480156102e257600080fd5b506102eb610e1c565b005b3480156102f957600080fd5b50610302610eb4565b6040518080602001828103825283818151815260200191508051906020019080838360005b83811015610342578082015181840152602081019050610327565b50505050905090810190601f16801561036f5780820380516001836020036101000a031916815260200191505b509250505060405180910390f35b34801561038957600080fd5b50610392610f52565b6040518082815260200191505060405180910390f35b3480156103b457600080fd5b506103bd610f5f565b6040518082815260200191505060405180910390f35b3480156103df57600080fd5b506103e8610f65565b005b3480156103f657600080fd5b506103ff6112e4565b6040518082815260200191505060405180910390f35b34801561042157600080fd5b5061042a6112ea565b005b34801561043857600080fd5b506104416113a8565b6040518082815260200191505060405180910390f35b34801561046357600080fd5b5061046c6113ae565b60405180806020018d73ffffffffffffffffffffffffffffffffffffffff1673ffffffffffffffffffffffffffffffffffffffff1681526020018c81526020018b81526020018a81526020018060200189815260200188815260200187815260200186815260200185815260200184815260200183810383528f818151815260200191508051906020019080838360005b838110156105185780820151818401526020810190506104fd565b50505050905090810190601f1680156105455780820380516001836020036101000a031916815260200191505b5083810382528a818151815260200191508051906020019080838360005b8381101561057e578082015181840152602081019050610563565b50505050905090810190601f1680156105ab5780820380516001836020036101000a031916815260200191505b509e50505050505050505050505050505060405180910390f35b3480156105d157600080fd5b506105da6115b6565b604051808273ffffffffffffffffffffffffffffffffffffffff1673ffffffffffffffffffffffffffffffffffffffff16815260200191505060405180910390f35b34801561062857600080fd5b506106316115dc565b6040518080602001828103825283818151815260200191508051906020019080838360005b83811015610671578082015181840152602081019050610656565b50505050905090810190601f16801561069e5780820380516001836020036101000a031916815260200191505b509250505060405180910390f35b3480156106b857600080fd5b506106c161167a565b604051808215151515815260200191505060405180910390f35b3480156106e757600080fd5b506106f061168d565b005b3480156106fe57600080fd5b5061070761178f565b6040518082815260200191505060405180910390f35b34801561072957600080fd5b50610732611795565b6040518082815260200191505060405180910390f35b34801561075457600080fd5b5061075d61179b565b6040518082815260200191505060405180910390f35b34801561077f57600080fd5b5061079e600480360381019080803590602001909291905050506117a1565b60405180806020018681526020018573ffffffffffffffffffffffffffffffffffffffff1673ffffffffffffffffffffffffffffffffffffffff16815260200184151515158152602001838152602001828103825287818151815260200191508051906020019080838360005b8381101561082657808201518184015260208101905061080b565b50505050905090810190601f1680156108535780820380516001836020036101000a031916815260200191505b50965050505050505060405180910390f35b34801561087157600080fd5b5061087a6118ab565b005b34801561088857600080fd5b5061090d600480360381019080803590602001908201803590602001908080601f016020809104026020016040519081016040528093929190818152602001838380828437820191505050505050919291929080359060200190929190803573ffffffffffffffffffffffffffffffffffffffff16906020019092919050505061196b565b005b34801561091b57600080fd5b50610924611b49565b604051808273ffffffffffffffffffffffffffffffffffffffff1673ffffffffffffffffffffffffffffffffffffffff16815260200191505060405180910390f35b34801561097257600080fd5b5061097b611b6e565b6040518082815260200191505060405180910390f35b34801561099d57600080fd5b506109a6611b74565b604051808273ffffffffffffffffffffffffffffffffffffffff1673ffffffffffffffffffffffffffffffffffffffff16815260200191505060405180910390f35b3480156109f457600080fd5b50610a29600480360381019080803573ffffffffffffffffffffffffffffffffffffffff169060200190929190505050611b9a565b6040518082815260200191505060405180910390f35b348015610a4b57600080fd5b50610a54611bb2565b604051808215151515815260200191505060405180910390f35b610a76611bc5565b005b348015610a8457600080fd5b50610aa360048036038101908080359060200190929190505050611eeb565b005b348015610ab157600080fd5b50610ad060048036038101908080359060200190929190505050612032565b005b348015610ade57600080fd5b50610b13600480360381019080803573ffffffffffffffffffffffffffffffffffffffff16906020019092919050505061216c565b005b348015610b2157600080fd5b50610b2a6121d3565b6040518082815260200191505060405180910390f35b60008060009054906101000a900473ffffffffffffffffffffffffffffffffffffffff1673ffffffffffffffffffffffffffffffffffffffff163373ffffffffffffffffffffffffffffffffffffffff16141515610b9d57600080fd5b600182815481101515610bac57fe5b90600052602060002090600502019050610bd260026008546121d990919063ffffffff16565b8160030154111515610be357600080fd5b8060020160149054906101000a900460ff16151515610c0157600080fd5b8060020160009054906101000a900473ffffffffffffffffffffffffffffffffffffffff1673ffffffffffffffffffffffffffffffffffffffff166108fc82600101549081150290604051600060405180830381858888f19350505050158015610c6f573d6000803e3d6000fd5b50610c898160010154600f546121ef90919063ffffffff16565b600f8190555060018160020160146101000a81548160ff0219169083151502179055507f15cf4d7980b6be9411b518575337aca2b746a23acbd3978bec4a1eb23af1415c8160020160009054906101000a900473ffffffffffffffffffffffffffffffffffffffff168260010154604051808373ffffffffffffffffffffffffffffffffffffffff1673ffffffffffffffffffffffffffffffffffffffff1681526020018281526020019250505060405180910390a15050565b600080600060159054906101000a900460ff16600c60009054906101000a900460ff16915091509091565b60085481565b60008060009054906101000a900473ffffffffffffffffffffffffffffffffffffffff1673ffffffffffffffffffffffffffffffffffffffff163373ffffffffffffffffffffffffffffffffffffffff16141515610dd157600080fd5b60065442118015610de65750600754600d5410155b1515610df157600080fd5b610e08600954600a546121d990919063ffffffff16565b600b81905550600b54905090565b60065481565b6000809054906101000a900473ffffffffffffffffffffffffffffffffffffffff1673ffffffffffffffffffffffffffffffffffffffff163373ffffffffffffffffffffffffffffffffffffffff16141515610e7757600080fd5b60065442118015610e8c5750600754600d5410155b1515610e9757600080fd5b6001600c60006101000a81548160ff021916908315150217905550565b60038054600181600116156101000203166002900480601f016020809104026020016040519081016040528092919081815260200182805460018160011615610100020316600290048015610f4a5780601f10610f1f57610100808354040283529160200191610f4a565b820191906000526020600020905b815481529060010190602001808311610f2d57829003601f168201915b505050505081565b6000600180549050905090565b60095481565b600080601260003373ffffffffffffffffffffffffffffffffffffffff1673ffffffffffffffffffffffffffffffffffffffff16815260200190815260200160002054111515610fb457600080fd5b600060149054906101000a900460ff16151515610fd057600080fd5b6001600060146101000a81548160ff02191690831515021790555060065442111580610fff5750600754600d54105b806110165750600c60009054906101000a900460ff165b151561102157600080fd5b601260003373ffffffffffffffffffffffffffffffffffffffff1673ffffffffffffffffffffffffffffffffffffffff1681526020019081526020016000205490506000601260003373ffffffffffffffffffffffffffffffffffffffff1673ffffffffffffffffffffffffffffffffffffffff16815260200190815260200160002081905550600c60009054906101000a900460ff16156110ed576110e6600f546110d8600d54846121d990919063ffffffff16565b61220890919063ffffffff16565b9050611215565b61110281600d546121ef90919063ffffffff16565b600d8190555061111d81600f546121ef90919063ffffffff16565b600f8190555061113960016008546121ef90919063ffffffff16565b600881905550601160009054906101000a900473ffffffffffffffffffffffffffffffffffffffff1673ffffffffffffffffffffffffffffffffffffffff166377db1787336040518263ffffffff167c0100000000000000000000000000000000000000000000000000000000028152600401808273ffffffffffffffffffffffffffffffffffffffff1673ffffffffffffffffffffffffffffffffffffffff168152602001915050600060405180830381600087803b1580156111fc57600080fd5b505af1158015611210573d6000803e3d6000fd5b505050505b3373ffffffffffffffffffffffffffffffffffffffff166108fc829081150290604051600060405180830381858888f1935050505015801561125b573d6000803e3d6000fd5b507f7fcf532c15f0a6db0bd6d0e038bea71d30d808c7d98cb3bf7268a95bf5081b653382604051808373ffffffffffffffffffffffffffffffffffffffff1673ffffffffffffffffffffffffffffffffffffffff1681526020018281526020019250505060405180910390a160008060146101000a81548160ff02191690831515021790555050565b600a5481565b6000809054906101000a900473ffffffffffffffffffffffffffffffffffffffff1673ffffffffffffffffffffffffffffffffffffffff163373ffffffffffffffffffffffffffffffffffffffff1614151561134557600080fd5b600060159054906101000a900460ff16151561136057600080fd5b60008060156101000a81548160ff0219169083151502179055507f7805862f689e2f13df9f062ff482ad3ad112aca9e0847911ed832e158c525b3360405160405180910390a1565b60075481565b606060008060008060606000806000806000806003600260009054906101000a900473ffffffffffffffffffffffffffffffffffffffff166005546006546007546004600d543073ffffffffffffffffffffffffffffffffffffffff1631601260003373ffffffffffffffffffffffffffffffffffffffff1673ffffffffffffffffffffffffffffffffffffffff16815260200190815260200160002054600180549050600b546008548b8054600181600116156101000203166002900480601f0160208091040260200160405190810160405280929190818152602001828054600181600116156101000203166002900480156114ed5780601f106114c2576101008083540402835291602001916114ed565b820191906000526020600020905b8154815290600101906020018083116114d057829003601f168201915b50505050509b50868054600181600116156101000203166002900480601f0160208091040260200160405190810160405280929190818152602001828054600181600116156101000203166002900480156115895780601f1061155e57610100808354040283529160200191611589565b820191906000526020600020905b81548152906001019060200180831161156c57829003601f168201915b505050505096509b509b509b509b509b509b509b509b509b509b509b509b50909192939495969798999a9b565b600260009054906101000a900473ffffffffffffffffffffffffffffffffffffffff1681565b60048054600181600116156101000203166002900480601f0160208091040260200160405190810160405280929190818152602001828054600181600116156101000203166002900480156116725780601f1061164757610100808354040283529160200191611672565b820191906000526020600020905b81548152906001019060200180831161165557829003601f168201915b505050505081565b600060159054906101000a900460ff1681565b6000809054906101000a900473ffffffffffffffffffffffffffffffffffffffff1673ffffffffffffffffffffffffffffffffffffffff163373ffffffffffffffffffffffffffffffffffffffff161415156116e857600080fd5b6000809054906101000a900473ffffffffffffffffffffffffffffffffffffffff1673ffffffffffffffffffffffffffffffffffffffff167ff8df31144d9c2f0f6b59d69b8b98abd5459d07f2742c4df920b25aae33c6482060405160405180910390a260008060006101000a81548173ffffffffffffffffffffffffffffffffffffffff021916908373ffffffffffffffffffffffffffffffffffffffff160217905550565b600e5481565b600d5481565b600b5481565b6001818154811015156117b057fe5b9060005260206000209060050201600091509050806000018054600181600116156101000203166002900480601f01602080910402602001604051908101604052809291908181526020018280546001816001161561010002031660029004801561185c5780601f106118315761010080835404028352916020019161185c565b820191906000526020600020905b81548152906001019060200180831161183f57829003601f168201915b5050505050908060010154908060020160009054906101000a900473ffffffffffffffffffffffffffffffffffffffff16908060020160149054906101000a900460ff16908060030154905085565b6000809054906101000a900473ffffffffffffffffffffffffffffffffffffffff1673ffffffffffffffffffffffffffffffffffffffff163373ffffffffffffffffffffffffffffffffffffffff1614151561190657600080fd5b600060159054906101000a900460ff1615151561192257600080fd5b6001600060156101000a81548160ff0219169083151502179055507f6985a02210a168e66602d3235cb6db0e70f92b3ba4d376a33c0f3d9434bff62560405160405180910390a1565b611973612356565b6000809054906101000a900473ffffffffffffffffffffffffffffffffffffffff1673ffffffffffffffffffffffffffffffffffffffff163373ffffffffffffffffffffffffffffffffffffffff161415156119ce57600080fd5b600654421180156119e35750600754600d5410155b15156119ee57600080fd5b600060159054906101000a900460ff16151515611a0a57600080fd5b611a1f83600e5461224090919063ffffffff16565b600e81905550600f54600e541115611a3657600080fd5b60a0604051908101604052808581526020018481526020018373ffffffffffffffffffffffffffffffffffffffff16815260200160001515815260200160008152509050600181908060018154018082558091505090600182039060005260206000209060050201600090919290919091506000820151816000019080519060200190611ac492919061239e565b506020820151816001015560408201518160020160006101000a81548173ffffffffffffffffffffffffffffffffffffffff021916908373ffffffffffffffffffffffffffffffffffffffff16021790555060608201518160020160146101000a81548160ff0219169083151502179055506080820151816003015550505050505050565b6000809054906101000a900473ffffffffffffffffffffffffffffffffffffffff1681565b60055481565b601060009054906101000a900473ffffffffffffffffffffffffffffffffffffffff1681565b60126020528060005260406000206000915090505481565b600c60009054906101000a900460ff1681565b600060159054906101000a900460ff16151515611be157600080fd5b600060149054906101000a900460ff16151515611bfd57600080fd5b6001600060146101000a81548160ff02191690831515021790555060055434118015611c2b57506006544211155b8015611c415750678ac7230489e80000600d5411155b1515611c4c57600080fd5b6000601260003373ffffffffffffffffffffffffffffffffffffffff1673ffffffffffffffffffffffffffffffffffffffff168152602001908152602001600020541415611cb157611caa600160085461224090919063ffffffff16565b6008819055505b611d0334601260003373ffffffffffffffffffffffffffffffffffffffff1673ffffffffffffffffffffffffffffffffffffffff1681526020019081526020016000205461224090919063ffffffff16565b601260003373ffffffffffffffffffffffffffffffffffffffff1673ffffffffffffffffffffffffffffffffffffffff16815260200190815260200160002081905550611d5b34600d5461224090919063ffffffff16565b600d81905550611d7634600f5461224090919063ffffffff16565b600f81905550601160009054906101000a900473ffffffffffffffffffffffffffffffffffffffff1673ffffffffffffffffffffffffffffffffffffffff1663bccec5d13360026006546040518463ffffffff167c0100000000000000000000000000000000000000000000000000000000028152600401808473ffffffffffffffffffffffffffffffffffffffff1673ffffffffffffffffffffffffffffffffffffffff1681526020018381526020018281526020019350505050600060405180830381600087803b158015611e4c57600080fd5b505af1158015611e60573d6000803e3d6000fd5b505050507f906faaf913a60f38b5e8f2d6f5b163239bac2d994fa1a5d21751a51587a940573334604051808373ffffffffffffffffffffffffffffffffffffffff1673ffffffffffffffffffffffffffffffffffffffff1681526020018281526020019250505060405180910390a160008060146101000a81548160ff021916908315150217905550565b600080601260003373ffffffffffffffffffffffffffffffffffffffff1673ffffffffffffffffffffffffffffffffffffffff16815260200190815260200160002054111515611f3a57600080fd5b600182815481101515611f4957fe5b906000526020600020906005020190508060040160003373ffffffffffffffffffffffffffffffffffffffff1673ffffffffffffffffffffffffffffffffffffffff16815260200190815260200160002060009054906101000a900460ff16151515611fb457600080fd5b60018160040160003373ffffffffffffffffffffffffffffffffffffffff1673ffffffffffffffffffffffffffffffffffffffff16815260200190815260200160002060006101000a81548160ff0219169083151502179055506120266001826003015461224090919063ffffffff16565b81600301819055505050565b6000601260003373ffffffffffffffffffffffffffffffffffffffff1673ffffffffffffffffffffffffffffffffffffffff1681526020019081526020016000205411151561208057600080fd5b600654421180156120955750600754600d5410155b15156120a057600080fd5b6000601360003373ffffffffffffffffffffffffffffffffffffffff1673ffffffffffffffffffffffffffffffffffffffff168152602001908152602001600020541415156120ee57600080fd5b80601360003373ffffffffffffffffffffffffffffffffffffffff1673ffffffffffffffffffffffffffffffffffffffff16815260200190815260200160002081905550612148600160095461224090919063ffffffff16565b60098190555061216381600a5461224090919063ffffffff16565b600a8190555050565b6000809054906101000a900473ffffffffffffffffffffffffffffffffffffffff1673ffffffffffffffffffffffffffffffffffffffff163373ffffffffffffffffffffffffffffffffffffffff161415156121c757600080fd5b6121d08161225c565b50565b600f5481565b600081838115156121e657fe5b04905092915050565b60008282111515156121fd57fe5b818303905092915050565b60008083141561221b576000905061223a565b818302905081838281151561222c57fe5b0414151561223657fe5b8090505b92915050565b6000818301905082811015151561225357fe5b80905092915050565b600073ffffffffffffffffffffffffffffffffffffffff168173ffffffffffffffffffffffffffffffffffffffff161415151561229857600080fd5b8073ffffffffffffffffffffffffffffffffffffffff166000809054906101000a900473ffffffffffffffffffffffffffffffffffffffff1673ffffffffffffffffffffffffffffffffffffffff167f8be0079c531659141344cd1fd0a4f28419497f9722a3daafe3b4186f6b6457e060405160405180910390a3806000806101000a81548173ffffffffffffffffffffffffffffffffffffffff021916908373ffffffffffffffffffffffffffffffffffffffff16021790555050565b60a0604051908101604052806060815260200160008152602001600073ffffffffffffffffffffffffffffffffffffffff168152602001600015158152602001600081525090565b828054600181600116156101000203166002900490600052602060002090601f016020900481019282601f106123df57805160ff191683800117855561240d565b8280016001018555821561240d579182015b8281111561240c5782518255916020019190600101906123f1565b5b50905061241a919061241e565b5090565b61244091905b8082111561243c576000816000905550600101612424565b5090565b905600a165627a7a723058205fc3a998c2ec4e8dd0cb6c816dcda74884cad3b0433cf55c490ef4540a27dc790029",
  "source": "/**\n * @author Sushant Kumar\n * @title CrowdCoin\n * @section DESCRIPTION\n * This smart contract is an implementation of Kickstarter using Solidity.\n * It is used to create Campaigns to raise funds and then request the backers of \n * the Campagin to approve the usage of the raised funds for various purposes.\n * Additional features include withdrawal before deadline, refund initiated by Campaign manager \n * and rating of campaigns.\n * Follows a Factory design pattern wherein the CampaignFactory creates instances of the Campaign\n */\n\npragma solidity ^0.4.24;\n\nimport \"./SafeMath.sol\";\nimport \"./Ownable.sol\";\nimport \"./ReentrancyGuard.sol\";\nimport \"./Pausable.sol\";\n\ncontract CampaignFactory is Ownable, Pausable {\n\n    using SafeMath for uint256;\n\n    event NewCampaign(address campaignAddress, string name, uint minimum, address creator, uint deadline, uint goal, string details);\n\n    struct CampaignStatus {\n        address addrOfCampaign;\n        uint deadline;\n    }\n\n    mapping(address => CampaignStatus[]) public campaignCreatorsList;\n    mapping(address => CampaignStatus[]) public backersList;\n    CampaignStatus[] public deployedCampaigns;\n\n    /**\n    * @dev Create a new Campaign with the required parameters\n    * @param name Name of the campaign\n    * @param minimum Minimum contribution for the campaign\n    * @param _deadline Deadline for the campaign\n    * @param _goal Funding goal of the campaign\n    * @param details Additional details for the campaign\n    */\n    function createCampaign(string name, uint minimum, uint _deadline, uint _goal, string details) public whenNotPaused {\n        address newCampaign = new Campaign(name, minimum, msg.sender, _deadline, _goal, details);\n        CampaignStatus memory newAddition = CampaignStatus({addrOfCampaign: newCampaign, deadline: _deadline });\n        deployedCampaigns.push(newAddition);\n        emit NewCampaign(newCampaign, name, minimum, msg.sender, _deadline, _goal, details);\n    }\n\n    /**\n    * @dev To retrieve list of campaigns. Uses filterCampaigns() to filter\n    * @param user address of the user\n    * @param code If 0 -> shows a general list.  1 -> Filters through campaign creators list.  2 -> Filters through campaign backers list  \n    * @return ongoingCampaigns List of addresses of Ongoing Campaigns\n    * @return completedCampaigns List of addresses of Completed Campaigns\n    */\n    function getCampaigns(address user, uint code) public view returns(address[] ongoingCampaigns, address[] completedCampaigns) {\n        CampaignStatus[] memory listOfCampaigns;\n\n        if(code == 0) {\n            listOfCampaigns = deployedCampaigns;\n        }\n\n        else if(code == 1) {\n            listOfCampaigns = campaignCreatorsList[user];\n        }\n\n        else if(code == 2) {\n            listOfCampaigns = backersList[user];\n        }\n\n        return(filterCampaigns(listOfCampaigns));\n    }\n\n    /**\n    * @dev Filters campaigns based on current block.timestamp into ongoing and completed\n    * @param campaigns List of CampaignStatus from getCampaigns() to filtered upon\n    * @return ongoingCampaigns List of addresses of Ongoing Campaigns\n    * @return completedCampaigns List of addresses of Completed Campaigns\n    */\n    function filterCampaigns(CampaignStatus[] campaigns) internal view returns(address[] ongoingCampaigns, address[] completedCampaigns) {\n        uint indexOfOngoing;\n        uint indexOfCompleted;\n\n        uint numberOfCampaigns = campaigns.length;\n        ongoingCampaigns = new address[](numberOfCampaigns);\n        completedCampaigns = new address[](numberOfCampaigns);\n\n        for(uint i = 0; i < numberOfCampaigns; i = i.add(1)) {\n            CampaignStatus memory campaign = campaigns[i];\n\n            // Ongoing Campaigns\n            if(block.timestamp <= campaign.deadline ) {\n                ongoingCampaigns[indexOfOngoing] = campaign.addrOfCampaign;\n                indexOfOngoing = indexOfOngoing.add(1);\n            }\n\n            // Completed Campaigns\n            else {\n                completedCampaigns[indexOfCompleted] = campaign.addrOfCampaign;\n                indexOfCompleted = indexOfCompleted.add(1);\n            }\n        }\n        return (ongoingCampaigns, completedCampaigns);\n    }\n\n    /**\n    * @dev Adds user to the lists campaignCreatorsList and backersList for all campaigns created\n    * @param user address of user to be added to campaignCreatorsList/backersList\n    * @param creatorOrBacker flag for a campaign creator/backer\n    * @param _deadline Deadline of campaign acts as an additional parameter to filter for user profiles\n    */\n    function addToList(address user, uint creatorOrBacker, uint _deadline) public {\n        CampaignStatus memory newAddition = CampaignStatus({addrOfCampaign: msg.sender, deadline: _deadline});\n        bool notPresent = true;\n\n        if(creatorOrBacker == 1) {\n            CampaignStatus[] storage creatorCampaigns = campaignCreatorsList[user];\n\n            for(uint i = 0; i < creatorCampaigns.length; i++) {\n                CampaignStatus memory campaignC = creatorCampaigns[i];\n                if(newAddition.addrOfCampaign == campaignC.addrOfCampaign) {\n                    notPresent = false;\n                }\n            }\n\n            if(notPresent == true) {\n                creatorCampaigns.push(newAddition);\n                campaignCreatorsList[user] = creatorCampaigns;                \n            }\n        }\n\n        else if(creatorOrBacker == 2) {\n            CampaignStatus[] storage backerCampaigns = backersList[user];\n\n            for(uint j = 0; j < backerCampaigns.length; j++) {\n                CampaignStatus memory campaignB = backerCampaigns[j];\n                if(newAddition.addrOfCampaign == campaignB.addrOfCampaign) {\n                    notPresent = false;\n                }\n            }\n\n            if(notPresent == true) {\n                backerCampaigns.push(newAddition);\n                backersList[user] = backerCampaigns;\n            }\n        }\n    }\n\n    /**\n    * @dev Deletes users from the list backersList if a user withdrew their funds\n    * @param user address of the user\n    */\n    function deleteFromList(address user) public {\n        CampaignStatus[] storage listOfCampaigns = backersList[user];\n\n        for(uint index = 0; index < listOfCampaigns.length; index = index.add(1)) {\n            CampaignStatus memory campaign = listOfCampaigns[index];\n\n            if(msg.sender == campaign.addrOfCampaign) {\n                delete listOfCampaigns[index];\n            }\n        }\n        backersList[user] = listOfCampaigns;\n    }\n}\n\n\n/**\n* Campaign contract created for every new campaign, by invoking the createCampaign(args..)\n* in CampaignFactory. Caller of createCamapign will be the manager of the Campign instance.\n*/\n\ncontract Campaign is Ownable, ReentrancyGuard, Pausable {\n\n    using SafeMath for uint256;\n    \n    struct Request {\n        string description;\n        uint value;\n        address recipient;\n        bool complete;\n        uint backerCount;\n        mapping(address => bool) backers;\n    }\n    \n    Request[] public requests;\n    address public manager;\n    string public nameOfCampaign;\n    string public details;\n    uint public minimumContribution;\n    uint public deadline;\n    uint public goal;\n    uint public backersCount;\n    uint public ratersCount;\n    uint public ratingSum;\n    uint public rating;\n    bool public refundFlag;\n    uint public amountRaised;\n    uint public requestedAmount;\n    uint public amountRemaining;\n    address public factoryAddress;\n\n    // Limiting contributions to 10 ETH\n    uint constant MAX_LIMIT_FOR_CONTRIB = 10000000000000000000;\n\n    CampaignFactory factory;\n\n    mapping(address => uint256) public backers;\n    mapping(address => uint256) private ratingFrombackers;\n\n\n    event Contribute(address contributor, uint amount);\n    event Withdrawal(address contributor, uint amount);\n    event RequestFinalized(address recipient, uint value);\n\n    /**\n    * @dev Modifier to check if the backer has contributed\n    */\n    modifier validBacker() {\n        require(backers[msg.sender] > 0);\n        _;\n    }\n\n    /**\n    * @dev Modifier to check if deadline has passed and the campaign has reached its goal\n    */\n    modifier postDeadline() {\n        require(block.timestamp > deadline && amountRaised >= goal);\n        _;\n    }\n\n    /**\n    * @dev Constructor to create a Campaign\n    */\n    constructor(string _name, uint _minimumContribution, address creator, uint _deadline, uint _goal, string _details) public {\n\n        require(block.timestamp < _deadline);\n        nameOfCampaign = _name;\n        manager = creator;\n        minimumContribution = _minimumContribution;\n        deadline = _deadline;\n        goal = _goal;\n        details = _details;\n        refundFlag = false;\n        factoryAddress = msg.sender;\n        factory = CampaignFactory(factoryAddress);\n\n        factory.addToList(creator, 1, deadline);\n        // Otherwise the owner of the Campaign instance will always be the CampaignFactory\n        transferOwnership(creator);\n    }\n    \n    /**\n    * @dev Payable function recieve funds from backers\n    */\n    function contribute() public payable whenNotPaused nonReentrant {\n        require(msg.value > minimumContribution && block.timestamp <= deadline && amountRaised <= MAX_LIMIT_FOR_CONTRIB);\n\n        if(backers[msg.sender] == 0) {\n            backersCount = backersCount.add(1);            \n        }\n\n        backers[msg.sender] = backers[msg.sender].add(msg.value);\n        amountRaised = amountRaised.add(msg.value);\n        amountRemaining = amountRemaining.add(msg.value);\n        factory.addToList(msg.sender, 2, deadline);\n        emit Contribute(msg.sender, msg.value);\n    }\n\n    /**\n    * @dev Function to withdraw funds from the campaign\n    */\n    function withdraw() external validBacker nonReentrant {\n        require(block.timestamp <= deadline || amountRaised < goal || refundFlag);\n        uint amountWithdrawn  = backers[msg.sender];\n        backers[msg.sender] = 0;\n\n        if(refundFlag) {\n            amountWithdrawn = amountWithdrawn.div(amountRaised).mul(amountRemaining);\n        }\n\n        else {\n            amountRaised = amountRaised.sub(amountWithdrawn);\n            amountRemaining = amountRemaining.sub(amountWithdrawn);\n            backersCount = backersCount.sub(1);\n            factory.deleteFromList(msg.sender);\n        }\n\n        msg.sender.transfer(amountWithdrawn);\n        emit Withdrawal(msg.sender, amountWithdrawn);\n    }\n\n    /**\n    * @dev Create a request to utilize the funds raised\n    * @param description Description of the Request\n    * @param value Value in wei for the particular request\n    * @param recipient Recipient address of the request\n    */    \n    function createRequest(string description, uint value, address recipient) public onlyOwner postDeadline whenNotPaused{\n        requestedAmount = requestedAmount.add(value);\n        if(requestedAmount > amountRemaining) {\n            revert();\n        }\n\n        Request memory newRequest = Request({\n            description: description,\n            value: value,\n            recipient: recipient,\n            complete: false,\n            backerCount:  0\n        });\n        \n        requests.push(newRequest);\n    }\n\n    /**\n    * @dev Backers of the campaign can approve the request\n    * @param index Index of the request for approval\n    */    \n    function approveRequest(uint index) public validBacker {\n        Request storage request = requests[index];\n        require(!request.backers[msg.sender]);\n\n        request.backers[msg.sender] = true;\n        request.backerCount = request.backerCount.add(1);\n    }\n\n    /**\n    * @dev Finalizing the request for funds if more than 50% of the backers approve\n    * @param index Index of the request for approval\n    */    \n    function finalizeRequest(uint index) public onlyOwner {\n        Request storage request = requests[index];\n        require(request.backerCount > (backersCount.div(2)));\n        require(!request.complete);\n        \n        request.recipient.transfer(request.value);\n        amountRemaining = amountRemaining.sub(request.value);\n        request.complete = true;\n        emit RequestFinalized(request.recipient, request.value);\n    }\n\n    /**\n    * @dev Owner can activate the refund flag\n    */\n    function refundBackerFunds() public onlyOwner postDeadline {\n        refundFlag = true;\n    }\n\n    /**\n    * @dev Retrieve summary of the Campaign\n    * @return Multiple parameters of the Campaign\n    */\n    function getSummary() public view returns(string, address, uint, uint, uint, string, uint, uint, uint, uint, uint, uint) {\n        return(nameOfCampaign, manager, minimumContribution, deadline, goal, details, amountRaised, address(this).balance, backers[msg.sender], requests.length, rating, backersCount);\n    }\n\n    /**\n    * @dev Retrieve status of the Campaign\n    * @return bool If contract is paused or not\n    * @return bool If refundFlag has been activated or not\n    */\n    function getCampaignStatus() public view returns(bool, bool) {\n        return(paused, refundFlag);\n    }\n\n    /**\n    * @dev Retrieve the number of Requests in the Campaign\n    * @return uint The number of requests\n    */\n    function getRequestsCount() public view returns (uint) {\n        return requests.length;\n    }\n\n    /**\n    * @dev Store rating from a valid backer of the campaign\n    * @param _rating Rating ranges from 1 - 5\n    */\n    function giveRating(uint _rating) public validBacker postDeadline {\n        require(ratingFrombackers[msg.sender] == 0);\n        ratingFrombackers[msg.sender] = _rating;\n        ratersCount = ratersCount.add(1);\n        ratingSum = ratingSum.add(_rating);\n    }\n\n    /**\n    * @dev Compute rating of the campaign after deadline\n    * @return uint The computed rating of the Campaign\n    */\n    function computeRating() public onlyOwner postDeadline returns (uint) {\n        rating = ratingSum.div(ratersCount);\n        return rating;\n    }\n\n    /**\n    * @dev payable fallback\n    */\n    function () public payable {\n        if (!msg.sender.send(msg.value)) {\n            revert();\n        }\n    }\n}\n",
  "sourcePath": "/home/vagrant/code/contracts/CrowdCoin.sol",
  "compiler": {
    "name": "solc",
    "version": "0.4.24+commit.e67f0147.Emscripten.clang"
  },
  "schemaVersion": "2.0.1",
  "updatedAt": "2018-08-23T06:28:14.046Z"
}