{
  "contractName": "Campaign",
  "abi": [
    {
      "constant": true,
      "inputs": [],
      "name": "backersCount",
      "outputs": [
        {
          "name": "",
          "type": "uint256"
        }
      ],
      "payable": false,
      "stateMutability": "view",
      "type": "function"
    },
    {
      "constant": true,
      "inputs": [],
      "name": "deadline",
      "outputs": [
        {
          "name": "",
          "type": "uint256"
        }
      ],
      "payable": false,
      "stateMutability": "view",
      "type": "function"
    },
    {
      "constant": true,
      "inputs": [],
      "name": "nameOfCampaign",
      "outputs": [
        {
          "name": "",
          "type": "string"
        }
      ],
      "payable": false,
      "stateMutability": "view",
      "type": "function"
    },
    {
      "constant": true,
      "inputs": [],
      "name": "ratersCount",
      "outputs": [
        {
          "name": "",
          "type": "uint256"
        }
      ],
      "payable": false,
      "stateMutability": "view",
      "type": "function"
    },
    {
      "constant": true,
      "inputs": [],
      "name": "ratingSum",
      "outputs": [
        {
          "name": "",
          "type": "uint256"
        }
      ],
      "payable": false,
      "stateMutability": "view",
      "type": "function"
    },
    {
      "constant": false,
      "inputs": [],
      "name": "unpause",
      "outputs": [],
      "payable": false,
      "stateMutability": "nonpayable",
      "type": "function"
    },
    {
      "constant": true,
      "inputs": [],
      "name": "goal",
      "outputs": [
        {
          "name": "",
          "type": "uint256"
        }
      ],
      "payable": false,
      "stateMutability": "view",
      "type": "function"
    },
    {
      "constant": true,
      "inputs": [],
      "name": "manager",
      "outputs": [
        {
          "name": "",
          "type": "address"
        }
      ],
      "payable": false,
      "stateMutability": "view",
      "type": "function"
    },
    {
      "constant": true,
      "inputs": [],
      "name": "details",
      "outputs": [
        {
          "name": "",
          "type": "string"
        }
      ],
      "payable": false,
      "stateMutability": "view",
      "type": "function"
    },
    {
      "constant": true,
      "inputs": [],
      "name": "paused",
      "outputs": [
        {
          "name": "",
          "type": "bool"
        }
      ],
      "payable": false,
      "stateMutability": "view",
      "type": "function"
    },
    {
      "constant": false,
      "inputs": [],
      "name": "renounceOwnership",
      "outputs": [],
      "payable": false,
      "stateMutability": "nonpayable",
      "type": "function"
    },
    {
      "constant": true,
      "inputs": [],
      "name": "requestedAmount",
      "outputs": [
        {
          "name": "",
          "type": "uint256"
        }
      ],
      "payable": false,
      "stateMutability": "view",
      "type": "function"
    },
    {
      "constant": true,
      "inputs": [],
      "name": "amountRaised",
      "outputs": [
        {
          "name": "",
          "type": "uint256"
        }
      ],
      "payable": false,
      "stateMutability": "view",
      "type": "function"
    },
    {
      "constant": true,
      "inputs": [],
      "name": "rating",
      "outputs": [
        {
          "name": "",
          "type": "uint256"
        }
      ],
      "payable": false,
      "stateMutability": "view",
      "type": "function"
    },
    {
      "constant": true,
      "inputs": [
        {
          "name": "",
          "type": "uint256"
        }
      ],
      "name": "requests",
      "outputs": [
        {
          "name": "description",
          "type": "string"
        },
        {
          "name": "value",
          "type": "uint256"
        },
        {
          "name": "recipient",
          "type": "address"
        },
        {
          "name": "complete",
          "type": "bool"
        },
        {
          "name": "backerCount",
          "type": "uint256"
        }
      ],
      "payable": false,
      "stateMutability": "view",
      "type": "function"
    },
    {
      "constant": false,
      "inputs": [],
      "name": "pause",
      "outputs": [],
      "payable": false,
      "stateMutability": "nonpayable",
      "type": "function"
    },
    {
      "constant": true,
      "inputs": [],
      "name": "owner",
      "outputs": [
        {
          "name": "",
          "type": "address"
        }
      ],
      "payable": false,
      "stateMutability": "view",
      "type": "function"
    },
    {
      "constant": true,
      "inputs": [],
      "name": "minimumContribution",
      "outputs": [
        {
          "name": "",
          "type": "uint256"
        }
      ],
      "payable": false,
      "stateMutability": "view",
      "type": "function"
    },
    {
      "constant": true,
      "inputs": [],
      "name": "factoryAddress",
      "outputs": [
        {
          "name": "",
          "type": "address"
        }
      ],
      "payable": false,
      "stateMutability": "view",
      "type": "function"
    },
    {
      "constant": true,
      "inputs": [
        {
          "name": "",
          "type": "address"
        }
      ],
      "name": "backers",
      "outputs": [
        {
          "name": "",
          "type": "uint256"
        }
      ],
      "payable": false,
      "stateMutability": "view",
      "type": "function"
    },
    {
      "constant": true,
      "inputs": [],
      "name": "refundFlag",
      "outputs": [
        {
          "name": "",
          "type": "bool"
        }
      ],
      "payable": false,
      "stateMutability": "view",
      "type": "function"
    },
    {
      "constant": false,
      "inputs": [
        {
          "name": "_newOwner",
          "type": "address"
        }
      ],
      "name": "transferOwnership",
      "outputs": [],
      "payable": false,
      "stateMutability": "nonpayable",
      "type": "function"
    },
    {
      "constant": true,
      "inputs": [],
      "name": "amountRemaining",
      "outputs": [
        {
          "name": "",
          "type": "uint256"
        }
      ],
      "payable": false,
      "stateMutability": "view",
      "type": "function"
    },
    {
      "inputs": [
        {
          "name": "_name",
          "type": "string"
        },
        {
          "name": "_minimumContribution",
          "type": "uint256"
        },
        {
          "name": "creator",
          "type": "address"
        },
        {
          "name": "_deadline",
          "type": "uint256"
        },
        {
          "name": "_goal",
          "type": "uint256"
        },
        {
          "name": "_details",
          "type": "string"
        }
      ],
      "payable": false,
      "stateMutability": "nonpayable",
      "type": "constructor"
    },
    {
      "payable": true,
      "stateMutability": "payable",
      "type": "fallback"
    },
    {
      "anonymous": false,
      "inputs": [
        {
          "indexed": false,
          "name": "contributor",
          "type": "address"
        },
        {
          "indexed": false,
          "name": "amount",
          "type": "uint256"
        }
      ],
      "name": "Contribute",
      "type": "event"
    },
    {
      "anonymous": false,
      "inputs": [
        {
          "indexed": false,
          "name": "contributor",
          "type": "address"
        },
        {
          "indexed": false,
          "name": "amount",
          "type": "uint256"
        }
      ],
      "name": "Withdrawal",
      "type": "event"
    },
    {
      "anonymous": false,
      "inputs": [
        {
          "indexed": false,
          "name": "recipient",
          "type": "address"
        },
        {
          "indexed": false,
          "name": "value",
          "type": "uint256"
        }
      ],
      "name": "RequestFinalized",
      "type": "event"
    },
    {
      "anonymous": false,
      "inputs": [],
      "name": "Pause",
      "type": "event"
    },
    {
      "anonymous": false,
      "inputs": [],
      "name": "Unpause",
      "type": "event"
    },
    {
      "anonymous": false,
      "inputs": [
        {
          "indexed": true,
          "name": "previousOwner",
          "type": "address"
        }
      ],
      "name": "OwnershipRenounced",
      "type": "event"
    },
    {
      "anonymous": false,
      "inputs": [
        {
          "indexed": true,
          "name": "previousOwner",
          "type": "address"
        },
        {
          "indexed": true,
          "name": "newOwner",
          "type": "address"
        }
      ],
      "name": "OwnershipTransferred",
      "type": "event"
    },
    {
      "constant": false,
      "inputs": [],
      "name": "contribute",
      "outputs": [],
      "payable": true,
      "stateMutability": "payable",
      "type": "function"
    },
    {
      "constant": false,
      "inputs": [],
      "name": "withdraw",
      "outputs": [],
      "payable": false,
      "stateMutability": "nonpayable",
      "type": "function"
    },
    {
      "constant": false,
      "inputs": [
        {
          "name": "description",
          "type": "string"
        },
        {
          "name": "value",
          "type": "uint256"
        },
        {
          "name": "recipient",
          "type": "address"
        }
      ],
      "name": "createRequest",
      "outputs": [],
      "payable": false,
      "stateMutability": "nonpayable",
      "type": "function"
    },
    {
      "constant": false,
      "inputs": [
        {
          "name": "index",
          "type": "uint256"
        }
      ],
      "name": "approveRequest",
      "outputs": [],
      "payable": false,
      "stateMutability": "nonpayable",
      "type": "function"
    },
    {
      "constant": false,
      "inputs": [
        {
          "name": "index",
          "type": "uint256"
        }
      ],
      "name": "finalizeRequest",
      "outputs": [],
      "payable": false,
      "stateMutability": "nonpayable",
      "type": "function"
    },
    {
      "constant": false,
      "inputs": [],
      "name": "refundBackerFunds",
      "outputs": [],
      "payable": false,
      "stateMutability": "nonpayable",
      "type": "function"
    },
    {
      "constant": true,
      "inputs": [],
      "name": "getSummary",
      "outputs": [
        {
          "name": "",
          "type": "string"
        },
        {
          "name": "",
          "type": "address"
        },
        {
          "name": "",
          "type": "uint256"
        },
        {
          "name": "",
          "type": "uint256"
        },
        {
          "name": "",
          "type": "uint256"
        },
        {
          "name": "",
          "type": "string"
        },
        {
          "name": "",
          "type": "uint256"
        },
        {
          "name": "",
          "type": "uint256"
        },
        {
          "name": "",
          "type": "uint256"
        },
        {
          "name": "",
          "type": "uint256"
        },
        {
          "name": "",
          "type": "uint256"
        }
      ],
      "payable": false,
      "stateMutability": "view",
      "type": "function"
    },
    {
      "constant": true,
      "inputs": [],
      "name": "getCampaignStatus",
      "outputs": [
        {
          "name": "",
          "type": "bool"
        },
        {
          "name": "",
          "type": "bool"
        }
      ],
      "payable": false,
      "stateMutability": "view",
      "type": "function"
    },
    {
      "constant": true,
      "inputs": [],
      "name": "getRequestsCount",
      "outputs": [
        {
          "name": "",
          "type": "uint256"
        }
      ],
      "payable": false,
      "stateMutability": "view",
      "type": "function"
    },
    {
      "constant": false,
      "inputs": [
        {
          "name": "_rating",
          "type": "uint256"
        }
      ],
      "name": "giveRating",
      "outputs": [],
      "payable": false,
      "stateMutability": "nonpayable",
      "type": "function"
    }
  ],
  "bytecode": "0x60806040526000805460a060020a61ffff02191690553480156200002257600080fd5b5060405162001a7a38038062001a7a83398101604090815281516020830151918301516060840151608085015160a086015160008054600160a060020a0319163317905593860195929391929091014283116200007e57600080fd5b85516200009390600390602089019062000258565b5060028054600160a060020a031916600160a060020a0386161790556005859055600683905560078290558051620000d390600490602084019062000258565b50600c805460ff1916905560108054600160a060020a031990811633179182905560118054909116600160a060020a039283161790819055600654604080517fbccec5d1000000000000000000000000000000000000000000000000000000008152888516600482015260016024820152604481019290925251919092169163bccec5d191606480830192600092919082900301818387803b1580156200017957600080fd5b505af11580156200018e573d6000803e3d6000fd5b50505050620001ac84620001b8640100000000026401000000009004565b505050505050620002fd565b600054600160a060020a03163314620001d057600080fd5b620001e481640100000000620001e7810204565b50565b600160a060020a0381161515620001fd57600080fd5b60008054604051600160a060020a03808516939216917f8be0079c531659141344cd1fd0a4f28419497f9722a3daafe3b4186f6b6457e091a360008054600160a060020a031916600160a060020a0392909216919091179055565b828054600181600116156101000203166002900490600052602060002090601f016020900481019282601f106200029b57805160ff1916838001178555620002cb565b82800160010185558215620002cb579182015b82811115620002cb578251825591602001919060010190620002ae565b50620002d9929150620002dd565b5090565b620002fa91905b80821115620002d95760008155600101620002e4565b90565b61176d806200030d6000396000f3006080604052600436106101a05763ffffffff7c01000000000000000000000000000000000000000000000000000000006000350416630344100681146101c857806310550515146101e05780631d565e781461021057806329dcb0cf146102375780632e6bae6b1461024c57806331116a22146102615780633410452a146102eb57806335f0202b146103005780633ccfd60b146103155780633f0795ff1461032a5780633f4ba83a1461033f57806340193883146103545780634051ddac14610369578063481c6a75146104ad578063565974d3146104de5780635c975abb146104f3578063715018a61461051c57806378860268146105315780637b3e5e7b1461054657806380f474f61461055b57806381d12c58146105705780638456cb59146106325780638a9cfd55146106475780638da5cb5b146106b1578063937e09b1146106c6578063966dae0e146106db578063b85dfb80146106f0578063cf56334314610711578063d7bb99ba14610726578063d7d1bbdb1461072e578063dc104f8014610746578063f2fde38b1461075e578063f7ffbd851461077f575b60405133903480156108fc02916000818181858888f1935050505015156101c657600080fd5b005b3480156101d457600080fd5b506101c6600435610794565b3480156101ec57600080fd5b506101f56108f5565b60408051921515835290151560208301528051918290030190f35b34801561021c57600080fd5b5061022561090d565b60408051918252519081900360200190f35b34801561024357600080fd5b50610225610913565b34801561025857600080fd5b506101c6610919565b34801561026d57600080fd5b5061027661095f565b6040805160208082528351818301528351919283929083019185019080838360005b838110156102b0578181015183820152602001610298565b50505050905090810190601f1680156102dd5780820380516001836020036101000a031916815260200191505b509250505060405180910390f35b3480156102f757600080fd5b506102256109ed565b34801561030c57600080fd5b506102256109f4565b34801561032157600080fd5b506101c66109fa565b34801561033657600080fd5b50610225610bf9565b34801561034b57600080fd5b506101c6610bff565b34801561036057600080fd5b50610225610c76565b34801561037557600080fd5b5061037e610c7c565b60405180806020018c600160a060020a0316600160a060020a031681526020018b81526020018a81526020018981526020018060200188815260200187815260200186815260200185815260200184815260200183810383528e818151815260200191508051906020019080838360005b838110156104075781810151838201526020016103ef565b50505050905090810190601f1680156104345780820380516001836020036101000a031916815260200191505b5083810382528951815289516020918201918b019080838360005b8381101561046757818101518382015260200161044f565b50505050905090810190601f1680156104945780820380516001836020036101000a031916815260200191505b509d505050505050505050505050505060405180910390f35b3480156104b957600080fd5b506104c2610e26565b60408051600160a060020a039092168252519081900360200190f35b3480156104ea57600080fd5b50610276610e35565b3480156104ff57600080fd5b50610508610e90565b604080519115158252519081900360200190f35b34801561052857600080fd5b506101c6610ea0565b34801561053d57600080fd5b50610225610f0c565b34801561055257600080fd5b50610225610f12565b34801561056757600080fd5b50610225610f18565b34801561057c57600080fd5b50610588600435610f1e565b604051808060200186815260200185600160a060020a0316600160a060020a0316815260200184151515158152602001838152602001828103825287818151815260200191508051906020019080838360005b838110156105f35781810151838201526020016105db565b50505050905090810190601f1680156106205780820380516001836020036101000a031916815260200191505b50965050505050505060405180910390f35b34801561063e57600080fd5b506101c6610ff8565b34801561065357600080fd5b506040805160206004803580820135601f81018490048402850184019095528484526101c69436949293602493928401919081908401838280828437509497505084359550505050602090910135600160a060020a03169050611074565b3480156106bd57600080fd5b506104c26111f4565b3480156106d257600080fd5b50610225611203565b3480156106e757600080fd5b506104c2611209565b3480156106fc57600080fd5b50610225600160a060020a0360043516611218565b34801561071d57600080fd5b5061050861122a565b6101c6611233565b34801561073a57600080fd5b506101c6600435611426565b34801561075257600080fd5b506101c66004356114bb565b34801561076a57600080fd5b506101c6600160a060020a0360043516611569565b34801561078b57600080fd5b5061022561158c565b60008054600160a060020a031633146107ac57600080fd5b600c5460ff16156107bc57600080fd5b60018054839081106107ca57fe5b906000526020600020906005020190506107f0600260085461159290919063ffffffff16565b6003820154116107ff57600080fd5b600281015460a060020a900460ff161561081857600080fd5b60028101546001820154604051600160a060020a039092169181156108fc0291906000818181858888f19350505050158015610858573d6000803e3d6000fd5b506001810154600f546108709163ffffffff6115a916565b600f556001810154600e5461088a9163ffffffff6115a916565b600e5560028101805460a060020a60ff02191660a060020a1790819055600182015460408051600160a060020a039093168352602083019190915280517f15cf4d7980b6be9411b518575337aca2b746a23acbd3978bec4a1eb23af1415c9281900390910190a15050565b600054600c5460ff60a860020a909204821691169091565b60085481565b60065481565b600054600160a060020a0316331461093057600080fd5b600654421180156109455750600754600d5410155b151561095057600080fd5b600c805460ff19166001179055565b6003805460408051602060026001851615610100026000190190941693909304601f810184900484028201840190925281815292918301828280156109e55780601f106109ba576101008083540402835291602001916109e5565b820191906000526020600020905b8154815290600101906020018083116109c857829003601f168201915b505050505081565b6001545b90565b60095481565b336000908152601260205260408120548110610a1557600080fd5b60005460a060020a900460ff1615610a2c57600080fd5b6000805460a060020a60ff02191660a060020a17905560065442111580610a565750600754600d54105b80610a635750600c5460ff165b1515610a6e57600080fd5b503360009081526012602052604081208054919055600c5460ff1615610abc57610ab5600d54610aa9600f54846115bb90919063ffffffff16565b9063ffffffff61159216565b9050610b7d565b600d54610acf908263ffffffff6115a916565b600d55600f54610ae5908263ffffffff6115a916565b600f55600854610afc90600163ffffffff6115a916565b600855601154604080517f77db17870000000000000000000000000000000000000000000000000000000081523360048201529051600160a060020a03909216916377db17879160248082019260009290919082900301818387803b158015610b6457600080fd5b505af1158015610b78573d6000803e3d6000fd5b505050505b604051339082156108fc029083906000818181858888f19350505050158015610baa573d6000803e3d6000fd5b50604080513381526020810183905281517f7fcf532c15f0a6db0bd6d0e038bea71d30d808c7d98cb3bf7268a95bf5081b65929181900390910190a1506000805460a060020a60ff0219169055565b600a5481565b600054600160a060020a03163314610c1657600080fd5b60005460a860020a900460ff161515610c2e57600080fd5b6000805475ff000000000000000000000000000000000000000000191681556040517f7805862f689e2f13df9f062ff482ad3ad112aca9e0847911ed832e158c525b339190a1565b60075481565b6060600080600080606060008060008060006003600260009054906101000a9004600160a060020a03166005546006546007546004600d5430600160a060020a031631600180549050600b546008548a8054600181600116156101000203166002900480601f016020809104026020016040519081016040528092919081815260200182805460018160011615610100020316600290048015610d605780601f10610d3557610100808354040283529160200191610d60565b820191906000526020600020905b815481529060010190602001808311610d4357829003601f168201915b50505050509a50858054600181600116156101000203166002900480601f016020809104026020016040519081016040528092919081815260200182805460018160011615610100020316600290048015610dfc5780601f10610dd157610100808354040283529160200191610dfc565b820191906000526020600020905b815481529060010190602001808311610ddf57829003601f168201915b505050505095509a509a509a509a509a509a509a509a509a509a509a50909192939495969798999a565b600254600160a060020a031681565b6004805460408051602060026001851615610100026000190190941693909304601f810184900484028201840190925281815292918301828280156109e55780601f106109ba576101008083540402835291602001916109e5565b60005460a860020a900460ff1681565b600054600160a060020a03163314610eb757600080fd5b60008054604051600160a060020a03909116917ff8df31144d9c2f0f6b59d69b8b98abd5459d07f2742c4df920b25aae33c6482091a26000805473ffffffffffffffffffffffffffffffffffffffff19169055565b600e5481565b600d5481565b600b5481565b6001805482908110610f2c57fe5b60009182526020918290206005919091020180546040805160026001841615610100026000190190931692909204601f810185900485028301850190915280825291935091839190830182828015610fc55780601f10610f9a57610100808354040283529160200191610fc5565b820191906000526020600020905b815481529060010190602001808311610fa857829003601f168201915b505050506001830154600284015460039094015492939092600160a060020a038216925060a060020a90910460ff169085565b600054600160a060020a0316331461100f57600080fd5b60005460a860020a900460ff161561102657600080fd5b6000805475ff000000000000000000000000000000000000000000191660a860020a1781556040517f6985a02210a168e66602d3235cb6db0e70f92b3ba4d376a33c0f3d9434bff6259190a1565b61107c61166e565b600054600160a060020a0316331461109357600080fd5b600654421180156110a85750600754600d5410155b15156110b357600080fd5b60005460a860020a900460ff16156110ca57600080fd5b600c5460ff16156110da57600080fd5b600e546110ed908463ffffffff6115e416565b600e819055600f54101561110057600080fd5b506040805160a0810182528481526020808201859052600160a060020a03841692820192909252600060608201819052608082018190526001805480820180835591909252825180519394919385936005027fb10e2d527612073b26eecdfd717e6a320cf44b4afac2b0732d9fcbe2b7fa0cf601926111839284929101906116a9565b506020820151600182015560408201516002820180546060850151151560a060020a0260a060020a60ff0219600160a060020a0390941673ffffffffffffffffffffffffffffffffffffffff1990921691909117929092169190911790556080909101516003909101555050505050565b600054600160a060020a031681565b60055481565b601054600160a060020a031681565b60126020526000908152604090205481565b600c5460ff1681565b6000805460a860020a900460ff161561124b57600080fd5b60005460a060020a900460ff161561126257600080fd5b6000805460a060020a60ff02191660a060020a179055600554341080159061128c57506006544211155b151561129757600080fd5b600d546112aa903463ffffffff6115e416565b9050678ac7230489e800008111156112c157600080fd5b3360009081526012602052604090205415156112ef576008546112eb90600163ffffffff6115e416565b6008555b3360009081526012602052604090205461130f903463ffffffff6115e416565b33600090815260126020526040902055600d54611332903463ffffffff6115e416565b600d55600f54611348903463ffffffff6115e416565b600f55601154600654604080517fbccec5d100000000000000000000000000000000000000000000000000000000815233600482015260026024820152604481019290925251600160a060020a039092169163bccec5d19160648082019260009290919082900301818387803b1580156113c157600080fd5b505af11580156113d5573d6000803e3d6000fd5b50506040805133815234602082015281517f906faaf913a60f38b5e8f2d6f5b163239bac2d994fa1a5d21751a51587a940579450908190039091019150a1506000805460a060020a60ff0219169055565b33600090815260126020526040812054811061144157600080fd5b600180548390811061144f57fe5b600091825260208083203384526004600590930201918201905260409091205490915060ff161561147f57600080fd5b3360009081526004820160205260409020805460ff1916600190811790915560038201546114b29163ffffffff6115e416565b60039091015550565b33600090815260126020526040812054116114d557600080fd5b600654421180156114ea5750600754600d5410155b15156114f557600080fd5b336000908152601360205260409020541561150f57600080fd5b33600090815260136020526040902081905560095461153590600163ffffffff6115e416565b600955600a5461154b908263ffffffff6115e416565b600a819055600954611563919063ffffffff61159216565b600b5550565b600054600160a060020a0316331461158057600080fd5b611589816115f1565b50565b600f5481565b6000818381151561159f57fe5b0490505b92915050565b6000828211156115b557fe5b50900390565b60008215156115cc575060006115a3565b508181028183828115156115dc57fe5b04146115a357fe5b818101828110156115a357fe5b600160a060020a038116151561160657600080fd5b60008054604051600160a060020a03808516939216917f8be0079c531659141344cd1fd0a4f28419497f9722a3daafe3b4186f6b6457e091a36000805473ffffffffffffffffffffffffffffffffffffffff1916600160a060020a0392909216919091179055565b60a06040519081016040528060608152602001600081526020016000600160a060020a03168152602001600015158152602001600081525090565b828054600181600116156101000203166002900490600052602060002090601f016020900481019282601f106116ea57805160ff1916838001178555611717565b82800160010185558215611717579182015b828111156117175782518255916020019190600101906116fc565b50611723929150611727565b5090565b6109f191905b80821115611723576000815560010161172d5600a165627a7a72305820ffe3d639e6aa088671e44a48fea98062ebbf35de1ac812208c74e4f43bc7431f0029",
  "source": "/**\n * @title Campaign\n * @section DESCRIPTION\n * Campaign contract created for every new campaign, by invoking the createCampaign(args..)\n * in CampaignFactory. Caller of createCamapign will be the manager of the Campign instance.\n */\n\npragma solidity ^0.4.24;\n\nimport \"./SafeMath.sol\";\nimport \"./Ownable.sol\";\nimport \"./ReentrancyGuard.sol\";\nimport \"./Pausable.sol\";\nimport \"./CampaignFactory.sol\";\n\ncontract Campaign is Ownable, ReentrancyGuard, Pausable {\n\n    using SafeMath for uint256;\n    \n    struct Request {\n        string description;\n        uint value;\n        address recipient;\n        bool complete;\n        uint backerCount;\n        mapping(address => bool) backers;\n    }\n    \n    Request[] public requests;\n    address public manager;\n    string public nameOfCampaign;\n    string public details;\n    uint public minimumContribution;\n    uint public deadline;\n    uint public goal;\n    uint public backersCount;\n    uint public ratersCount;\n    uint public ratingSum;\n    uint public rating;\n    bool public refundFlag;\n    uint public amountRaised;\n    uint public requestedAmount;\n    uint public amountRemaining;\n    address public factoryAddress;\n\n    // Limiting contributions to 10 ETH\n    uint constant MAX_LIMIT_FOR_CONTRIB = 10000000000000000000;\n\n    CampaignFactory factory;\n\n    mapping(address => uint256) public backers;\n    mapping(address => uint256) private ratingFrombackers;\n\n\n    event Contribute(address contributor, uint amount);\n    event Withdrawal(address contributor, uint amount);\n    event RequestFinalized(address recipient, uint value);\n\n    /**\n    * @dev Modifier to check if the backer has contributed\n    */\n    modifier validBacker() {\n        require(backers[msg.sender] > 0);\n        _;\n    }\n\n    /**\n    * @dev Modifier to check if deadline has passed and the campaign has reached its goal\n    */\n    modifier postDeadline() {\n        require(block.timestamp > deadline && amountRaised >= goal);\n        _;\n    }\n\n    /**\n    * @dev Constructor to create a Campaign\n    */\n    constructor(string _name, uint _minimumContribution, address creator, uint _deadline, uint _goal, string _details) public {\n\n        require(block.timestamp < _deadline);\n        nameOfCampaign = _name;\n        manager = creator;\n        minimumContribution = _minimumContribution;\n        deadline = _deadline;\n        goal = _goal;\n        details = _details;\n        refundFlag = false;\n        factoryAddress = msg.sender;\n        factory = CampaignFactory(factoryAddress);\n\n        factory.addToList(creator, 1, deadline);\n        // Otherwise the owner of the Campaign instance will always be the CampaignFactory\n        transferOwnership(creator);\n    }\n    \n    /**\n    * @dev Payable function recieve funds from backers\n    */\n    function contribute() public payable whenNotPaused nonReentrant {\n        require(msg.value >= minimumContribution && block.timestamp <= deadline);\n        uint checkAmount = amountRaised.add(msg.value);\n\n        if(checkAmount > MAX_LIMIT_FOR_CONTRIB) {\n            revert();\n        }\n\n        if(backers[msg.sender] == 0) {\n            backersCount = backersCount.add(1);            \n        }\n\n        backers[msg.sender] = backers[msg.sender].add(msg.value);\n        amountRaised = amountRaised.add(msg.value);\n        amountRemaining = amountRemaining.add(msg.value);\n        factory.addToList(msg.sender, 2, deadline);\n        emit Contribute(msg.sender, msg.value);\n    }\n\n    /**\n    * @dev Function to withdraw funds from the campaign\n    */\n    function withdraw() external validBacker nonReentrant {\n        require(block.timestamp <= deadline || amountRaised < goal || refundFlag);\n        uint amountWithdrawn = backers[msg.sender];\n        backers[msg.sender] = 0;\n\n        if(refundFlag) {\n            amountWithdrawn = amountWithdrawn.mul(amountRemaining).div(amountRaised);\n        }\n\n        else {\n            amountRaised = amountRaised.sub(amountWithdrawn);\n            amountRemaining = amountRemaining.sub(amountWithdrawn);\n            backersCount = backersCount.sub(1);\n            factory.deleteFromList(msg.sender);\n        }\n\n        msg.sender.transfer(amountWithdrawn);\n        emit Withdrawal(msg.sender, amountWithdrawn);\n    }\n\n    /**\n    * @dev Create a request to utilize the funds raised\n    * @param description Description of the Request\n    * @param value Value in wei for the particular request\n    * @param recipient Recipient address of the request\n    */    \n    function createRequest(string description, uint value, address recipient) public onlyOwner postDeadline whenNotPaused{\n        require(!refundFlag);\n        requestedAmount = requestedAmount.add(value);\n        if(requestedAmount > amountRemaining) {\n            revert();\n        }\n\n        Request memory newRequest = Request({\n            description: description,\n            value: value,\n            recipient: recipient,\n            complete: false,\n            backerCount:  0\n        });\n        \n        requests.push(newRequest);\n    }\n\n    /**\n    * @dev Backers of the campaign can approve the request\n    * @param index Index of the request for approval\n    */    \n    function approveRequest(uint index) public validBacker {\n        Request storage request = requests[index];\n        require(!request.backers[msg.sender]);\n\n        request.backers[msg.sender] = true;\n        request.backerCount = request.backerCount.add(1);\n    }\n\n    /**\n    * @dev Finalizing the request for funds if more than 50% of the backers approve\n    * @param index Index of the request for approval\n    */    \n    function finalizeRequest(uint index) public onlyOwner {\n        require(!refundFlag);\n        Request storage request = requests[index];\n        require(request.backerCount > (backersCount.div(2)));\n        require(!request.complete);\n        \n        request.recipient.transfer(request.value);\n        amountRemaining = amountRemaining.sub(request.value);\n        requestedAmount = requestedAmount.sub(request.value);\n        request.complete = true;\n        emit RequestFinalized(request.recipient, request.value);\n    }\n\n    /**\n    * @dev Owner can activate the refund flag\n    */\n    function refundBackerFunds() public onlyOwner postDeadline {\n        refundFlag = true;\n    }\n\n    /**\n    * @dev Retrieve summary of the Campaign\n    * @return Multiple parameters of the Campaign\n    */\n    function getSummary() public view returns(string, address, uint, uint, uint, string, uint, uint, uint, uint, uint) {\n        return(nameOfCampaign, manager, minimumContribution, deadline, goal, details, amountRaised, address(this).balance, requests.length, rating, backersCount);\n    }\n\n    /**\n    * @dev Retrieve status of the Campaign\n    * @return bool If contract is paused or not\n    * @return bool If refundFlag has been activated or not\n    */\n    function getCampaignStatus() public view returns(bool, bool) {\n        return(paused, refundFlag);\n    }\n\n    /**\n    * @dev Retrieve the number of Requests in the Campaign\n    * @return uint The number of requests\n    */\n    function getRequestsCount() public view returns (uint) {\n        return requests.length;\n    }\n\n    /**\n    * @dev Store rating from a valid backer of the campaign\n    * @param _rating Rating ranges from 1 - 5\n    */\n    function giveRating(uint _rating) public validBacker postDeadline {\n        require(ratingFrombackers[msg.sender] == 0);\n        ratingFrombackers[msg.sender] = _rating;\n        ratersCount = ratersCount.add(1);\n        ratingSum = ratingSum.add(_rating);\n        rating = ratingSum.div(ratersCount);\n    }\n\n    /**\n    * @dev payable fallback\n    */\n    function () public payable {\n        if (!msg.sender.send(msg.value)) {\n            revert();\n        }\n    }\n}\n",
  "sourcePath": "/home/vagrant/code/CrowdCoin/contracts/Campaign.sol",
  "compiler": {
    "name": "solc",
    "version": "0.4.24+commit.e67f0147.Emscripten.clang"
  },
  "schemaVersion": "2.0.1",
  "updatedAt": "2018-08-25T10:08:52.457Z"
}