{
  "contractName": "CampaignFactory",
  "abi": [
    {
      "constant": true,
      "inputs": [
        {
          "name": "",
          "type": "address"
        },
        {
          "name": "",
          "type": "uint256"
        }
      ],
      "name": "backersList",
      "outputs": [
        {
          "name": "addrOfCampaign",
          "type": "address"
        },
        {
          "name": "deadline",
          "type": "uint256"
        }
      ],
      "payable": false,
      "stateMutability": "view",
      "type": "function"
    },
    {
      "constant": true,
      "inputs": [
        {
          "name": "",
          "type": "uint256"
        }
      ],
      "name": "deployedCampaigns",
      "outputs": [
        {
          "name": "addrOfCampaign",
          "type": "address"
        },
        {
          "name": "deadline",
          "type": "uint256"
        }
      ],
      "payable": false,
      "stateMutability": "view",
      "type": "function"
    },
    {
      "constant": false,
      "inputs": [],
      "name": "unpause",
      "outputs": [],
      "payable": false,
      "stateMutability": "nonpayable",
      "type": "function"
    },
    {
      "constant": true,
      "inputs": [],
      "name": "paused",
      "outputs": [
        {
          "name": "",
          "type": "bool"
        }
      ],
      "payable": false,
      "stateMutability": "view",
      "type": "function"
    },
    {
      "constant": false,
      "inputs": [],
      "name": "renounceOwnership",
      "outputs": [],
      "payable": false,
      "stateMutability": "nonpayable",
      "type": "function"
    },
    {
      "constant": false,
      "inputs": [],
      "name": "pause",
      "outputs": [],
      "payable": false,
      "stateMutability": "nonpayable",
      "type": "function"
    },
    {
      "constant": true,
      "inputs": [],
      "name": "owner",
      "outputs": [
        {
          "name": "",
          "type": "address"
        }
      ],
      "payable": false,
      "stateMutability": "view",
      "type": "function"
    },
    {
      "constant": false,
      "inputs": [
        {
          "name": "_newOwner",
          "type": "address"
        }
      ],
      "name": "transferOwnership",
      "outputs": [],
      "payable": false,
      "stateMutability": "nonpayable",
      "type": "function"
    },
    {
      "constant": true,
      "inputs": [
        {
          "name": "",
          "type": "address"
        },
        {
          "name": "",
          "type": "uint256"
        }
      ],
      "name": "campaignCreatorsList",
      "outputs": [
        {
          "name": "addrOfCampaign",
          "type": "address"
        },
        {
          "name": "deadline",
          "type": "uint256"
        }
      ],
      "payable": false,
      "stateMutability": "view",
      "type": "function"
    },
    {
      "anonymous": false,
      "inputs": [
        {
          "indexed": false,
          "name": "campaignAddress",
          "type": "address"
        },
        {
          "indexed": false,
          "name": "name",
          "type": "string"
        },
        {
          "indexed": false,
          "name": "minimum",
          "type": "uint256"
        },
        {
          "indexed": false,
          "name": "creator",
          "type": "address"
        },
        {
          "indexed": false,
          "name": "deadline",
          "type": "uint256"
        },
        {
          "indexed": false,
          "name": "goal",
          "type": "uint256"
        },
        {
          "indexed": false,
          "name": "details",
          "type": "string"
        }
      ],
      "name": "NewCampaign",
      "type": "event"
    },
    {
      "anonymous": false,
      "inputs": [],
      "name": "Pause",
      "type": "event"
    },
    {
      "anonymous": false,
      "inputs": [],
      "name": "Unpause",
      "type": "event"
    },
    {
      "anonymous": false,
      "inputs": [
        {
          "indexed": true,
          "name": "previousOwner",
          "type": "address"
        }
      ],
      "name": "OwnershipRenounced",
      "type": "event"
    },
    {
      "anonymous": false,
      "inputs": [
        {
          "indexed": true,
          "name": "previousOwner",
          "type": "address"
        },
        {
          "indexed": true,
          "name": "newOwner",
          "type": "address"
        }
      ],
      "name": "OwnershipTransferred",
      "type": "event"
    },
    {
      "constant": false,
      "inputs": [
        {
          "name": "name",
          "type": "string"
        },
        {
          "name": "minimum",
          "type": "uint256"
        },
        {
          "name": "_deadline",
          "type": "uint256"
        },
        {
          "name": "_goal",
          "type": "uint256"
        },
        {
          "name": "details",
          "type": "string"
        }
      ],
      "name": "createCampaign",
      "outputs": [],
      "payable": false,
      "stateMutability": "nonpayable",
      "type": "function"
    },
    {
      "constant": true,
      "inputs": [
        {
          "name": "user",
          "type": "address"
        },
        {
          "name": "code",
          "type": "uint256"
        }
      ],
      "name": "getCampaigns",
      "outputs": [
        {
          "name": "ongoingCampaigns",
          "type": "address[]"
        },
        {
          "name": "completedCampaigns",
          "type": "address[]"
        }
      ],
      "payable": false,
      "stateMutability": "view",
      "type": "function"
    },
    {
      "constant": false,
      "inputs": [
        {
          "name": "user",
          "type": "address"
        },
        {
          "name": "creatorOrBacker",
          "type": "uint256"
        },
        {
          "name": "_deadline",
          "type": "uint256"
        }
      ],
      "name": "addToList",
      "outputs": [],
      "payable": false,
      "stateMutability": "nonpayable",
      "type": "function"
    },
    {
      "constant": false,
      "inputs": [
        {
          "name": "user",
          "type": "address"
        }
      ],
      "name": "deleteFromList",
      "outputs": [],
      "payable": false,
      "stateMutability": "nonpayable",
      "type": "function"
    }
  ],
  "bytecode": "0x608060405260008060146101000a81548160ff021916908315150217905550336000806101000a81548173ffffffffffffffffffffffffffffffffffffffff021916908373ffffffffffffffffffffffffffffffffffffffff1602179055506145298061006d6000396000f300608060405260043610620000d3576000357c0100000000000000000000000000000000000000000000000000000000900463ffffffff16806324b48f3214620000d8578063339d50a5146200016f5780633d501f2a14620001e65780633f4ba83a14620002d75780635c975abb14620002f1578063715018a6146200032357806377db1787146200033d5780638456cb5914620003835780638da5cb5b146200039d578063bccec5d114620003f7578063e06691351462000451578063f2fde38b1462000521578063fa027da41462000567575b600080fd5b348015620000e557600080fd5b5062000126600480360381019080803573ffffffffffffffffffffffffffffffffffffffff16906020019092919080359060200190929190505050620005fe565b604051808373ffffffffffffffffffffffffffffffffffffffff1673ffffffffffffffffffffffffffffffffffffffff1681526020018281526020019250505060405180910390f35b3480156200017c57600080fd5b506200019d600480360381019080803590602001909291905050506200065f565b604051808373ffffffffffffffffffffffffffffffffffffffff1673ffffffffffffffffffffffffffffffffffffffff1681526020018281526020019250505060405180910390f35b348015620001f357600080fd5b5062000234600480360381019080803573ffffffffffffffffffffffffffffffffffffffff16906020019092919080359060200190929190505050620006b3565b604051808060200180602001838103835285818151815260200191508051906020019060200280838360005b838110156200027d57808201518184015260208101905062000260565b50505050905001838103825284818151815260200191508051906020019060200280838360005b83811015620002c1578082015181840152602081019050620002a4565b5050505090500194505050505060405180910390f35b348015620002e457600080fd5b50620002ef620009aa565b005b348015620002fe57600080fd5b506200030962000a6a565b604051808215151515815260200191505060405180910390f35b3480156200033057600080fd5b506200033b62000a7d565b005b3480156200034a57600080fd5b5062000381600480360381019080803573ffffffffffffffffffffffffffffffffffffffff16906020019092919050505062000b80565b005b3480156200039057600080fd5b506200039b62000d68565b005b348015620003aa57600080fd5b50620003b562000e2a565b604051808273ffffffffffffffffffffffffffffffffffffffff1673ffffffffffffffffffffffffffffffffffffffff16815260200191505060405180910390f35b3480156200040457600080fd5b506200044f600480360381019080803573ffffffffffffffffffffffffffffffffffffffff169060200190929190803590602001909291908035906020019092919050505062000e4f565b005b3480156200045e57600080fd5b506200051f600480360381019080803590602001908201803590602001908080601f0160208091040260200160405190810160405280939291908181526020018383808284378201915050505050509192919290803590602001909291908035906020019092919080359060200190929190803590602001908201803590602001908080601f0160208091040260200160405190810160405280939291908181526020018383808284378201915050505050509192919290505050620012eb565b005b3480156200052e57600080fd5b5062000565600480360381019080803573ffffffffffffffffffffffffffffffffffffffff169060200190929190505050620016b4565b005b3480156200057457600080fd5b50620005b5600480360381019080803573ffffffffffffffffffffffffffffffffffffffff169060200190929190803590602001909291905050506200171e565b604051808373ffffffffffffffffffffffffffffffffffffffff1673ffffffffffffffffffffffffffffffffffffffff1681526020018281526020019250505060405180910390f35b6002602052816000526040600020818154811015156200061a57fe5b9060005260206000209060020201600091509150508060000160009054906101000a900473ffffffffffffffffffffffffffffffffffffffff16908060010154905082565b6003818154811015156200066f57fe5b90600052602060002090600202016000915090508060000160009054906101000a900473ffffffffffffffffffffffffffffffffffffffff16908060010154905082565b6060806060600084141562000784576003805480602002602001604051908101604052809291908181526020016000905b828210156200077857838290600052602060002090600202016040805190810160405290816000820160009054906101000a900473ffffffffffffffffffffffffffffffffffffffff1673ffffffffffffffffffffffffffffffffffffffff1673ffffffffffffffffffffffffffffffffffffffff16815260200160018201548152505081526020019060010190620006e4565b50505050905062000993565b60018414156200088d57600160008673ffffffffffffffffffffffffffffffffffffffff1673ffffffffffffffffffffffffffffffffffffffff168152602001908152602001600020805480602002602001604051908101604052809291908181526020016000905b828210156200088157838290600052602060002090600202016040805190810160405290816000820160009054906101000a900473ffffffffffffffffffffffffffffffffffffffff1673ffffffffffffffffffffffffffffffffffffffff1673ffffffffffffffffffffffffffffffffffffffff16815260200160018201548152505081526020019060010190620007ed565b50505050905062000992565b60028414156200099157600260008673ffffffffffffffffffffffffffffffffffffffff1673ffffffffffffffffffffffffffffffffffffffff168152602001908152602001600020805480602002602001604051908101604052809291908181526020016000905b828210156200098a57838290600052602060002090600202016040805190810160405290816000820160009054906101000a900473ffffffffffffffffffffffffffffffffffffffff1673ffffffffffffffffffffffffffffffffffffffff1673ffffffffffffffffffffffffffffffffffffffff16815260200160018201548152505081526020019060010190620008f6565b5050505090505b5b5b6200099e816200177f565b92509250509250929050565b6000809054906101000a900473ffffffffffffffffffffffffffffffffffffffff1673ffffffffffffffffffffffffffffffffffffffff163373ffffffffffffffffffffffffffffffffffffffff1614151562000a0657600080fd5b600060149054906101000a900460ff16151562000a2257600080fd5b60008060146101000a81548160ff0219169083151502179055507f7805862f689e2f13df9f062ff482ad3ad112aca9e0847911ed832e158c525b3360405160405180910390a1565b600060149054906101000a900460ff1681565b6000809054906101000a900473ffffffffffffffffffffffffffffffffffffffff1673ffffffffffffffffffffffffffffffffffffffff163373ffffffffffffffffffffffffffffffffffffffff1614151562000ad957600080fd5b6000809054906101000a900473ffffffffffffffffffffffffffffffffffffffff1673ffffffffffffffffffffffffffffffffffffffff167ff8df31144d9c2f0f6b59d69b8b98abd5459d07f2742c4df920b25aae33c6482060405160405180910390a260008060006101000a81548173ffffffffffffffffffffffffffffffffffffffff021916908373ffffffffffffffffffffffffffffffffffffffff160217905550565b60008062000b8d62001a50565b600260008573ffffffffffffffffffffffffffffffffffffffff1673ffffffffffffffffffffffffffffffffffffffff1681526020019081526020016000209250600091505b828054905082101562000d1157828281548110151562000bef57fe5b90600052602060002090600202016040805190810160405290816000820160009054906101000a900473ffffffffffffffffffffffffffffffffffffffff1673ffffffffffffffffffffffffffffffffffffffff1673ffffffffffffffffffffffffffffffffffffffff1681526020016001820154815250509050806000015173ffffffffffffffffffffffffffffffffffffffff163373ffffffffffffffffffffffffffffffffffffffff16141562000cf357828281548110151562000cb257fe5b9060005260206000209060020201600080820160006101000a81549073ffffffffffffffffffffffffffffffffffffffff0219169055600182016000905550505b62000d096001836200193890919063ffffffff16565b915062000bd3565b82600260008673ffffffffffffffffffffffffffffffffffffffff1673ffffffffffffffffffffffffffffffffffffffff16815260200190815260200160002090805462000d6192919062001a80565b5050505050565b6000809054906101000a900473ffffffffffffffffffffffffffffffffffffffff1673ffffffffffffffffffffffffffffffffffffffff163373ffffffffffffffffffffffffffffffffffffffff1614151562000dc457600080fd5b600060149054906101000a900460ff1615151562000de157600080fd5b6001600060146101000a81548160ff0219169083151502179055507f6985a02210a168e66602d3235cb6db0e70f92b3ba4d376a33c0f3d9434bff62560405160405180910390a1565b6000809054906101000a900473ffffffffffffffffffffffffffffffffffffffff1681565b62000e5962001a50565b600080600062000e6862001a50565b60008062000e7562001a50565b60408051908101604052803373ffffffffffffffffffffffffffffffffffffffff1681526020018a81525097506001965060018a1415620010c457600160008c73ffffffffffffffffffffffffffffffffffffffff1673ffffffffffffffffffffffffffffffffffffffff1681526020019081526020016000209550600094505b858054905085101562000fdd57858581548110151562000f1257fe5b90600052602060002090600202016040805190810160405290816000820160009054906101000a900473ffffffffffffffffffffffffffffffffffffffff1673ffffffffffffffffffffffffffffffffffffffff1673ffffffffffffffffffffffffffffffffffffffff1681526020016001820154815250509350836000015173ffffffffffffffffffffffffffffffffffffffff16886000015173ffffffffffffffffffffffffffffffffffffffff16141562000fcf57600096505b848060010195505062000ef6565b600115158715151415620010be5785889080600181540180825580915050906001820390600052602060002090600202016000909192909190915060008201518160000160006101000a81548173ffffffffffffffffffffffffffffffffffffffff021916908373ffffffffffffffffffffffffffffffffffffffff1602179055506020820151816001015550505085600160008d73ffffffffffffffffffffffffffffffffffffffff1673ffffffffffffffffffffffffffffffffffffffff168152602001908152602001600020908054620010bc92919062001a80565b505b620012de565b60028a1415620012dd57600260008c73ffffffffffffffffffffffffffffffffffffffff1673ffffffffffffffffffffffffffffffffffffffff1681526020019081526020016000209250600091505b8280549050821015620011fb5782828154811015156200113057fe5b90600052602060002090600202016040805190810160405290816000820160009054906101000a900473ffffffffffffffffffffffffffffffffffffffff1673ffffffffffffffffffffffffffffffffffffffff1673ffffffffffffffffffffffffffffffffffffffff1681526020016001820154815250509050806000015173ffffffffffffffffffffffffffffffffffffffff16886000015173ffffffffffffffffffffffffffffffffffffffff161415620011ed57600096505b818060010192505062001114565b600115158715151415620012dc5782889080600181540180825580915050906001820390600052602060002090600202016000909192909190915060008201518160000160006101000a81548173ffffffffffffffffffffffffffffffffffffffff021916908373ffffffffffffffffffffffffffffffffffffffff1602179055506020820151816001015550505082600260008d73ffffffffffffffffffffffffffffffffffffffff1673ffffffffffffffffffffffffffffffffffffffff168152602001908152602001600020908054620012da92919062001a80565b505b5b5b5050505050505050505050565b6000620012f762001a50565b600060149054906101000a900460ff161515156200131457600080fd5b8686338787876200132462001b4e565b80806020018781526020018673ffffffffffffffffffffffffffffffffffffffff1673ffffffffffffffffffffffffffffffffffffffff16815260200185815260200184815260200180602001838103835289818151815260200191508051906020019080838360005b83811015620013ab5780820151818401526020810190506200138e565b50505050905090810190601f168015620013d95780820380516001836020036101000a031916815260200191505b50838103825284818151815260200191508051906020019080838360005b8381101562001414578082015181840152602081019050620013f7565b50505050905090810190601f168015620014425780820380516001836020036101000a031916815260200191505b5098505050505050505050604051809103906000f0801580156200146a573d6000803e3d6000fd5b50915060408051908101604052808373ffffffffffffffffffffffffffffffffffffffff1681526020018681525090506003819080600181540180825580915050906001820390600052602060002090600202016000909192909190915060008201518160000160006101000a81548173ffffffffffffffffffffffffffffffffffffffff021916908373ffffffffffffffffffffffffffffffffffffffff160217905550602082015181600101555050507f572a30ec60e6ea33ece663babd089d3f436c5c78958c0b39876b19a51018cb6f82888833898989604051808873ffffffffffffffffffffffffffffffffffffffff1673ffffffffffffffffffffffffffffffffffffffff168152602001806020018781526020018673ffffffffffffffffffffffffffffffffffffffff1673ffffffffffffffffffffffffffffffffffffffff16815260200185815260200184815260200180602001838103835289818151815260200191508051906020019080838360005b8381101562001600578082015181840152602081019050620015e3565b50505050905090810190601f1680156200162e5780820380516001836020036101000a031916815260200191505b50838103825284818151815260200191508051906020019080838360005b83811015620016695780820151818401526020810190506200164c565b50505050905090810190601f168015620016975780820380516001836020036101000a031916815260200191505b50995050505050505050505060405180910390a150505050505050565b6000809054906101000a900473ffffffffffffffffffffffffffffffffffffffff1673ffffffffffffffffffffffffffffffffffffffff163373ffffffffffffffffffffffffffffffffffffffff161415156200171057600080fd5b6200171b8162001955565b50565b6001602052816000526040600020818154811015156200173a57fe5b9060005260206000209060020201600091509150508060000160009054906101000a900473ffffffffffffffffffffffffffffffffffffffff16908060010154905082565b6060806000806000806200179262001a50565b8751925082604051908082528060200260200182016040528015620017c65781602001602082028038833980820191505090505b50965082604051908082528060200260200182016040528015620017f95781602001602082028038833980820191505090505b509550600091505b82821015620019285787828151811015156200181957fe5b906020019060200201519050806020015142111515620018a157806000015187868151811015156200184757fe5b9060200190602002019073ffffffffffffffffffffffffffffffffffffffff16908173ffffffffffffffffffffffffffffffffffffffff1681525050620018996001866200193890919063ffffffff16565b94506200190a565b80600001518685815181101515620018b557fe5b9060200190602002019073ffffffffffffffffffffffffffffffffffffffff16908173ffffffffffffffffffffffffffffffffffffffff1681525050620019076001856200193890919063ffffffff16565b93505b620019206001836200193890919063ffffffff16565b915062001801565b8686965096505050505050915091565b600081830190508281101515156200194c57fe5b80905092915050565b600073ffffffffffffffffffffffffffffffffffffffff168173ffffffffffffffffffffffffffffffffffffffff16141515156200199257600080fd5b8073ffffffffffffffffffffffffffffffffffffffff166000809054906101000a900473ffffffffffffffffffffffffffffffffffffffff1673ffffffffffffffffffffffffffffffffffffffff167f8be0079c531659141344cd1fd0a4f28419497f9722a3daafe3b4186f6b6457e060405160405180910390a3806000806101000a81548173ffffffffffffffffffffffffffffffffffffffff021916908373ffffffffffffffffffffffffffffffffffffffff16021790555050565b6040805190810160405280600073ffffffffffffffffffffffffffffffffffffffff168152602001600081525090565b82805482825590600052602060002090600202810192821562001b3b5760005260206000209160020282015b8281111562001b3a5782826000820160009054906101000a900473ffffffffffffffffffffffffffffffffffffffff168160000160006101000a81548173ffffffffffffffffffffffffffffffffffffffff021916908373ffffffffffffffffffffffffffffffffffffffff1602179055506001820154816001015550509160020191906002019062001aac565b5b50905062001b4a919062001b5f565b5090565b60405161294d8062001bb183390190565b62001bad91905b8082111562001ba957600080820160006101000a81549073ffffffffffffffffffffffffffffffffffffffff021916905560018201600090555060020162001b66565b5090565b905600608060405260008060146101000a81548160ff02191690831515021790555060008060156101000a81548160ff0219169083151502179055503480156200004557600080fd5b506040516200294d3803806200294d833981018060405281019080805182019291906020018051906020019092919080519060200190929190805190602001909291908051906020019092919080518201929190505050336000806101000a81548173ffffffffffffffffffffffffffffffffffffffff021916908373ffffffffffffffffffffffffffffffffffffffff1602179055508242101515620000eb57600080fd5b856003908051906020019062000103929190620004b6565b5083600260006101000a81548173ffffffffffffffffffffffffffffffffffffffff021916908373ffffffffffffffffffffffffffffffffffffffff160217905550846005819055508260068190555081600781905550806004908051906020019062000172929190620004b6565b506000600c60006101000a81548160ff02191690831515021790555033601060006101000a81548173ffffffffffffffffffffffffffffffffffffffff021916908373ffffffffffffffffffffffffffffffffffffffff160217905550601060009054906101000a900473ffffffffffffffffffffffffffffffffffffffff16601160006101000a81548173ffffffffffffffffffffffffffffffffffffffff021916908373ffffffffffffffffffffffffffffffffffffffff160217905550601160009054906101000a900473ffffffffffffffffffffffffffffffffffffffff1673ffffffffffffffffffffffffffffffffffffffff1663bccec5d18560016006546040518463ffffffff167c0100000000000000000000000000000000000000000000000000000000028152600401808473ffffffffffffffffffffffffffffffffffffffff1673ffffffffffffffffffffffffffffffffffffffff1681526020018381526020018281526020019350505050600060405180830381600087803b1580156200030357600080fd5b505af115801562000318573d6000803e3d6000fd5b50505050620003368462000342640100000000026401000000009004565b50505050505062000565565b6000809054906101000a900473ffffffffffffffffffffffffffffffffffffffff1673ffffffffffffffffffffffffffffffffffffffff163373ffffffffffffffffffffffffffffffffffffffff161415156200039e57600080fd5b620003b881620003bb640100000000026401000000009004565b50565b600073ffffffffffffffffffffffffffffffffffffffff168173ffffffffffffffffffffffffffffffffffffffff1614151515620003f857600080fd5b8073ffffffffffffffffffffffffffffffffffffffff166000809054906101000a900473ffffffffffffffffffffffffffffffffffffffff1673ffffffffffffffffffffffffffffffffffffffff167f8be0079c531659141344cd1fd0a4f28419497f9722a3daafe3b4186f6b6457e060405160405180910390a3806000806101000a81548173ffffffffffffffffffffffffffffffffffffffff021916908373ffffffffffffffffffffffffffffffffffffffff16021790555050565b828054600181600116156101000203166002900490600052602060002090601f016020900481019282601f10620004f957805160ff19168380011785556200052a565b828001600101855582156200052a579182015b82811115620005295782518255916020019190600101906200050c565b5b5090506200053991906200053d565b5090565b6200056291905b808211156200055e57600081600090555060010162000544565b5090565b90565b6123d880620005756000396000f3006080604052600436106101a1576000357c0100000000000000000000000000000000000000000000000000000000900463ffffffff16806303441006146101e357806310550515146102105780631d565e781461024a57806329dcb0cf146102755780632e6bae6b146102a057806331116a22146102b75780633410452a1461034757806335f0202b146103725780633ccfd60b1461039d5780633f0795ff146103b45780633f4ba83a146103df57806340193883146103f65780634051ddac14610421578063481c6a7514610588578063565974d3146105df5780635c975abb1461066f578063715018a61461069e57806378860268146106b55780637b3e5e7b146106e057806380f474f61461070b57806381d12c58146107365780638456cb59146108285780638a9cfd551461083f5780638da5cb5b146108d2578063937e09b114610929578063966dae0e14610954578063b85dfb80146109ab578063cf56334314610a02578063d7bb99ba14610a31578063d7d1bbdb14610a3b578063dc104f8014610a68578063f2fde38b14610a95578063f7ffbd8514610ad8575b3373ffffffffffffffffffffffffffffffffffffffff166108fc349081150290604051600060405180830381858888f1935050505015156101e157600080fd5b005b3480156101ef57600080fd5b5061020e60048036038101908080359060200190929190505050610b03565b005b34801561021c57600080fd5b50610225610d41565b6040518083151515158152602001821515151581526020019250505060405180910390f35b34801561025657600080fd5b5061025f610d6c565b6040518082815260200191505060405180910390f35b34801561028157600080fd5b5061028a610d72565b6040518082815260200191505060405180910390f35b3480156102ac57600080fd5b506102b5610d78565b005b3480156102c357600080fd5b506102cc610e10565b6040518080602001828103825283818151815260200191508051906020019080838360005b8381101561030c5780820151818401526020810190506102f1565b50505050905090810190601f1680156103395780820380516001836020036101000a031916815260200191505b509250505060405180910390f35b34801561035357600080fd5b5061035c610eae565b6040518082815260200191505060405180910390f35b34801561037e57600080fd5b50610387610ebb565b6040518082815260200191505060405180910390f35b3480156103a957600080fd5b506103b2610ec1565b005b3480156103c057600080fd5b506103c9611240565b6040518082815260200191505060405180910390f35b3480156103eb57600080fd5b506103f4611246565b005b34801561040257600080fd5b5061040b611304565b6040518082815260200191505060405180910390f35b34801561042d57600080fd5b5061043661130a565b60405180806020018c73ffffffffffffffffffffffffffffffffffffffff1673ffffffffffffffffffffffffffffffffffffffff1681526020018b81526020018a81526020018981526020018060200188815260200187815260200186815260200185815260200184815260200183810383528e818151815260200191508051906020019080838360005b838110156104dc5780820151818401526020810190506104c1565b50505050905090810190601f1680156105095780820380516001836020036101000a031916815260200191505b50838103825289818151815260200191508051906020019080838360005b83811015610542578082015181840152602081019050610527565b50505050905090810190601f16801561056f5780820380516001836020036101000a031916815260200191505b509d505050505050505050505050505060405180910390f35b34801561059457600080fd5b5061059d6114ce565b604051808273ffffffffffffffffffffffffffffffffffffffff1673ffffffffffffffffffffffffffffffffffffffff16815260200191505060405180910390f35b3480156105eb57600080fd5b506105f46114f4565b6040518080602001828103825283818151815260200191508051906020019080838360005b83811015610634578082015181840152602081019050610619565b50505050905090810190601f1680156106615780820380516001836020036101000a031916815260200191505b509250505060405180910390f35b34801561067b57600080fd5b50610684611592565b604051808215151515815260200191505060405180910390f35b3480156106aa57600080fd5b506106b36115a5565b005b3480156106c157600080fd5b506106ca6116a7565b6040518082815260200191505060405180910390f35b3480156106ec57600080fd5b506106f56116ad565b6040518082815260200191505060405180910390f35b34801561071757600080fd5b506107206116b3565b6040518082815260200191505060405180910390f35b34801561074257600080fd5b50610761600480360381019080803590602001909291905050506116b9565b60405180806020018681526020018573ffffffffffffffffffffffffffffffffffffffff1673ffffffffffffffffffffffffffffffffffffffff16815260200184151515158152602001838152602001828103825287818151815260200191508051906020019080838360005b838110156107e95780820151818401526020810190506107ce565b50505050905090810190601f1680156108165780820380516001836020036101000a031916815260200191505b50965050505050505060405180910390f35b34801561083457600080fd5b5061083d6117c3565b005b34801561084b57600080fd5b506108d0600480360381019080803590602001908201803590602001908080601f016020809104026020016040519081016040528093929190818152602001838380828437820191505050505050919291929080359060200190929190803573ffffffffffffffffffffffffffffffffffffffff169060200190929190505050611883565b005b3480156108de57600080fd5b506108e7611a7d565b604051808273ffffffffffffffffffffffffffffffffffffffff1673ffffffffffffffffffffffffffffffffffffffff16815260200191505060405180910390f35b34801561093557600080fd5b5061093e611aa2565b6040518082815260200191505060405180910390f35b34801561096057600080fd5b50610969611aa8565b604051808273ffffffffffffffffffffffffffffffffffffffff1673ffffffffffffffffffffffffffffffffffffffff16815260200191505060405180910390f35b3480156109b757600080fd5b506109ec600480360381019080803573ffffffffffffffffffffffffffffffffffffffff169060200190929190505050611ace565b6040518082815260200191505060405180910390f35b348015610a0e57600080fd5b50610a17611ae6565b604051808215151515815260200191505060405180910390f35b610a39611af9565b005b348015610a4757600080fd5b50610a6660048036038101908080359060200190929190505050611e37565b005b348015610a7457600080fd5b50610a9360048036038101908080359060200190929190505050611f7e565b005b348015610aa157600080fd5b50610ad6600480360381019080803573ffffffffffffffffffffffffffffffffffffffff1690602001909291905050506120d5565b005b348015610ae457600080fd5b50610aed61213c565b6040518082815260200191505060405180910390f35b60008060009054906101000a900473ffffffffffffffffffffffffffffffffffffffff1673ffffffffffffffffffffffffffffffffffffffff163373ffffffffffffffffffffffffffffffffffffffff16141515610b6057600080fd5b600c60009054906101000a900460ff16151515610b7c57600080fd5b600182815481101515610b8b57fe5b90600052602060002090600502019050610bb1600260085461214290919063ffffffff16565b8160030154111515610bc257600080fd5b8060020160149054906101000a900460ff16151515610be057600080fd5b8060020160009054906101000a900473ffffffffffffffffffffffffffffffffffffffff1673ffffffffffffffffffffffffffffffffffffffff166108fc82600101549081150290604051600060405180830381858888f19350505050158015610c4e573d6000803e3d6000fd5b50610c688160010154600f5461215890919063ffffffff16565b600f81905550610c878160010154600e5461215890919063ffffffff16565b600e8190555060018160020160146101000a81548160ff0219169083151502179055507f15cf4d7980b6be9411b518575337aca2b746a23acbd3978bec4a1eb23af1415c8160020160009054906101000a900473ffffffffffffffffffffffffffffffffffffffff168260010154604051808373ffffffffffffffffffffffffffffffffffffffff1673ffffffffffffffffffffffffffffffffffffffff1681526020018281526020019250505060405180910390a15050565b600080600060159054906101000a900460ff16600c60009054906101000a900460ff16915091509091565b60085481565b60065481565b6000809054906101000a900473ffffffffffffffffffffffffffffffffffffffff1673ffffffffffffffffffffffffffffffffffffffff163373ffffffffffffffffffffffffffffffffffffffff16141515610dd357600080fd5b60065442118015610de85750600754600d5410155b1515610df357600080fd5b6001600c60006101000a81548160ff021916908315150217905550565b60038054600181600116156101000203166002900480601f016020809104026020016040519081016040528092919081815260200182805460018160011615610100020316600290048015610ea65780601f10610e7b57610100808354040283529160200191610ea6565b820191906000526020600020905b815481529060010190602001808311610e8957829003601f168201915b505050505081565b6000600180549050905090565b60095481565b600080601260003373ffffffffffffffffffffffffffffffffffffffff1673ffffffffffffffffffffffffffffffffffffffff16815260200190815260200160002054111515610f1057600080fd5b600060149054906101000a900460ff16151515610f2c57600080fd5b6001600060146101000a81548160ff02191690831515021790555060065442111580610f5b5750600754600d54105b80610f725750600c60009054906101000a900460ff165b1515610f7d57600080fd5b601260003373ffffffffffffffffffffffffffffffffffffffff1673ffffffffffffffffffffffffffffffffffffffff1681526020019081526020016000205490506000601260003373ffffffffffffffffffffffffffffffffffffffff1673ffffffffffffffffffffffffffffffffffffffff16815260200190815260200160002081905550600c60009054906101000a900460ff161561104957611042600d54611034600f548461217190919063ffffffff16565b61214290919063ffffffff16565b9050611171565b61105e81600d5461215890919063ffffffff16565b600d8190555061107981600f5461215890919063ffffffff16565b600f81905550611095600160085461215890919063ffffffff16565b600881905550601160009054906101000a900473ffffffffffffffffffffffffffffffffffffffff1673ffffffffffffffffffffffffffffffffffffffff166377db1787336040518263ffffffff167c0100000000000000000000000000000000000000000000000000000000028152600401808273ffffffffffffffffffffffffffffffffffffffff1673ffffffffffffffffffffffffffffffffffffffff168152602001915050600060405180830381600087803b15801561115857600080fd5b505af115801561116c573d6000803e3d6000fd5b505050505b3373ffffffffffffffffffffffffffffffffffffffff166108fc829081150290604051600060405180830381858888f193505050501580156111b7573d6000803e3d6000fd5b507f7fcf532c15f0a6db0bd6d0e038bea71d30d808c7d98cb3bf7268a95bf5081b653382604051808373ffffffffffffffffffffffffffffffffffffffff1673ffffffffffffffffffffffffffffffffffffffff1681526020018281526020019250505060405180910390a160008060146101000a81548160ff02191690831515021790555050565b600a5481565b6000809054906101000a900473ffffffffffffffffffffffffffffffffffffffff1673ffffffffffffffffffffffffffffffffffffffff163373ffffffffffffffffffffffffffffffffffffffff161415156112a157600080fd5b600060159054906101000a900460ff1615156112bc57600080fd5b60008060156101000a81548160ff0219169083151502179055507f7805862f689e2f13df9f062ff482ad3ad112aca9e0847911ed832e158c525b3360405160405180910390a1565b60075481565b6060600080600080606060008060008060006003600260009054906101000a900473ffffffffffffffffffffffffffffffffffffffff166005546006546007546004600d543073ffffffffffffffffffffffffffffffffffffffff1631600180549050600b546008548a8054600181600116156101000203166002900480601f0160208091040260200160405190810160405280929190818152602001828054600181600116156101000203166002900480156114085780601f106113dd57610100808354040283529160200191611408565b820191906000526020600020905b8154815290600101906020018083116113eb57829003601f168201915b50505050509a50858054600181600116156101000203166002900480601f0160208091040260200160405190810160405280929190818152602001828054600181600116156101000203166002900480156114a45780601f10611479576101008083540402835291602001916114a4565b820191906000526020600020905b81548152906001019060200180831161148757829003601f168201915b505050505095509a509a509a509a509a509a509a509a509a509a509a50909192939495969798999a565b600260009054906101000a900473ffffffffffffffffffffffffffffffffffffffff1681565b60048054600181600116156101000203166002900480601f01602080910402602001604051908101604052809291908181526020018280546001816001161561010002031660029004801561158a5780601f1061155f5761010080835404028352916020019161158a565b820191906000526020600020905b81548152906001019060200180831161156d57829003601f168201915b505050505081565b600060159054906101000a900460ff1681565b6000809054906101000a900473ffffffffffffffffffffffffffffffffffffffff1673ffffffffffffffffffffffffffffffffffffffff163373ffffffffffffffffffffffffffffffffffffffff1614151561160057600080fd5b6000809054906101000a900473ffffffffffffffffffffffffffffffffffffffff1673ffffffffffffffffffffffffffffffffffffffff167ff8df31144d9c2f0f6b59d69b8b98abd5459d07f2742c4df920b25aae33c6482060405160405180910390a260008060006101000a81548173ffffffffffffffffffffffffffffffffffffffff021916908373ffffffffffffffffffffffffffffffffffffffff160217905550565b600e5481565b600d5481565b600b5481565b6001818154811015156116c857fe5b9060005260206000209060050201600091509050806000018054600181600116156101000203166002900480601f0160208091040260200160405190810160405280929190818152602001828054600181600116156101000203166002900480156117745780601f1061174957610100808354040283529160200191611774565b820191906000526020600020905b81548152906001019060200180831161175757829003601f168201915b5050505050908060010154908060020160009054906101000a900473ffffffffffffffffffffffffffffffffffffffff16908060020160149054906101000a900460ff16908060030154905085565b6000809054906101000a900473ffffffffffffffffffffffffffffffffffffffff1673ffffffffffffffffffffffffffffffffffffffff163373ffffffffffffffffffffffffffffffffffffffff1614151561181e57600080fd5b600060159054906101000a900460ff1615151561183a57600080fd5b6001600060156101000a81548160ff0219169083151502179055507f6985a02210a168e66602d3235cb6db0e70f92b3ba4d376a33c0f3d9434bff62560405160405180910390a1565b61188b6122bf565b6000809054906101000a900473ffffffffffffffffffffffffffffffffffffffff1673ffffffffffffffffffffffffffffffffffffffff163373ffffffffffffffffffffffffffffffffffffffff161415156118e657600080fd5b600654421180156118fb5750600754600d5410155b151561190657600080fd5b600060159054906101000a900460ff1615151561192257600080fd5b600c60009054906101000a900460ff1615151561193e57600080fd5b61195383600e546121a990919063ffffffff16565b600e81905550600f54600e54111561196a57600080fd5b60a0604051908101604052808581526020018481526020018373ffffffffffffffffffffffffffffffffffffffff168152602001600015158152602001600081525090506001819080600181540180825580915050906001820390600052602060002090600502016000909192909190915060008201518160000190805190602001906119f8929190612307565b506020820151816001015560408201518160020160006101000a81548173ffffffffffffffffffffffffffffffffffffffff021916908373ffffffffffffffffffffffffffffffffffffffff16021790555060608201518160020160146101000a81548160ff0219169083151502179055506080820151816003015550505050505050565b6000809054906101000a900473ffffffffffffffffffffffffffffffffffffffff1681565b60055481565b601060009054906101000a900473ffffffffffffffffffffffffffffffffffffffff1681565b60126020528060005260406000206000915090505481565b600c60009054906101000a900460ff1681565b60008060159054906101000a900460ff16151515611b1657600080fd5b600060149054906101000a900460ff16151515611b3257600080fd5b6001600060146101000a81548160ff02191690831515021790555060055434118015611b6057506006544211155b1515611b6b57600080fd5b611b8034600d546121a990919063ffffffff16565b9050678ac7230489e80000811115611b9757600080fd5b6000601260003373ffffffffffffffffffffffffffffffffffffffff1673ffffffffffffffffffffffffffffffffffffffff168152602001908152602001600020541415611bfc57611bf560016008546121a990919063ffffffff16565b6008819055505b611c4e34601260003373ffffffffffffffffffffffffffffffffffffffff1673ffffffffffffffffffffffffffffffffffffffff168152602001908152602001600020546121a990919063ffffffff16565b601260003373ffffffffffffffffffffffffffffffffffffffff1673ffffffffffffffffffffffffffffffffffffffff16815260200190815260200160002081905550611ca634600d546121a990919063ffffffff16565b600d81905550611cc134600f546121a990919063ffffffff16565b600f81905550601160009054906101000a900473ffffffffffffffffffffffffffffffffffffffff1673ffffffffffffffffffffffffffffffffffffffff1663bccec5d13360026006546040518463ffffffff167c0100000000000000000000000000000000000000000000000000000000028152600401808473ffffffffffffffffffffffffffffffffffffffff1673ffffffffffffffffffffffffffffffffffffffff1681526020018381526020018281526020019350505050600060405180830381600087803b158015611d9757600080fd5b505af1158015611dab573d6000803e3d6000fd5b505050507f906faaf913a60f38b5e8f2d6f5b163239bac2d994fa1a5d21751a51587a940573334604051808373ffffffffffffffffffffffffffffffffffffffff1673ffffffffffffffffffffffffffffffffffffffff1681526020018281526020019250505060405180910390a160008060146101000a81548160ff02191690831515021790555050565b600080601260003373ffffffffffffffffffffffffffffffffffffffff1673ffffffffffffffffffffffffffffffffffffffff16815260200190815260200160002054111515611e8657600080fd5b600182815481101515611e9557fe5b906000526020600020906005020190508060040160003373ffffffffffffffffffffffffffffffffffffffff1673ffffffffffffffffffffffffffffffffffffffff16815260200190815260200160002060009054906101000a900460ff16151515611f0057600080fd5b60018160040160003373ffffffffffffffffffffffffffffffffffffffff1673ffffffffffffffffffffffffffffffffffffffff16815260200190815260200160002060006101000a81548160ff021916908315150217905550611f72600182600301546121a990919063ffffffff16565b81600301819055505050565b6000601260003373ffffffffffffffffffffffffffffffffffffffff1673ffffffffffffffffffffffffffffffffffffffff16815260200190815260200160002054111515611fcc57600080fd5b60065442118015611fe15750600754600d5410155b1515611fec57600080fd5b6000601360003373ffffffffffffffffffffffffffffffffffffffff1673ffffffffffffffffffffffffffffffffffffffff1681526020019081526020016000205414151561203a57600080fd5b80601360003373ffffffffffffffffffffffffffffffffffffffff1673ffffffffffffffffffffffffffffffffffffffff1681526020019081526020016000208190555061209460016009546121a990919063ffffffff16565b6009819055506120af81600a546121a990919063ffffffff16565b600a819055506120cc600954600a5461214290919063ffffffff16565b600b8190555050565b6000809054906101000a900473ffffffffffffffffffffffffffffffffffffffff1673ffffffffffffffffffffffffffffffffffffffff163373ffffffffffffffffffffffffffffffffffffffff1614151561213057600080fd5b612139816121c5565b50565b600f5481565b6000818381151561214f57fe5b04905092915050565b600082821115151561216657fe5b818303905092915050565b60008083141561218457600090506121a3565b818302905081838281151561219557fe5b0414151561219f57fe5b8090505b92915050565b600081830190508281101515156121bc57fe5b80905092915050565b600073ffffffffffffffffffffffffffffffffffffffff168173ffffffffffffffffffffffffffffffffffffffff161415151561220157600080fd5b8073ffffffffffffffffffffffffffffffffffffffff166000809054906101000a900473ffffffffffffffffffffffffffffffffffffffff1673ffffffffffffffffffffffffffffffffffffffff167f8be0079c531659141344cd1fd0a4f28419497f9722a3daafe3b4186f6b6457e060405160405180910390a3806000806101000a81548173ffffffffffffffffffffffffffffffffffffffff021916908373ffffffffffffffffffffffffffffffffffffffff16021790555050565b60a0604051908101604052806060815260200160008152602001600073ffffffffffffffffffffffffffffffffffffffff168152602001600015158152602001600081525090565b828054600181600116156101000203166002900490600052602060002090601f016020900481019282601f1061234857805160ff1916838001178555612376565b82800160010185558215612376579182015b8281111561237557825182559160200191906001019061235a565b5b5090506123839190612387565b5090565b6123a991905b808211156123a557600081600090555060010161238d565b5090565b905600a165627a7a723058200a7eaaad2b1df00f8ea911646f8d947ad9495074fa3e1fbd73c1d3b0622042220029a165627a7a723058204ac60d8c847f8484e88fa7c36338b3f0e64ff5b2b11ea802e0f9cdee9b81bc4d0029",
  "source": "/**\n * @author Sushant Kumar\n * @title CrowdCoin\n * @section DESCRIPTION\n * This smart contract is an implementation of Kickstarter using Solidity.\n * It is used to create Campaigns to raise funds and then request the backers of \n * the Campagin to approve the usage of the raised funds for various purposes.\n * Additional features include withdrawal before deadline, refund initiated by Campaign manager \n * and rating of campaigns.\n * Follows a Factory design pattern wherein the CampaignFactory creates instances of the Campaign\n */\n\npragma solidity ^0.4.24;\n\nimport \"./SafeMath.sol\";\nimport \"./Ownable.sol\";\nimport \"./ReentrancyGuard.sol\";\nimport \"./Pausable.sol\";\n\ncontract CampaignFactory is Ownable, Pausable {\n\n    using SafeMath for uint256;\n\n    event NewCampaign(address campaignAddress, string name, uint minimum, address creator, uint deadline, uint goal, string details);\n\n    struct CampaignStatus {\n        address addrOfCampaign;\n        uint deadline;\n    }\n\n    mapping(address => CampaignStatus[]) public campaignCreatorsList;\n    mapping(address => CampaignStatus[]) public backersList;\n    CampaignStatus[] public deployedCampaigns;\n\n    /**\n    * @dev Create a new Campaign with the required parameters\n    * @param name Name of the campaign\n    * @param minimum Minimum contribution for the campaign\n    * @param _deadline Deadline for the campaign\n    * @param _goal Funding goal of the campaign\n    * @param details Additional details for the campaign\n    */\n    function createCampaign(string name, uint minimum, uint _deadline, uint _goal, string details) public whenNotPaused {\n        address newCampaign = new Campaign(name, minimum, msg.sender, _deadline, _goal, details);\n        CampaignStatus memory newAddition = CampaignStatus({addrOfCampaign: newCampaign, deadline: _deadline });\n        deployedCampaigns.push(newAddition);\n        emit NewCampaign(newCampaign, name, minimum, msg.sender, _deadline, _goal, details);\n    }\n\n    /**\n    * @dev To retrieve list of campaigns. Uses filterCampaigns() to filter\n    * @param user address of the user\n    * @param code If 0 -> shows a general list.  1 -> Filters through campaign creators list.  2 -> Filters through campaign backers list  \n    * @return ongoingCampaigns List of addresses of Ongoing Campaigns\n    * @return completedCampaigns List of addresses of Completed Campaigns\n    */\n    function getCampaigns(address user, uint code) public view returns(address[] ongoingCampaigns, address[] completedCampaigns) {\n        CampaignStatus[] memory listOfCampaigns;\n\n        if(code == 0) {\n            listOfCampaigns = deployedCampaigns;\n        }\n\n        else if(code == 1) {\n            listOfCampaigns = campaignCreatorsList[user];\n        }\n\n        else if(code == 2) {\n            listOfCampaigns = backersList[user];\n        }\n\n        return(filterCampaigns(listOfCampaigns));\n    }\n\n    /**\n    * @dev Filters campaigns based on current block.timestamp into ongoing and completed\n    * @param campaigns List of CampaignStatus from getCampaigns() to filtered upon\n    * @return ongoingCampaigns List of addresses of Ongoing Campaigns\n    * @return completedCampaigns List of addresses of Completed Campaigns\n    */\n    function filterCampaigns(CampaignStatus[] campaigns) internal view returns(address[] ongoingCampaigns, address[] completedCampaigns) {\n        uint indexOfOngoing;\n        uint indexOfCompleted;\n\n        uint numberOfCampaigns = campaigns.length;\n        ongoingCampaigns = new address[](numberOfCampaigns);\n        completedCampaigns = new address[](numberOfCampaigns);\n\n        for(uint i = 0; i < numberOfCampaigns; i = i.add(1)) {\n            CampaignStatus memory campaign = campaigns[i];\n\n            // Ongoing Campaigns\n            if(block.timestamp <= campaign.deadline ) {\n                ongoingCampaigns[indexOfOngoing] = campaign.addrOfCampaign;\n                indexOfOngoing = indexOfOngoing.add(1);\n            }\n\n            // Completed Campaigns\n            else {\n                completedCampaigns[indexOfCompleted] = campaign.addrOfCampaign;\n                indexOfCompleted = indexOfCompleted.add(1);\n            }\n        }\n        return (ongoingCampaigns, completedCampaigns);\n    }\n\n    /**\n    * @dev Adds user to the lists campaignCreatorsList and backersList for all campaigns created\n    * @param user address of user to be added to campaignCreatorsList/backersList\n    * @param creatorOrBacker flag for a campaign creator/backer\n    * @param _deadline Deadline of campaign acts as an additional parameter to filter for user profiles\n    */\n    function addToList(address user, uint creatorOrBacker, uint _deadline) public {\n        CampaignStatus memory newAddition = CampaignStatus({addrOfCampaign: msg.sender, deadline: _deadline});\n        bool notPresent = true;\n\n        if(creatorOrBacker == 1) {\n            CampaignStatus[] storage creatorCampaigns = campaignCreatorsList[user];\n\n            for(uint i = 0; i < creatorCampaigns.length; i++) {\n                CampaignStatus memory tempCampaign = creatorCampaigns[i];\n                if(newAddition.addrOfCampaign == tempCampaign.addrOfCampaign) {\n                    notPresent = false;\n                }\n            }\n\n            if(notPresent == true) {\n                creatorCampaigns.push(newAddition);\n                campaignCreatorsList[user] = creatorCampaigns;                \n            }\n        }\n\n        else if(creatorOrBacker == 2) {\n            CampaignStatus[] storage backerCampaigns = backersList[user];\n\n            for(uint j = 0; j < backerCampaigns.length; j++) {\n                CampaignStatus memory tempoCampaign = backerCampaigns[j];\n                if(newAddition.addrOfCampaign == tempoCampaign.addrOfCampaign) {\n                    notPresent = false;\n                }\n            }\n\n            if(notPresent == true) {\n                backerCampaigns.push(newAddition);\n                backersList[user] = backerCampaigns;\n            }\n        }\n    }\n\n    /**\n    * @dev Deletes users from the list backersList if a user withdrew their funds\n    * @param user address of the user\n    */\n    function deleteFromList(address user) public {\n        CampaignStatus[] storage listOfCampaigns = backersList[user];\n\n        for(uint index = 0; index < listOfCampaigns.length; index = index.add(1)) {\n            CampaignStatus memory campaign = listOfCampaigns[index];\n\n            if(msg.sender == campaign.addrOfCampaign) {\n                delete listOfCampaigns[index];\n            }\n        }\n        backersList[user] = listOfCampaigns;\n    }\n}\n\n\n/**\n* Campaign contract created for every new campaign, by invoking the createCampaign(args..)\n* in CampaignFactory. Caller of createCamapign will be the manager of the Campign instance.\n*/\n\ncontract Campaign is Ownable, ReentrancyGuard, Pausable {\n\n    using SafeMath for uint256;\n    \n    struct Request {\n        string description;\n        uint value;\n        address recipient;\n        bool complete;\n        uint backerCount;\n        mapping(address => bool) backers;\n    }\n    \n    Request[] public requests;\n    address public manager;\n    string public nameOfCampaign;\n    string public details;\n    uint public minimumContribution;\n    uint public deadline;\n    uint public goal;\n    uint public backersCount;\n    uint public ratersCount;\n    uint public ratingSum;\n    uint public rating;\n    bool public refundFlag;\n    uint public amountRaised;\n    uint public requestedAmount;\n    uint public amountRemaining;\n    address public factoryAddress;\n\n    // Limiting contributions to 10 ETH\n    uint constant MAX_LIMIT_FOR_CONTRIB = 10000000000000000000;\n\n    CampaignFactory factory;\n\n    mapping(address => uint256) public backers;\n    mapping(address => uint256) private ratingFrombackers;\n\n\n    event Contribute(address contributor, uint amount);\n    event Withdrawal(address contributor, uint amount);\n    event RequestFinalized(address recipient, uint value);\n\n    /**\n    * @dev Modifier to check if the backer has contributed\n    */\n    modifier validBacker() {\n        require(backers[msg.sender] > 0);\n        _;\n    }\n\n    /**\n    * @dev Modifier to check if deadline has passed and the campaign has reached its goal\n    */\n    modifier postDeadline() {\n        require(block.timestamp > deadline && amountRaised >= goal);\n        _;\n    }\n\n    /**\n    * @dev Constructor to create a Campaign\n    */\n    constructor(string _name, uint _minimumContribution, address creator, uint _deadline, uint _goal, string _details) public {\n\n        require(block.timestamp < _deadline);\n        nameOfCampaign = _name;\n        manager = creator;\n        minimumContribution = _minimumContribution;\n        deadline = _deadline;\n        goal = _goal;\n        details = _details;\n        refundFlag = false;\n        factoryAddress = msg.sender;\n        factory = CampaignFactory(factoryAddress);\n\n        factory.addToList(creator, 1, deadline);\n        // Otherwise the owner of the Campaign instance will always be the CampaignFactory\n        transferOwnership(creator);\n    }\n    \n    /**\n    * @dev Payable function recieve funds from backers\n    */\n    function contribute() public payable whenNotPaused nonReentrant {\n        require(msg.value > minimumContribution && block.timestamp <= deadline);\n        uint checkAmount = amountRaised.add(msg.value);\n\n        if(checkAmount > MAX_LIMIT_FOR_CONTRIB) {\n            revert();\n        }\n\n        if(backers[msg.sender] == 0) {\n            backersCount = backersCount.add(1);            \n        }\n\n        backers[msg.sender] = backers[msg.sender].add(msg.value);\n        amountRaised = amountRaised.add(msg.value);\n        amountRemaining = amountRemaining.add(msg.value);\n        factory.addToList(msg.sender, 2, deadline);\n        emit Contribute(msg.sender, msg.value);\n    }\n\n    /**\n    * @dev Function to withdraw funds from the campaign\n    */\n    function withdraw() external validBacker nonReentrant {\n        require(block.timestamp <= deadline || amountRaised < goal || refundFlag);\n        uint amountWithdrawn = backers[msg.sender];\n        backers[msg.sender] = 0;\n\n        if(refundFlag) {\n            amountWithdrawn = amountWithdrawn.mul(amountRemaining).div(amountRaised);\n        }\n\n        else {\n            amountRaised = amountRaised.sub(amountWithdrawn);\n            amountRemaining = amountRemaining.sub(amountWithdrawn);\n            backersCount = backersCount.sub(1);\n            factory.deleteFromList(msg.sender);\n        }\n\n        msg.sender.transfer(amountWithdrawn);\n        emit Withdrawal(msg.sender, amountWithdrawn);\n    }\n\n    /**\n    * @dev Create a request to utilize the funds raised\n    * @param description Description of the Request\n    * @param value Value in wei for the particular request\n    * @param recipient Recipient address of the request\n    */    \n    function createRequest(string description, uint value, address recipient) public onlyOwner postDeadline whenNotPaused{\n        require(!refundFlag);\n        requestedAmount = requestedAmount.add(value);\n        if(requestedAmount > amountRemaining) {\n            revert();\n        }\n\n        Request memory newRequest = Request({\n            description: description,\n            value: value,\n            recipient: recipient,\n            complete: false,\n            backerCount:  0\n        });\n        \n        requests.push(newRequest);\n    }\n\n    /**\n    * @dev Backers of the campaign can approve the request\n    * @param index Index of the request for approval\n    */    \n    function approveRequest(uint index) public validBacker {\n        Request storage request = requests[index];\n        require(!request.backers[msg.sender]);\n\n        request.backers[msg.sender] = true;\n        request.backerCount = request.backerCount.add(1);\n    }\n\n    /**\n    * @dev Finalizing the request for funds if more than 50% of the backers approve\n    * @param index Index of the request for approval\n    */    \n    function finalizeRequest(uint index) public onlyOwner {\n        require(!refundFlag);\n        Request storage request = requests[index];\n        require(request.backerCount > (backersCount.div(2)));\n        require(!request.complete);\n        \n        request.recipient.transfer(request.value);\n        amountRemaining = amountRemaining.sub(request.value);\n        requestedAmount = requestedAmount.sub(request.value);\n        request.complete = true;\n        emit RequestFinalized(request.recipient, request.value);\n    }\n\n    /**\n    * @dev Owner can activate the refund flag\n    */\n    function refundBackerFunds() public onlyOwner postDeadline {\n        refundFlag = true;\n    }\n\n    /**\n    * @dev Retrieve summary of the Campaign\n    * @return Multiple parameters of the Campaign\n    */\n    function getSummary() public view returns(string, address, uint, uint, uint, string, uint, uint, uint, uint, uint) {\n        return(nameOfCampaign, manager, minimumContribution, deadline, goal, details, amountRaised, address(this).balance, requests.length, rating, backersCount);\n    }\n\n    /**\n    * @dev Retrieve status of the Campaign\n    * @return bool If contract is paused or not\n    * @return bool If refundFlag has been activated or not\n    */\n    function getCampaignStatus() public view returns(bool, bool) {\n        return(paused, refundFlag);\n    }\n\n    /**\n    * @dev Retrieve the number of Requests in the Campaign\n    * @return uint The number of requests\n    */\n    function getRequestsCount() public view returns (uint) {\n        return requests.length;\n    }\n\n    /**\n    * @dev Store rating from a valid backer of the campaign\n    * @param _rating Rating ranges from 1 - 5\n    */\n    function giveRating(uint _rating) public validBacker postDeadline {\n        require(ratingFrombackers[msg.sender] == 0);\n        ratingFrombackers[msg.sender] = _rating;\n        ratersCount = ratersCount.add(1);\n        ratingSum = ratingSum.add(_rating);\n        rating = ratingSum.div(ratersCount);\n    }\n\n    /**\n    * @dev payable fallback\n    */\n    function () public payable {\n        if (!msg.sender.send(msg.value)) {\n            revert();\n        }\n    }\n}\n",
  "sourcePath": "/home/vagrant/code/CrowdCoin/contracts/CrowdCoin.sol",
  "compiler": {
    "name": "solc",
    "version": "0.4.24+commit.e67f0147.Emscripten.clang"
  },
  "schemaVersion": "2.0.1",
  "updatedAt": "2018-08-24T09:24:31.274Z"
}